{
	"data": {
		"bytecode": {
			"linkReferences": {},
			"object": "60806040526367e19da0600a553480156200001957600080fd5b5060405162003caf38038062003caf8339810160408190526200003c91620002cc565b6040518060400160405280600f81526020016e416e6369656e74204465766963657360881b8152506040518060400160405280600f81526020016e414e4349454e54204445564943455360881b8152508160009080519060200190620000a492919062000226565b508051620000ba90600190602084019062000226565b505050620000d7620000d16200011e60201b60201c565b62000122565b6006805461ffff60a01b1916600160a81b1790556001600755600f80546001600160a01b0383166001600160a01b03199091161790556200011762000174565b506200033b565b3390565b600580546001600160a01b038381166001600160a01b0319831681179093556040519116919082907f8be0079c531659141344cd1fd0a4f28419497f9722a3daafe3b4186f6b6457e090600090a35050565b62000188600654600160a01b900460ff1690565b15620001cd5760405162461bcd60e51b815260206004820152601060248201526f14185d5cd8589b194e881c185d5cd95960821b604482015260640160405180910390fd5b6006805460ff60a01b1916600160a01b1790557f62e78cea01bee320cd4e420270b5ea74000d11b0c9f74754ebdbfc544b05a258620002093390565b6040516001600160a01b03909116815260200160405180910390a1565b8280546200023490620002fe565b90600052602060002090601f016020900481019282620002585760008555620002a3565b82601f106200027357805160ff1916838001178555620002a3565b82800160010185558215620002a3579182015b82811115620002a357825182559160200191906001019062000286565b50620002b1929150620002b5565b5090565b5b80821115620002b15760008155600101620002b6565b600060208284031215620002df57600080fd5b81516001600160a01b0381168114620002f757600080fd5b9392505050565b600181811c908216806200031357607f821691505b602082108114156200033557634e487b7160e01b600052602260045260246000fd5b50919050565b613964806200034b6000396000f3fe608060405234801561001057600080fd5b50600436106102a05760003560e01c80636c0360eb11610167578063b88d4fde116100ce578063c87b56dd11610087578063c87b56dd14610605578063cab8fa2214610618578063da3ef23f1461062b578063e985e9c51461063e578063f2fde38b1461067a578063f851a4401461068d57600080fd5b8063b88d4fde146105a9578063bd32fb66146105bc578063be01ac8b146105cf578063c58e5be8146105d7578063c5b3d078146105ea578063c6682862146105fd57600080fd5b80638da5cb5b116101205780638da5cb5b1461054e578063915ee6e91461055f57806395d89b4114610572578063a22cb4651461057a578063a697fe311461058d578063aa98e0c6146105a057600080fd5b80636c0360eb146104df578063704b6c02146104e757806370a08231146104fa57806370b5ae9c1461050d578063715018a61461052057806386481d401461052857600080fd5b80633c4c51c91161020b5780634c7bce6b116101c45780634c7bce6b1461046e5780634f6ccce71461048157806355f804b3146104945780635c975abb146104a75780635f1aca81146104b95780636352211e146104cc57600080fd5b80633c4c51c9146103f757806342842e0e146103ff57806344944f311461041257806346c22429146104355780634830dfa51461044857806348c3b2471461045b57600080fd5b80631394818e1161025d5780631394818e1461039a57806316c38b3c146103ad57806318160ddd146103c057806323b872dd146103c85780632f745c59146103db578063314ca039146103ee57600080fd5b806301ffc9a7146102a557806306fdde03146102cd578063081812fc146102e2578063095ea7b31461030d5780630cc670fa1461032257806310ff8e3114610343575b600080fd5b6102b86102b3366004613209565b61069e565b60405190151581526020015b60405180910390f35b6102d56106c9565b6040516102c49190613474565b6102f56102f03660046131f0565b61075b565b6040516001600160a01b0390911681526020016102c4565b61032061031b366004613169565b6107e8565b005b610335610330366004613193565b6108fe565b6040519081526020016102c4565b6103786103513660046131f0565b600e6020526000908152604090205461ffff8116906201000090046001600160f01b031682565b6040805161ffff90931683526001600160f01b039091166020830152016102c4565b6103206103a83660046131f0565b6109a4565b6103206103bb3660046131d5565b610ad7565b600254610335565b6103206103d6366004613087565b610b2f565b6103356103e9366004613169565b610ba9565b610335600a5481565b6102d5610c5c565b61032061040d366004613087565b610c8d565b6102b8610420366004613039565b60096020526000908152604090205460ff1681565b610320610443366004613169565b610ca8565b6103356104563660046132f8565b610dfb565b6103206104693660046131f0565b610ec0565b61032061047c3660046132f8565b611124565b61033561048f3660046131f0565b6114e4565b6103206104a2366004613243565b611551565b600654600160a01b900460ff166102b8565b6103206104c73660046131d5565b6115a7565b6102f56104da3660046131f0565b6115fc565b6102d5611690565b6103206104f5366004613039565b61171e565b610335610508366004613039565b6117bc565b61032061051b3660046132a5565b61188a565b610320611c1e565b61053b6105363660046131f0565b611c54565b60405161ffff90911681526020016102c4565b6005546001600160a01b03166102f5565b600f546102f5906001600160a01b031681565b6102d5611cb9565b61032061058836600461313f565b611cc8565b61032061059b366004613039565b611d8d565b61033560085481565b6103206105b73660046130c3565b611dee565b6103206105ca3660046131f0565b611e6a565b610320611eae565b6103206105e53660046131f0565b611eec565b6103206105f8366004613193565b611f30565b6102d56121f1565b6102d56106133660046131f0565b6121fe565b6103356106263660046131f0565b6122a2565b610320610639366004613243565b6123ca565b6102b861064c366004613054565b6001600160a01b03918216600090815260046020908152604080832093909416825291909152205460ff1690565b610320610688366004613039565b61241c565b6006546001600160a01b03166102f5565b60006001600160e01b0319821663780e9d6360e01b14806106c357506106c3826124ba565b92915050565b6060600080546106d890613834565b80601f016020809104026020016040519081016040528092919081815260200182805461070490613834565b80156107515780601f1061072657610100808354040283529160200191610751565b820191906000526020600020905b81548152906001019060200180831161073457829003601f168201915b5050505050905090565b60006107668261250a565b6107cc5760405162461bcd60e51b815260206004820152602c60248201527f4552433732313a20617070726f76656420717565727920666f72206e6f6e657860448201526b34b9ba32b73a103a37b5b2b760a11b60648201526084015b60405180910390fd5b506000908152600360205260409020546001600160a01b031690565b60006107f3826115fc565b9050806001600160a01b0316836001600160a01b031614156108615760405162461bcd60e51b815260206004820152602160248201527f4552433732313a20617070726f76616c20746f2063757272656e74206f776e656044820152603960f91b60648201526084016107c3565b336001600160a01b038216148061087d575061087d813361064c565b6108ef5760405162461bcd60e51b815260206004820152603860248201527f4552433732313a20617070726f76652063616c6c6572206973206e6f74206f7760448201527f6e6572206e6f7220617070726f76656420666f7220616c6c000000000000000060648201526084016107c3565b6108f98383612554565b505050565b600080808361094f5760405162461bcd60e51b815260206004820152601e60248201527f596f752063616e6e6f74207061737320616e20656d707479206172726179000060448201526064016107c3565b60005b8481101561099b5761097b86868381811061096f5761096f6138ec565b905060200201356122a2565b925061098783836136bb565b91508061099381613891565b915050610952565b50949350505050565b6005546001600160a01b03163314806109c757506006546001600160a01b031633145b6109e35760405162461bcd60e51b81526004016107c390613632565b600a5442908110610a5c5760405162461bcd60e51b815260206004820152603860248201527f7969656c64456e6454696d652063616e2774206265206368616e676564206f6e60448201527f63652074686520656e642074696d65206861732070617374000000000000000060648201526084016107c3565b818110610ad15760405162461bcd60e51b815260206004820152603860248201527f7969656c64456e6454696d652063616e206f6e6c79206265206368616e67656460448201527f20746f20612074696d6520696e2074686520667574757265000000000000000060648201526084016107c3565b50600a55565b6005546001600160a01b0316331480610afa57506006546001600160a01b031633145b610b165760405162461bcd60e51b81526004016107c390613632565b8015610b2757610b246125c2565b50565b610b24612644565b60026007541415610b525760405162461bcd60e51b81526004016107c390613684565b60026007556000818152600e602052604090205442620100009091046001600160f01b031610610b945760405162461bcd60e51b81526004016107c390613597565b610b9f8383836126c8565b5050600160075550565b6000610bb4836117bc565b8210610bd25760405162461bcd60e51b81526004016107c390613487565b6000805b600254811015610c435760028181548110610bf357610bf36138ec565b6000918252602090912001546001600160a01b0386811691161415610c315783821415610c235791506106c39050565b81610c2d81613891565b9250505b80610c3b81613891565b915050610bd6565b5060405162461bcd60e51b81526004016107c390613487565b6060610c69600d546126f9565b604051602001610c799190613413565b604051602081830303815290604052905090565b6108f983838360405180602001604052806000815250611dee565b6005546001600160a01b03163314610cd25760405162461bcd60e51b81526004016107c390613524565b60025461056e610ce283836136bb565b1115610d265760405162461bcd60e51b815260206004820152601360248201527222bc31b2b2b2399036b0bc1039bab838363c9760691b60448201526064016107c3565b60005b82811015610db35760408051808201909152600181526001600160f01b0342166020820152600e6000610d5c84866136bb565b8152602080820192909252604001600020825192909101516001600160f01b0316620100000261ffff909216919091179055610da184610d9c83856136bb565b6127ff565b80610dab81613891565b915050610d29565b50604080516001600160a01b0385168152602081018490527fe679db040ba59b1f69e7f641211c64f95375b7e16597440a91e56e56e71104f2910160405180910390a1505050565b6000828152600e6020526040812054819061ffff165b838161ffff161015610eb8578061ffff1660011415610e4357610e3c676124fee993bc0000836136bb565b9150610ea6565b8061ffff1660021415610e6357610e3c6801e5b8fa8fe2ac0000836136bb565b8061ffff1660031415610e8357610e3c6812f939c99edab80000836136bb565b8061ffff1660041415610ea657610ea368a2a15d09519be00000836136bb565b91505b80610eb08161386f565b915050610e11565b509392505050565b600654600160a01b900460ff1615610eea5760405162461bcd60e51b81526004016107c39061356d565b600654600160a81b900460ff16610f3c5760405162461bcd60e51b815260206004820152601660248201527514d958dc995d08155b9b1bd8dac8111a5cd8589b195960521b60448201526064016107c3565b60026007541415610f5f5760405162461bcd60e51b81526004016107c390613684565b6002600755610f6d816115fc565b6001600160a01b0316336001600160a01b031614610fbf5760405162461bcd60e51b815260206004820152600f60248201526e4e6f7420796f75722064657669636560881b60448201526064016107c3565b600a5442116110035760405162461bcd60e51b815260206004820152601060248201526f446576696365206e6f7420726561647960801b60448201526064016107c3565b6000818152600e60205260409020805461ffff166005146110715760405162461bcd60e51b815260206004820152602260248201527f4d757374206265206c6576656c203520746f20756e6c6f636b20612064657669604482015261636560f01b60648201526084016107c3565b600061107c836122a2565b825461ffff1916600617835590508015610b9f57815461ffff1662010000426001600160f01b031602178255600f546001600160a01b03166340c10f19336040516001600160e01b031960e084901b1681526001600160a01b03909116600482015260248101849052604401600060405180830381600087803b15801561110257600080fd5b505af1158015611116573d6000803e3d6000fd5b505050505050600160075550565b600654600160a01b900460ff161561114e5760405162461bcd60e51b81526004016107c39061356d565b600260075414156111715760405162461bcd60e51b81526004016107c390613684565b600260075561117f826115fc565b6001600160a01b0316336001600160a01b0316146111d15760405162461bcd60e51b815260206004820152600f60248201526e4e4f5420594f55522044455649434560881b60448201526064016107c3565b6000828152600e60205260409020805461ffff1682116112285760405162461bcd60e51b81526020600482015260126024820152714d75737420626520616e207570677261646560701b60448201526064016107c3565b6006821061126f5760405162461bcd60e51b81526020600482015260146024820152734d6178206b6e6f776e206c6576656c206973203560601b60448201526064016107c3565b600061127a846122a2565b9050801561130d57815461ffff1662010000426001600160f01b031602178255600f546001600160a01b03166340c10f19336040516001600160e01b031960e084901b1681526001600160a01b03909116600482015260248101849052604401600060405180830381600087803b1580156112f457600080fd5b505af1158015611308573d6000803e3d6000fd5b505050505b81546000906113209061ffff168561287b565b600f5490915081906001600160a01b03166370a08231336040516001600160e01b031960e084901b1681526001600160a01b03909116600482015260240160206040518083038186803b15801561137657600080fd5b505afa15801561138a573d6000803e3d6000fd5b505050506040513d601f19601f820116820180604052508101906113ae919061328c565b1161140f5760405162461bcd60e51b815260206004820152602b60248201527f596f7520646f206e6f74206861766520656e6f756768204d414720666f72207460448201526a686973207570677261646560a81b60648201526084016107c3565b600f546001600160a01b0316639dc29fac336040516001600160e01b031960e084901b1681526001600160a01b03909116600482015260248101849052604401600060405180830381600087803b15801561146957600080fd5b505af115801561147d573d6000803e3d6000fd5b5050845461ffff191661ffff8716178555505060408051338152602081018790528082018690526060810184905290517f5bd44927bb6f69e7fbbca757c673a4b5b2ccae7f2382208157a95f598a0564f8916080908290030190a150506001600755505050565b600254600090821061154d5760405162461bcd60e51b815260206004820152602c60248201527f455243373231456e756d657261626c653a20676c6f62616c20696e646578206f60448201526b7574206f6620626f756e647360a01b60648201526084016107c3565b5090565b6005546001600160a01b031633148061157457506006546001600160a01b031633145b6115905760405162461bcd60e51b81526004016107c390613632565b80516115a390600b906020840190612ebb565b5050565b6005546001600160a01b03163314806115ca57506006546001600160a01b031633145b6115e65760405162461bcd60e51b81526004016107c390613632565b80156115f457610b24612919565b610b24612980565b60025460009082106116625760405162461bcd60e51b815260206004820152602960248201527f4552433732313a206f776e657220717565727920666f72206e6f6e657869737460448201526832b73a103a37b5b2b760b91b60648201526084016107c3565b60028281548110611675576116756138ec565b6000918252602090912001546001600160a01b031692915050565b600b805461169d90613834565b80601f01602080910402602001604051908101604052809291908181526020018280546116c990613834565b80156117165780601f106116eb57610100808354040283529160200191611716565b820191906000526020600020905b8154815290600101906020018083116116f957829003601f168201915b505050505081565b6005546001600160a01b031633146117485760405162461bcd60e51b81526004016107c390613524565b6001600160a01b0381166117b35760405162461bcd60e51b815260206004820152602c60248201527f4f776e61626c653a206e65772061646d696e2063616e2774206265207468652060448201526b7a65726f206164647265737360a01b60648201526084016107c3565b610b24816129e1565b60006001600160a01b0382166118275760405162461bcd60e51b815260206004820152602a60248201527f4552433732313a2062616c616e636520717565727920666f7220746865207a65604482015269726f206164647265737360b01b60648201526084016107c3565b6000805b6002548110156118835760028181548110611848576118486138ec565b6000918252602090912001546001600160a01b03858116911614156118735761187082613891565b91505b61187c81613891565b905061182b565b5092915050565b600654600160a01b900460ff16156118b45760405162461bcd60e51b81526004016107c39061356d565b600260075414156118d75760405162461bcd60e51b81526004016107c390613684565b600260078190555461056e6118ec86836136bb565b111561192f5760405162461bcd60e51b815260206004820152601260248201527145786365656473206d617820737570706c7960701b60448201526064016107c3565b6000851161198f5760405162461bcd60e51b815260206004820152602760248201527f596f75206d75737420636c61696d20616e20616d6f756e7420677265617465726044820152660207468616e20360cc1b60648201526084016107c3565b818511156119ee5760405162461bcd60e51b815260206004820152602660248201527f596f752063616e74206d696e74206d6f7265207468616e20796f757220616c6c6044820152656f77616e636560d01b60648201526084016107c3565b6040516bffffffffffffffffffffffff193360601b16602082015260348101839052600090605401604051602081830303815290604052805190602001209050611a6f858580806020026020016040519081016040528093929190818152602001838360200280828437600092019190915250506008549150849050612a33565b611ac75760405162461bcd60e51b815260206004820152602360248201527f496e76616c6964204d65726b6c6520547265652070726f6f6620737570706c6960448201526232b21760e91b60648201526084016107c3565b3360009081526009602052604090205460ff1615611b275760405162461bcd60e51b815260206004820181905260248201527f596f75206861766520616c726561647920636c61696d6564206465766963657360448201526064016107c3565b336000908152600960205260408120805460ff191660011790555b86811015611bcd5760408051808201909152600181526001600160f01b0342166020820152600e6000611b7584876136bb565b8152602080820192909252604001600020825192909101516001600160f01b0316620100000261ffff909216919091179055611bbb611bb13390565b610d9c83866136bb565b80611bc581613891565b915050611b42565b507fe679db040ba59b1f69e7f641211c64f95375b7e16597440a91e56e56e71104f233604080516001600160a01b039092168252602082018990520160405180910390a15050600160075550505050565b6005546001600160a01b03163314611c485760405162461bcd60e51b81526004016107c390613524565b611c526000612a49565b565b6000611c5f8261250a565b611ca25760405162461bcd60e51b8152602060048201526014602482015273151bdad95b88191bd95cc81b9bdd08195e1a5cdd60621b60448201526064016107c3565b506000908152600e602052604090205461ffff1690565b6060600180546106d890613834565b6001600160a01b038216331415611d215760405162461bcd60e51b815260206004820152601960248201527f4552433732313a20617070726f766520746f2063616c6c65720000000000000060448201526064016107c3565b3360008181526004602090815260408083206001600160a01b03871680855290835292819020805460ff191686151590811790915590519081529192917f17307eab39ab6107e8899845ad3d59bd9653f200f220920489ca2b5937696c31910160405180910390a35050565b6005546001600160a01b0316331480611db057506006546001600160a01b031633145b611dcc5760405162461bcd60e51b81526004016107c390613632565b600f80546001600160a01b0319166001600160a01b0392909216919091179055565b60026007541415611e115760405162461bcd60e51b81526004016107c390613684565b60026007556000828152600e602052604090205442620100009091046001600160f01b031610611e535760405162461bcd60e51b81526004016107c390613597565b611e5f84848484612a9b565b505060016007555050565b6005546001600160a01b0316331480611e8d57506006546001600160a01b031633145b611ea95760405162461bcd60e51b81526004016107c390613632565b600855565b6005546001600160a01b03163314611ed85760405162461bcd60e51b81526004016107c390613524565b611ee26000612a49565b611c5260006129e1565b6005546001600160a01b0316331480611f0f57506006546001600160a01b031633145b611f2b5760405162461bcd60e51b81526004016107c390613632565b600d55565b600654600160a01b900460ff1615611f5a5760405162461bcd60e51b81526004016107c39061356d565b60026007541415611f7d5760405162461bcd60e51b81526004016107c390613684565b600260075560008082611fd25760405162461bcd60e51b815260206004820152601e60248201527f596f752063616e6e6f74207061737320616e20656d707479206172726179000060448201526064016107c3565b60005b838110156121305733611fff868684818110611ff357611ff36138ec565b905060200201356115fc565b6001600160a01b03161461204a5760405162461bcd60e51b81526020600482015260126024820152714e4f5420594f55522044455649434528532960701b60448201526064016107c3565b61205f85858381811061096f5761096f6138ec565b92506000600e6000878785818110612079576120796138ec565b60209081029290920135835250810191909152604001600020805461ffff1662010000426001600160f01b03160217815590507fe8a6ce7e6a997a08ef9e7e8d523c86cba031ffa80ed979876264e1ba1435c09b338787858181106120e0576120e06138ec565b604080516001600160a01b039095168552602091820293909301359084015250810186905260600160405180910390a161211a84846136bb565b925050808061212890613891565b915050611fd5565b50600081116121745760405162461bcd60e51b815260206004820152601060248201526f4e4f204d414720415641494c41424c4560801b60448201526064016107c3565b600f546001600160a01b03166340c10f19336040516001600160e01b031960e084901b1681526001600160a01b03909116600482015260248101849052604401600060405180830381600087803b1580156121ce57600080fd5b505af11580156121e2573d6000803e3d6000fd5b50506001600755505050505050565b600c805461169d90613834565b60606122098261250a565b61226d5760405162461bcd60e51b815260206004820152602f60248201527f4552433732314d657461646174613a2055524920717565727920666f72206e6f60448201526e3732bc34b9ba32b73a103a37b5b2b760891b60648201526084016107c3565b600b612278836126f9565b600c60405160200161228c939291906133e0565b6040516020818303038152906040529050919050565b60006122ad8261250a565b6122f05760405162461bcd60e51b8152602060048201526014602482015273151bdad95b88191bd95cc81b9bdd08195e1a5cdd60621b60448201526064016107c3565b6000828152600e602090815260409182902082518084019093525461ffff811683526201000090046001600160f01b031690820152600a5442908111156123365750600a545b8082602001516001600160f01b03161115612355575060009392505050565b600082602001516001600160f01b03168261237091906137f1565b90506000620151806001856000015161ffff1661238d91906137f1565b61239890600261372a565b6123aa90670de0b6b3a76400006137d2565b6123b491906136d3565b90506123c082826137d2565b9695505050505050565b6005546001600160a01b03163314806123ed57506006546001600160a01b031633145b6124095760405162461bcd60e51b81526004016107c390613632565b80516115a390600c906020840190612ebb565b6005546001600160a01b031633146124465760405162461bcd60e51b81526004016107c390613524565b6001600160a01b0381166124b15760405162461bcd60e51b815260206004820152602c60248201527f4f776e61626c653a206e6577206f776e65722063616e2774206265207468652060448201526b7a65726f206164647265737360a01b60648201526084016107c3565b610b2481612a49565b60006001600160e01b031982166380ac58cd60e01b14806124eb57506001600160e01b03198216635b5e139f60e01b145b806106c357506301ffc9a760e01b6001600160e01b03198316146106c3565b600254600090821080156106c3575060006001600160a01b031660028381548110612537576125376138ec565b6000918252602090912001546001600160a01b0316141592915050565b600081815260036020526040902080546001600160a01b0319166001600160a01b0384169081179091558190612589826115fc565b6001600160a01b03167f8c5be1e5ebec7d5bd14f71427d1e84f3dd0314c0f7b2291e5b200ac8c7c3b92560405160405180910390a45050565b600654600160a01b900460ff16156125ec5760405162461bcd60e51b81526004016107c39061356d565b6006805460ff60a01b1916600160a01b1790557f62e78cea01bee320cd4e420270b5ea74000d11b0c9f74754ebdbfc544b05a2586126273390565b6040516001600160a01b03909116815260200160405180910390a1565b600654600160a01b900460ff166126945760405162461bcd60e51b815260206004820152601460248201527314185d5cd8589b194e881b9bdd081c185d5cd95960621b60448201526064016107c3565b6006805460ff60a01b191690557f5db9ee0a495bf2e6ff9c91a7834c1ba4fdd244a5e8aa4e537bd38aeae4b073aa33612627565b6126d23382612ad3565b6126ee5760405162461bcd60e51b81526004016107c3906135e1565b6108f9838383612bb9565b60608161271d5750506040805180820190915260018152600360fc1b602082015290565b8160005b8115612747578061273181613891565b91506127409050600a836136d3565b9150612721565b60008167ffffffffffffffff81111561276257612762613902565b6040519080825280601f01601f19166020018201604052801561278c576020820181803683370190505b5090505b84156127f7576127a16001836137f1565b91506127ae600a866138ac565b6127b99060306136bb565b60f81b8183815181106127ce576127ce6138ec565b60200101906001600160f81b031916908160001a9053506127f0600a866136d3565b9450612790565b949350505050565b6002805460018101825560009182527f405787fa12a823e0f2b7631cc41b3ba8828b3321ca811111fa75cd3aa3bb5ace0180546001600160a01b0319166001600160a01b0385169081179091556040518392907fddf252ad1be2c89b69c2b068fc378daa952ba7f163c4a11628f55a4df523b3ef908290a45050565b6000805b828410156129125783600114156128a9576128a2676124fee993bc0000826136bb565b9050612900565b83600214156128c5576128a26801e5b8fa8fe2ac0000826136bb565b83600314156128e1576128a26812f939c99edab80000826136bb565b8360041415612900576128fd68a2a15d09519be00000826136bb565b90505b8361290a81613891565b94505061287f565b9392505050565b600654600160a81b900460ff161561296b5760405162461bcd60e51b815260206004820152601560248201527414d958dc995d08155b9b1bd8dac8115b98589b1959605a1b60448201526064016107c3565b6006805460ff60a81b1916600160a81b179055565b600654600160a81b900460ff166129d25760405162461bcd60e51b815260206004820152601660248201527514d958dc995d08155b9b1bd8dac8111a5cd8589b195960521b60448201526064016107c3565b6006805460ff60a81b19169055565b600680546001600160a01b038381166001600160a01b0319831681179093556040519116919082907ff9ffabca9c8276e99321725bcb43fb076a6c66a54b7f21c4e8146d8519b417dc90600090a35050565b600082612a408584612d0f565b14949350505050565b600580546001600160a01b038381166001600160a01b0319831681179093556040519116919082907f8be0079c531659141344cd1fd0a4f28419497f9722a3daafe3b4186f6b6457e090600090a35050565b612aa53383612ad3565b612ac15760405162461bcd60e51b81526004016107c3906135e1565b612acd84848484612d7b565b50505050565b6000612ade8261250a565b612b3f5760405162461bcd60e51b815260206004820152602c60248201527f4552433732313a206f70657261746f7220717565727920666f72206e6f6e657860448201526b34b9ba32b73a103a37b5b2b760a11b60648201526084016107c3565b6000612b4a836115fc565b9050806001600160a01b0316846001600160a01b03161480612b855750836001600160a01b0316612b7a8461075b565b6001600160a01b0316145b806127f757506001600160a01b0380821660009081526004602090815260408083209388168352929052205460ff166127f7565b826001600160a01b0316612bcc826115fc565b6001600160a01b031614612c345760405162461bcd60e51b815260206004820152602960248201527f4552433732313a207472616e73666572206f6620746f6b656e2074686174206960448201526839903737ba1037bbb760b91b60648201526084016107c3565b6001600160a01b038216612c965760405162461bcd60e51b8152602060048201526024808201527f4552433732313a207472616e7366657220746f20746865207a65726f206164646044820152637265737360e01b60648201526084016107c3565b612ca1600082612554565b8160028281548110612cb557612cb56138ec565b6000918252602082200180546001600160a01b0319166001600160a01b03938416179055604051839285811692908716917fddf252ad1be2c89b69c2b068fc378daa952ba7f163c4a11628f55a4df523b3ef9190a4505050565b600081815b8451811015610eb8576000858281518110612d3157612d316138ec565b60200260200101519050808311612d575760008381526020829052604090209250612d68565b600081815260208490526040902092505b5080612d7381613891565b915050612d14565b612d86848484612bb9565b612d9284848484612dae565b612acd5760405162461bcd60e51b81526004016107c3906134d2565b60006001600160a01b0384163b15612eb057604051630a85bd0160e11b81526001600160a01b0385169063150b7a0290612df2903390899088908890600401613441565b602060405180830381600087803b158015612e0c57600080fd5b505af1925050508015612e3c575060408051601f3d908101601f19168201909252612e3991810190613226565b60015b612e96573d808015612e6a576040519150601f19603f3d011682016040523d82523d6000602084013e612e6f565b606091505b508051612e8e5760405162461bcd60e51b81526004016107c3906134d2565b805181602001fd5b6001600160e01b031916630a85bd0160e11b1490506127f7565b506001949350505050565b828054612ec790613834565b90600052602060002090601f016020900481019282612ee95760008555612f2f565b82601f10612f0257805160ff1916838001178555612f2f565b82800160010185558215612f2f579182015b82811115612f2f578251825591602001919060010190612f14565b5061154d9291505b8082111561154d5760008155600101612f37565b600067ffffffffffffffff80841115612f6657612f66613902565b604051601f8501601f19908116603f01168101908282118183101715612f8e57612f8e613902565b81604052809350858152868686011115612fa757600080fd5b858560208301376000602087830101525050509392505050565b80356001600160a01b0381168114612fd857600080fd5b919050565b60008083601f840112612fef57600080fd5b50813567ffffffffffffffff81111561300757600080fd5b6020830191508360208260051b850101111561302257600080fd5b9250929050565b80358015158114612fd857600080fd5b60006020828403121561304b57600080fd5b61291282612fc1565b6000806040838503121561306757600080fd5b61307083612fc1565b915061307e60208401612fc1565b90509250929050565b60008060006060848603121561309c57600080fd5b6130a584612fc1565b92506130b360208501612fc1565b9150604084013590509250925092565b600080600080608085870312156130d957600080fd5b6130e285612fc1565b93506130f060208601612fc1565b925060408501359150606085013567ffffffffffffffff81111561311357600080fd5b8501601f8101871361312457600080fd5b61313387823560208401612f4b565b91505092959194509250565b6000806040838503121561315257600080fd5b61315b83612fc1565b915061307e60208401613029565b6000806040838503121561317c57600080fd5b61318583612fc1565b946020939093013593505050565b600080602083850312156131a657600080fd5b823567ffffffffffffffff8111156131bd57600080fd5b6131c985828601612fdd565b90969095509350505050565b6000602082840312156131e757600080fd5b61291282613029565b60006020828403121561320257600080fd5b5035919050565b60006020828403121561321b57600080fd5b813561291281613918565b60006020828403121561323857600080fd5b815161291281613918565b60006020828403121561325557600080fd5b813567ffffffffffffffff81111561326c57600080fd5b8201601f8101841361327d57600080fd5b6127f784823560208401612f4b565b60006020828403121561329e57600080fd5b5051919050565b600080600080606085870312156132bb57600080fd5b84359350602085013567ffffffffffffffff8111156132d957600080fd5b6132e587828801612fdd565b9598909750949560400135949350505050565b6000806040838503121561330b57600080fd5b50508035926020909101359150565b60008151808452613332816020860160208601613808565b601f01601f19169290920160200192915050565b8054600090600181811c908083168061336057607f831692505b602080841082141561338257634e487b7160e01b600052602260045260246000fd5b81801561339657600181146133a7576133d4565b60ff198616895284890196506133d4565b60008881526020902060005b868110156133cc5781548b8201529085019083016133b3565b505084890196505b50505050505092915050565b60006133ec8286613346565b84516133fc818360208901613808565b61340881830186613346565b979650505050505050565b654c696e65202360d01b815260008251613434816006850160208701613808565b9190910160060192915050565b6001600160a01b03858116825284166020820152604081018390526080606082018190526000906123c09083018461331a565b602081526000612912602083018461331a565b6020808252602b908201527f455243373231456e756d657261626c653a206f776e657220696e646578206f7560408201526a74206f6620626f756e647360a81b606082015260800190565b60208082526032908201527f4552433732313a207472616e7366657220746f206e6f6e20455243373231526560408201527131b2b4bb32b91034b6b83632b6b2b73a32b960711b606082015260800190565b60208082526029908201527f4f776e61626c655769746841646d696e3a2063616c6c6572206973206e6f74206040820152683a34329037bbb732b960b91b606082015260800190565b60208082526010908201526f14185d5cd8589b194e881c185d5cd95960821b604082015260600190565b6020808252602a908201527f43616e6e6f7420636c61696d20696d6d6564696174656c79206265666f72652060408201526930903a3930b739b332b960b11b606082015260800190565b60208082526031908201527f4552433732313a207472616e736665722063616c6c6572206973206e6f74206f6040820152701ddb995c881b9bdc88185c1c1c9bdd9959607a1b606082015260800190565b60208082526032908201527f4f776e61626c655769746841646d696e3a2063616c6c6572206973206e6f74206040820152713a34329037bbb732b91037b91030b236b4b760711b606082015260800190565b6020808252601f908201527f5265656e7472616e637947756172643a207265656e7472616e742063616c6c00604082015260600190565b600082198211156136ce576136ce6138c0565b500190565b6000826136e2576136e26138d6565b500490565b600181815b80851115613722578160001904821115613708576137086138c0565b8085161561371557918102915b93841c93908002906136ec565b509250929050565b60006129128383600082613740575060016106c3565b8161374d575060006106c3565b8160018114613763576002811461376d57613789565b60019150506106c3565b60ff84111561377e5761377e6138c0565b50506001821b6106c3565b5060208310610133831016604e8410600b84101617156137ac575081810a6106c3565b6137b683836136e7565b80600019048211156137ca576137ca6138c0565b029392505050565b60008160001904831182151516156137ec576137ec6138c0565b500290565b600082821015613803576138036138c0565b500390565b60005b8381101561382357818101518382015260200161380b565b83811115612acd5750506000910152565b600181811c9082168061384857607f821691505b6020821081141561386957634e487b7160e01b600052602260045260246000fd5b50919050565b600061ffff80831681811415613887576138876138c0565b6001019392505050565b60006000198214156138a5576138a56138c0565b5060010190565b6000826138bb576138bb6138d6565b500690565b634e487b7160e01b600052601160045260246000fd5b634e487b7160e01b600052601260045260246000fd5b634e487b7160e01b600052603260045260246000fd5b634e487b7160e01b600052604160045260246000fd5b6001600160e01b031981168114610b2457600080fdfea26469706673582212209e57b7c0becd01f9eee52b9ec16f8d54acd9502ad88cce4fdee90be04a4f37d764736f6c63430008070033",
			"opcodes": "PUSH1 0x80 PUSH1 0x40 MSTORE PUSH4 0x67E19DA0 PUSH1 0xA SSTORE CALLVALUE DUP1 ISZERO PUSH3 0x19 JUMPI PUSH1 0x0 DUP1 REVERT JUMPDEST POP PUSH1 0x40 MLOAD PUSH3 0x3CAF CODESIZE SUB DUP1 PUSH3 0x3CAF DUP4 CODECOPY DUP2 ADD PUSH1 0x40 DUP2 SWAP1 MSTORE PUSH3 0x3C SWAP2 PUSH3 0x2CC JUMP JUMPDEST PUSH1 0x40 MLOAD DUP1 PUSH1 0x40 ADD PUSH1 0x40 MSTORE DUP1 PUSH1 0xF DUP2 MSTORE PUSH1 0x20 ADD PUSH15 0x416E6369656E742044657669636573 PUSH1 0x88 SHL DUP2 MSTORE POP PUSH1 0x40 MLOAD DUP1 PUSH1 0x40 ADD PUSH1 0x40 MSTORE DUP1 PUSH1 0xF DUP2 MSTORE PUSH1 0x20 ADD PUSH15 0x414E4349454E542044455649434553 PUSH1 0x88 SHL DUP2 MSTORE POP DUP2 PUSH1 0x0 SWAP1 DUP1 MLOAD SWAP1 PUSH1 0x20 ADD SWAP1 PUSH3 0xA4 SWAP3 SWAP2 SWAP1 PUSH3 0x226 JUMP JUMPDEST POP DUP1 MLOAD PUSH3 0xBA SWAP1 PUSH1 0x1 SWAP1 PUSH1 0x20 DUP5 ADD SWAP1 PUSH3 0x226 JUMP JUMPDEST POP POP POP PUSH3 0xD7 PUSH3 0xD1 PUSH3 0x11E PUSH1 0x20 SHL PUSH1 0x20 SHR JUMP JUMPDEST PUSH3 0x122 JUMP JUMPDEST PUSH1 0x6 DUP1 SLOAD PUSH2 0xFFFF PUSH1 0xA0 SHL NOT AND PUSH1 0x1 PUSH1 0xA8 SHL OR SWAP1 SSTORE PUSH1 0x1 PUSH1 0x7 SSTORE PUSH1 0xF DUP1 SLOAD PUSH1 0x1 PUSH1 0x1 PUSH1 0xA0 SHL SUB DUP4 AND PUSH1 0x1 PUSH1 0x1 PUSH1 0xA0 SHL SUB NOT SWAP1 SWAP2 AND OR SWAP1 SSTORE PUSH3 0x117 PUSH3 0x174 JUMP JUMPDEST POP PUSH3 0x33B JUMP JUMPDEST CALLER SWAP1 JUMP JUMPDEST PUSH1 0x5 DUP1 SLOAD PUSH1 0x1 PUSH1 0x1 PUSH1 0xA0 SHL SUB DUP4 DUP2 AND PUSH1 0x1 PUSH1 0x1 PUSH1 0xA0 SHL SUB NOT DUP4 AND DUP2 OR SWAP1 SWAP4 SSTORE PUSH1 0x40 MLOAD SWAP2 AND SWAP2 SWAP1 DUP3 SWAP1 PUSH32 0x8BE0079C531659141344CD1FD0A4F28419497F9722A3DAAFE3B4186F6B6457E0 SWAP1 PUSH1 0x0 SWAP1 LOG3 POP POP JUMP JUMPDEST PUSH3 0x188 PUSH1 0x6 SLOAD PUSH1 0x1 PUSH1 0xA0 SHL SWAP1 DIV PUSH1 0xFF AND SWAP1 JUMP JUMPDEST ISZERO PUSH3 0x1CD JUMPI PUSH1 0x40 MLOAD PUSH3 0x461BCD PUSH1 0xE5 SHL DUP2 MSTORE PUSH1 0x20 PUSH1 0x4 DUP3 ADD MSTORE PUSH1 0x10 PUSH1 0x24 DUP3 ADD MSTORE PUSH16 0x14185D5CD8589B194E881C185D5CD959 PUSH1 0x82 SHL PUSH1 0x44 DUP3 ADD MSTORE PUSH1 0x64 ADD PUSH1 0x40 MLOAD DUP1 SWAP2 SUB SWAP1 REVERT JUMPDEST PUSH1 0x6 DUP1 SLOAD PUSH1 0xFF PUSH1 0xA0 SHL NOT AND PUSH1 0x1 PUSH1 0xA0 SHL OR SWAP1 SSTORE PUSH32 0x62E78CEA01BEE320CD4E420270B5EA74000D11B0C9F74754EBDBFC544B05A258 PUSH3 0x209 CALLER SWAP1 JUMP JUMPDEST PUSH1 0x40 MLOAD PUSH1 0x1 PUSH1 0x1 PUSH1 0xA0 SHL SUB SWAP1 SWAP2 AND DUP2 MSTORE PUSH1 0x20 ADD PUSH1 0x40 MLOAD DUP1 SWAP2 SUB SWAP1 LOG1 JUMP JUMPDEST DUP3 DUP1 SLOAD PUSH3 0x234 SWAP1 PUSH3 0x2FE JUMP JUMPDEST SWAP1 PUSH1 0x0 MSTORE PUSH1 0x20 PUSH1 0x0 KECCAK256 SWAP1 PUSH1 0x1F ADD PUSH1 0x20 SWAP1 DIV DUP2 ADD SWAP3 DUP3 PUSH3 0x258 JUMPI PUSH1 0x0 DUP6 SSTORE PUSH3 0x2A3 JUMP JUMPDEST DUP3 PUSH1 0x1F LT PUSH3 0x273 JUMPI DUP1 MLOAD PUSH1 0xFF NOT AND DUP4 DUP1 ADD OR DUP6 SSTORE PUSH3 0x2A3 JUMP JUMPDEST DUP3 DUP1 ADD PUSH1 0x1 ADD DUP6 SSTORE DUP3 ISZERO PUSH3 0x2A3 JUMPI SWAP2 DUP3 ADD JUMPDEST DUP3 DUP2 GT ISZERO PUSH3 0x2A3 JUMPI DUP3 MLOAD DUP3 SSTORE SWAP2 PUSH1 0x20 ADD SWAP2 SWAP1 PUSH1 0x1 ADD SWAP1 PUSH3 0x286 JUMP JUMPDEST POP PUSH3 0x2B1 SWAP3 SWAP2 POP PUSH3 0x2B5 JUMP JUMPDEST POP SWAP1 JUMP JUMPDEST JUMPDEST DUP1 DUP3 GT ISZERO PUSH3 0x2B1 JUMPI PUSH1 0x0 DUP2 SSTORE PUSH1 0x1 ADD PUSH3 0x2B6 JUMP JUMPDEST PUSH1 0x0 PUSH1 0x20 DUP3 DUP5 SUB SLT ISZERO PUSH3 0x2DF JUMPI PUSH1 0x0 DUP1 REVERT JUMPDEST DUP2 MLOAD PUSH1 0x1 PUSH1 0x1 PUSH1 0xA0 SHL SUB DUP2 AND DUP2 EQ PUSH3 0x2F7 JUMPI PUSH1 0x0 DUP1 REVERT JUMPDEST SWAP4 SWAP3 POP POP POP JUMP JUMPDEST PUSH1 0x1 DUP2 DUP2 SHR SWAP1 DUP3 AND DUP1 PUSH3 0x313 JUMPI PUSH1 0x7F DUP3 AND SWAP2 POP JUMPDEST PUSH1 0x20 DUP3 LT DUP2 EQ ISZERO PUSH3 0x335 JUMPI PUSH4 0x4E487B71 PUSH1 0xE0 SHL PUSH1 0x0 MSTORE PUSH1 0x22 PUSH1 0x4 MSTORE PUSH1 0x24 PUSH1 0x0 REVERT JUMPDEST POP SWAP2 SWAP1 POP JUMP JUMPDEST PUSH2 0x3964 DUP1 PUSH3 0x34B PUSH1 0x0 CODECOPY PUSH1 0x0 RETURN INVALID PUSH1 0x80 PUSH1 0x40 MSTORE CALLVALUE DUP1 ISZERO PUSH2 0x10 JUMPI PUSH1 0x0 DUP1 REVERT JUMPDEST POP PUSH1 0x4 CALLDATASIZE LT PUSH2 0x2A0 JUMPI PUSH1 0x0 CALLDATALOAD PUSH1 0xE0 SHR DUP1 PUSH4 0x6C0360EB GT PUSH2 0x167 JUMPI DUP1 PUSH4 0xB88D4FDE GT PUSH2 0xCE JUMPI DUP1 PUSH4 0xC87B56DD GT PUSH2 0x87 JUMPI DUP1 PUSH4 0xC87B56DD EQ PUSH2 0x605 JUMPI DUP1 PUSH4 0xCAB8FA22 EQ PUSH2 0x618 JUMPI DUP1 PUSH4 0xDA3EF23F EQ PUSH2 0x62B JUMPI DUP1 PUSH4 0xE985E9C5 EQ PUSH2 0x63E JUMPI DUP1 PUSH4 0xF2FDE38B EQ PUSH2 0x67A JUMPI DUP1 PUSH4 0xF851A440 EQ PUSH2 0x68D JUMPI PUSH1 0x0 DUP1 REVERT JUMPDEST DUP1 PUSH4 0xB88D4FDE EQ PUSH2 0x5A9 JUMPI DUP1 PUSH4 0xBD32FB66 EQ PUSH2 0x5BC JUMPI DUP1 PUSH4 0xBE01AC8B EQ PUSH2 0x5CF JUMPI DUP1 PUSH4 0xC58E5BE8 EQ PUSH2 0x5D7 JUMPI DUP1 PUSH4 0xC5B3D078 EQ PUSH2 0x5EA JUMPI DUP1 PUSH4 0xC6682862 EQ PUSH2 0x5FD JUMPI PUSH1 0x0 DUP1 REVERT JUMPDEST DUP1 PUSH4 0x8DA5CB5B GT PUSH2 0x120 JUMPI DUP1 PUSH4 0x8DA5CB5B EQ PUSH2 0x54E JUMPI DUP1 PUSH4 0x915EE6E9 EQ PUSH2 0x55F JUMPI DUP1 PUSH4 0x95D89B41 EQ PUSH2 0x572 JUMPI DUP1 PUSH4 0xA22CB465 EQ PUSH2 0x57A JUMPI DUP1 PUSH4 0xA697FE31 EQ PUSH2 0x58D JUMPI DUP1 PUSH4 0xAA98E0C6 EQ PUSH2 0x5A0 JUMPI PUSH1 0x0 DUP1 REVERT JUMPDEST DUP1 PUSH4 0x6C0360EB EQ PUSH2 0x4DF JUMPI DUP1 PUSH4 0x704B6C02 EQ PUSH2 0x4E7 JUMPI DUP1 PUSH4 0x70A08231 EQ PUSH2 0x4FA JUMPI DUP1 PUSH4 0x70B5AE9C EQ PUSH2 0x50D JUMPI DUP1 PUSH4 0x715018A6 EQ PUSH2 0x520 JUMPI DUP1 PUSH4 0x86481D40 EQ PUSH2 0x528 JUMPI PUSH1 0x0 DUP1 REVERT JUMPDEST DUP1 PUSH4 0x3C4C51C9 GT PUSH2 0x20B JUMPI DUP1 PUSH4 0x4C7BCE6B GT PUSH2 0x1C4 JUMPI DUP1 PUSH4 0x4C7BCE6B EQ PUSH2 0x46E JUMPI DUP1 PUSH4 0x4F6CCCE7 EQ PUSH2 0x481 JUMPI DUP1 PUSH4 0x55F804B3 EQ PUSH2 0x494 JUMPI DUP1 PUSH4 0x5C975ABB EQ PUSH2 0x4A7 JUMPI DUP1 PUSH4 0x5F1ACA81 EQ PUSH2 0x4B9 JUMPI DUP1 PUSH4 0x6352211E EQ PUSH2 0x4CC JUMPI PUSH1 0x0 DUP1 REVERT JUMPDEST DUP1 PUSH4 0x3C4C51C9 EQ PUSH2 0x3F7 JUMPI DUP1 PUSH4 0x42842E0E EQ PUSH2 0x3FF JUMPI DUP1 PUSH4 0x44944F31 EQ PUSH2 0x412 JUMPI DUP1 PUSH4 0x46C22429 EQ PUSH2 0x435 JUMPI DUP1 PUSH4 0x4830DFA5 EQ PUSH2 0x448 JUMPI DUP1 PUSH4 0x48C3B247 EQ PUSH2 0x45B JUMPI PUSH1 0x0 DUP1 REVERT JUMPDEST DUP1 PUSH4 0x1394818E GT PUSH2 0x25D JUMPI DUP1 PUSH4 0x1394818E EQ PUSH2 0x39A JUMPI DUP1 PUSH4 0x16C38B3C EQ PUSH2 0x3AD JUMPI DUP1 PUSH4 0x18160DDD EQ PUSH2 0x3C0 JUMPI DUP1 PUSH4 0x23B872DD EQ PUSH2 0x3C8 JUMPI DUP1 PUSH4 0x2F745C59 EQ PUSH2 0x3DB JUMPI DUP1 PUSH4 0x314CA039 EQ PUSH2 0x3EE JUMPI PUSH1 0x0 DUP1 REVERT JUMPDEST DUP1 PUSH4 0x1FFC9A7 EQ PUSH2 0x2A5 JUMPI DUP1 PUSH4 0x6FDDE03 EQ PUSH2 0x2CD JUMPI DUP1 PUSH4 0x81812FC EQ PUSH2 0x2E2 JUMPI DUP1 PUSH4 0x95EA7B3 EQ PUSH2 0x30D JUMPI DUP1 PUSH4 0xCC670FA EQ PUSH2 0x322 JUMPI DUP1 PUSH4 0x10FF8E31 EQ PUSH2 0x343 JUMPI JUMPDEST PUSH1 0x0 DUP1 REVERT JUMPDEST PUSH2 0x2B8 PUSH2 0x2B3 CALLDATASIZE PUSH1 0x4 PUSH2 0x3209 JUMP JUMPDEST PUSH2 0x69E JUMP JUMPDEST PUSH1 0x40 MLOAD SWAP1 ISZERO ISZERO DUP2 MSTORE PUSH1 0x20 ADD JUMPDEST PUSH1 0x40 MLOAD DUP1 SWAP2 SUB SWAP1 RETURN JUMPDEST PUSH2 0x2D5 PUSH2 0x6C9 JUMP JUMPDEST PUSH1 0x40 MLOAD PUSH2 0x2C4 SWAP2 SWAP1 PUSH2 0x3474 JUMP JUMPDEST PUSH2 0x2F5 PUSH2 0x2F0 CALLDATASIZE PUSH1 0x4 PUSH2 0x31F0 JUMP JUMPDEST PUSH2 0x75B JUMP JUMPDEST PUSH1 0x40 MLOAD PUSH1 0x1 PUSH1 0x1 PUSH1 0xA0 SHL SUB SWAP1 SWAP2 AND DUP2 MSTORE PUSH1 0x20 ADD PUSH2 0x2C4 JUMP JUMPDEST PUSH2 0x320 PUSH2 0x31B CALLDATASIZE PUSH1 0x4 PUSH2 0x3169 JUMP JUMPDEST PUSH2 0x7E8 JUMP JUMPDEST STOP JUMPDEST PUSH2 0x335 PUSH2 0x330 CALLDATASIZE PUSH1 0x4 PUSH2 0x3193 JUMP JUMPDEST PUSH2 0x8FE JUMP JUMPDEST PUSH1 0x40 MLOAD SWAP1 DUP2 MSTORE PUSH1 0x20 ADD PUSH2 0x2C4 JUMP JUMPDEST PUSH2 0x378 PUSH2 0x351 CALLDATASIZE PUSH1 0x4 PUSH2 0x31F0 JUMP JUMPDEST PUSH1 0xE PUSH1 0x20 MSTORE PUSH1 0x0 SWAP1 DUP2 MSTORE PUSH1 0x40 SWAP1 KECCAK256 SLOAD PUSH2 0xFFFF DUP2 AND SWAP1 PUSH3 0x10000 SWAP1 DIV PUSH1 0x1 PUSH1 0x1 PUSH1 0xF0 SHL SUB AND DUP3 JUMP JUMPDEST PUSH1 0x40 DUP1 MLOAD PUSH2 0xFFFF SWAP1 SWAP4 AND DUP4 MSTORE PUSH1 0x1 PUSH1 0x1 PUSH1 0xF0 SHL SUB SWAP1 SWAP2 AND PUSH1 0x20 DUP4 ADD MSTORE ADD PUSH2 0x2C4 JUMP JUMPDEST PUSH2 0x320 PUSH2 0x3A8 CALLDATASIZE PUSH1 0x4 PUSH2 0x31F0 JUMP JUMPDEST PUSH2 0x9A4 JUMP JUMPDEST PUSH2 0x320 PUSH2 0x3BB CALLDATASIZE PUSH1 0x4 PUSH2 0x31D5 JUMP JUMPDEST PUSH2 0xAD7 JUMP JUMPDEST PUSH1 0x2 SLOAD PUSH2 0x335 JUMP JUMPDEST PUSH2 0x320 PUSH2 0x3D6 CALLDATASIZE PUSH1 0x4 PUSH2 0x3087 JUMP JUMPDEST PUSH2 0xB2F JUMP JUMPDEST PUSH2 0x335 PUSH2 0x3E9 CALLDATASIZE PUSH1 0x4 PUSH2 0x3169 JUMP JUMPDEST PUSH2 0xBA9 JUMP JUMPDEST PUSH2 0x335 PUSH1 0xA SLOAD DUP2 JUMP JUMPDEST PUSH2 0x2D5 PUSH2 0xC5C JUMP JUMPDEST PUSH2 0x320 PUSH2 0x40D CALLDATASIZE PUSH1 0x4 PUSH2 0x3087 JUMP JUMPDEST PUSH2 0xC8D JUMP JUMPDEST PUSH2 0x2B8 PUSH2 0x420 CALLDATASIZE PUSH1 0x4 PUSH2 0x3039 JUMP JUMPDEST PUSH1 0x9 PUSH1 0x20 MSTORE PUSH1 0x0 SWAP1 DUP2 MSTORE PUSH1 0x40 SWAP1 KECCAK256 SLOAD PUSH1 0xFF AND DUP2 JUMP JUMPDEST PUSH2 0x320 PUSH2 0x443 CALLDATASIZE PUSH1 0x4 PUSH2 0x3169 JUMP JUMPDEST PUSH2 0xCA8 JUMP JUMPDEST PUSH2 0x335 PUSH2 0x456 CALLDATASIZE PUSH1 0x4 PUSH2 0x32F8 JUMP JUMPDEST PUSH2 0xDFB JUMP JUMPDEST PUSH2 0x320 PUSH2 0x469 CALLDATASIZE PUSH1 0x4 PUSH2 0x31F0 JUMP JUMPDEST PUSH2 0xEC0 JUMP JUMPDEST PUSH2 0x320 PUSH2 0x47C CALLDATASIZE PUSH1 0x4 PUSH2 0x32F8 JUMP JUMPDEST PUSH2 0x1124 JUMP JUMPDEST PUSH2 0x335 PUSH2 0x48F CALLDATASIZE PUSH1 0x4 PUSH2 0x31F0 JUMP JUMPDEST PUSH2 0x14E4 JUMP JUMPDEST PUSH2 0x320 PUSH2 0x4A2 CALLDATASIZE PUSH1 0x4 PUSH2 0x3243 JUMP JUMPDEST PUSH2 0x1551 JUMP JUMPDEST PUSH1 0x6 SLOAD PUSH1 0x1 PUSH1 0xA0 SHL SWAP1 DIV PUSH1 0xFF AND PUSH2 0x2B8 JUMP JUMPDEST PUSH2 0x320 PUSH2 0x4C7 CALLDATASIZE PUSH1 0x4 PUSH2 0x31D5 JUMP JUMPDEST PUSH2 0x15A7 JUMP JUMPDEST PUSH2 0x2F5 PUSH2 0x4DA CALLDATASIZE PUSH1 0x4 PUSH2 0x31F0 JUMP JUMPDEST PUSH2 0x15FC JUMP JUMPDEST PUSH2 0x2D5 PUSH2 0x1690 JUMP JUMPDEST PUSH2 0x320 PUSH2 0x4F5 CALLDATASIZE PUSH1 0x4 PUSH2 0x3039 JUMP JUMPDEST PUSH2 0x171E JUMP JUMPDEST PUSH2 0x335 PUSH2 0x508 CALLDATASIZE PUSH1 0x4 PUSH2 0x3039 JUMP JUMPDEST PUSH2 0x17BC JUMP JUMPDEST PUSH2 0x320 PUSH2 0x51B CALLDATASIZE PUSH1 0x4 PUSH2 0x32A5 JUMP JUMPDEST PUSH2 0x188A JUMP JUMPDEST PUSH2 0x320 PUSH2 0x1C1E JUMP JUMPDEST PUSH2 0x53B PUSH2 0x536 CALLDATASIZE PUSH1 0x4 PUSH2 0x31F0 JUMP JUMPDEST PUSH2 0x1C54 JUMP JUMPDEST PUSH1 0x40 MLOAD PUSH2 0xFFFF SWAP1 SWAP2 AND DUP2 MSTORE PUSH1 0x20 ADD PUSH2 0x2C4 JUMP JUMPDEST PUSH1 0x5 SLOAD PUSH1 0x1 PUSH1 0x1 PUSH1 0xA0 SHL SUB AND PUSH2 0x2F5 JUMP JUMPDEST PUSH1 0xF SLOAD PUSH2 0x2F5 SWAP1 PUSH1 0x1 PUSH1 0x1 PUSH1 0xA0 SHL SUB AND DUP2 JUMP JUMPDEST PUSH2 0x2D5 PUSH2 0x1CB9 JUMP JUMPDEST PUSH2 0x320 PUSH2 0x588 CALLDATASIZE PUSH1 0x4 PUSH2 0x313F JUMP JUMPDEST PUSH2 0x1CC8 JUMP JUMPDEST PUSH2 0x320 PUSH2 0x59B CALLDATASIZE PUSH1 0x4 PUSH2 0x3039 JUMP JUMPDEST PUSH2 0x1D8D JUMP JUMPDEST PUSH2 0x335 PUSH1 0x8 SLOAD DUP2 JUMP JUMPDEST PUSH2 0x320 PUSH2 0x5B7 CALLDATASIZE PUSH1 0x4 PUSH2 0x30C3 JUMP JUMPDEST PUSH2 0x1DEE JUMP JUMPDEST PUSH2 0x320 PUSH2 0x5CA CALLDATASIZE PUSH1 0x4 PUSH2 0x31F0 JUMP JUMPDEST PUSH2 0x1E6A JUMP JUMPDEST PUSH2 0x320 PUSH2 0x1EAE JUMP JUMPDEST PUSH2 0x320 PUSH2 0x5E5 CALLDATASIZE PUSH1 0x4 PUSH2 0x31F0 JUMP JUMPDEST PUSH2 0x1EEC JUMP JUMPDEST PUSH2 0x320 PUSH2 0x5F8 CALLDATASIZE PUSH1 0x4 PUSH2 0x3193 JUMP JUMPDEST PUSH2 0x1F30 JUMP JUMPDEST PUSH2 0x2D5 PUSH2 0x21F1 JUMP JUMPDEST PUSH2 0x2D5 PUSH2 0x613 CALLDATASIZE PUSH1 0x4 PUSH2 0x31F0 JUMP JUMPDEST PUSH2 0x21FE JUMP JUMPDEST PUSH2 0x335 PUSH2 0x626 CALLDATASIZE PUSH1 0x4 PUSH2 0x31F0 JUMP JUMPDEST PUSH2 0x22A2 JUMP JUMPDEST PUSH2 0x320 PUSH2 0x639 CALLDATASIZE PUSH1 0x4 PUSH2 0x3243 JUMP JUMPDEST PUSH2 0x23CA JUMP JUMPDEST PUSH2 0x2B8 PUSH2 0x64C CALLDATASIZE PUSH1 0x4 PUSH2 0x3054 JUMP JUMPDEST PUSH1 0x1 PUSH1 0x1 PUSH1 0xA0 SHL SUB SWAP2 DUP3 AND PUSH1 0x0 SWAP1 DUP2 MSTORE PUSH1 0x4 PUSH1 0x20 SWAP1 DUP2 MSTORE PUSH1 0x40 DUP1 DUP4 KECCAK256 SWAP4 SWAP1 SWAP5 AND DUP3 MSTORE SWAP2 SWAP1 SWAP2 MSTORE KECCAK256 SLOAD PUSH1 0xFF AND SWAP1 JUMP JUMPDEST PUSH2 0x320 PUSH2 0x688 CALLDATASIZE PUSH1 0x4 PUSH2 0x3039 JUMP JUMPDEST PUSH2 0x241C JUMP JUMPDEST PUSH1 0x6 SLOAD PUSH1 0x1 PUSH1 0x1 PUSH1 0xA0 SHL SUB AND PUSH2 0x2F5 JUMP JUMPDEST PUSH1 0x0 PUSH1 0x1 PUSH1 0x1 PUSH1 0xE0 SHL SUB NOT DUP3 AND PUSH4 0x780E9D63 PUSH1 0xE0 SHL EQ DUP1 PUSH2 0x6C3 JUMPI POP PUSH2 0x6C3 DUP3 PUSH2 0x24BA JUMP JUMPDEST SWAP3 SWAP2 POP POP JUMP JUMPDEST PUSH1 0x60 PUSH1 0x0 DUP1 SLOAD PUSH2 0x6D8 SWAP1 PUSH2 0x3834 JUMP JUMPDEST DUP1 PUSH1 0x1F ADD PUSH1 0x20 DUP1 SWAP2 DIV MUL PUSH1 0x20 ADD PUSH1 0x40 MLOAD SWAP1 DUP2 ADD PUSH1 0x40 MSTORE DUP1 SWAP3 SWAP2 SWAP1 DUP2 DUP2 MSTORE PUSH1 0x20 ADD DUP3 DUP1 SLOAD PUSH2 0x704 SWAP1 PUSH2 0x3834 JUMP JUMPDEST DUP1 ISZERO PUSH2 0x751 JUMPI DUP1 PUSH1 0x1F LT PUSH2 0x726 JUMPI PUSH2 0x100 DUP1 DUP4 SLOAD DIV MUL DUP4 MSTORE SWAP2 PUSH1 0x20 ADD SWAP2 PUSH2 0x751 JUMP JUMPDEST DUP3 ADD SWAP2 SWAP1 PUSH1 0x0 MSTORE PUSH1 0x20 PUSH1 0x0 KECCAK256 SWAP1 JUMPDEST DUP2 SLOAD DUP2 MSTORE SWAP1 PUSH1 0x1 ADD SWAP1 PUSH1 0x20 ADD DUP1 DUP4 GT PUSH2 0x734 JUMPI DUP3 SWAP1 SUB PUSH1 0x1F AND DUP3 ADD SWAP2 JUMPDEST POP POP POP POP POP SWAP1 POP SWAP1 JUMP JUMPDEST PUSH1 0x0 PUSH2 0x766 DUP3 PUSH2 0x250A JUMP JUMPDEST PUSH2 0x7CC JUMPI PUSH1 0x40 MLOAD PUSH3 0x461BCD PUSH1 0xE5 SHL DUP2 MSTORE PUSH1 0x20 PUSH1 0x4 DUP3 ADD MSTORE PUSH1 0x2C PUSH1 0x24 DUP3 ADD MSTORE PUSH32 0x4552433732313A20617070726F76656420717565727920666F72206E6F6E6578 PUSH1 0x44 DUP3 ADD MSTORE PUSH12 0x34B9BA32B73A103A37B5B2B7 PUSH1 0xA1 SHL PUSH1 0x64 DUP3 ADD MSTORE PUSH1 0x84 ADD JUMPDEST PUSH1 0x40 MLOAD DUP1 SWAP2 SUB SWAP1 REVERT JUMPDEST POP PUSH1 0x0 SWAP1 DUP2 MSTORE PUSH1 0x3 PUSH1 0x20 MSTORE PUSH1 0x40 SWAP1 KECCAK256 SLOAD PUSH1 0x1 PUSH1 0x1 PUSH1 0xA0 SHL SUB AND SWAP1 JUMP JUMPDEST PUSH1 0x0 PUSH2 0x7F3 DUP3 PUSH2 0x15FC JUMP JUMPDEST SWAP1 POP DUP1 PUSH1 0x1 PUSH1 0x1 PUSH1 0xA0 SHL SUB AND DUP4 PUSH1 0x1 PUSH1 0x1 PUSH1 0xA0 SHL SUB AND EQ ISZERO PUSH2 0x861 JUMPI PUSH1 0x40 MLOAD PUSH3 0x461BCD PUSH1 0xE5 SHL DUP2 MSTORE PUSH1 0x20 PUSH1 0x4 DUP3 ADD MSTORE PUSH1 0x21 PUSH1 0x24 DUP3 ADD MSTORE PUSH32 0x4552433732313A20617070726F76616C20746F2063757272656E74206F776E65 PUSH1 0x44 DUP3 ADD MSTORE PUSH1 0x39 PUSH1 0xF9 SHL PUSH1 0x64 DUP3 ADD MSTORE PUSH1 0x84 ADD PUSH2 0x7C3 JUMP JUMPDEST CALLER PUSH1 0x1 PUSH1 0x1 PUSH1 0xA0 SHL SUB DUP3 AND EQ DUP1 PUSH2 0x87D JUMPI POP PUSH2 0x87D DUP2 CALLER PUSH2 0x64C JUMP JUMPDEST PUSH2 0x8EF JUMPI PUSH1 0x40 MLOAD PUSH3 0x461BCD PUSH1 0xE5 SHL DUP2 MSTORE PUSH1 0x20 PUSH1 0x4 DUP3 ADD MSTORE PUSH1 0x38 PUSH1 0x24 DUP3 ADD MSTORE PUSH32 0x4552433732313A20617070726F76652063616C6C6572206973206E6F74206F77 PUSH1 0x44 DUP3 ADD MSTORE PUSH32 0x6E6572206E6F7220617070726F76656420666F7220616C6C0000000000000000 PUSH1 0x64 DUP3 ADD MSTORE PUSH1 0x84 ADD PUSH2 0x7C3 JUMP JUMPDEST PUSH2 0x8F9 DUP4 DUP4 PUSH2 0x2554 JUMP JUMPDEST POP POP POP JUMP JUMPDEST PUSH1 0x0 DUP1 DUP1 DUP4 PUSH2 0x94F JUMPI PUSH1 0x40 MLOAD PUSH3 0x461BCD PUSH1 0xE5 SHL DUP2 MSTORE PUSH1 0x20 PUSH1 0x4 DUP3 ADD MSTORE PUSH1 0x1E PUSH1 0x24 DUP3 ADD MSTORE PUSH32 0x596F752063616E6E6F74207061737320616E20656D7074792061727261790000 PUSH1 0x44 DUP3 ADD MSTORE PUSH1 0x64 ADD PUSH2 0x7C3 JUMP JUMPDEST PUSH1 0x0 JUMPDEST DUP5 DUP2 LT ISZERO PUSH2 0x99B JUMPI PUSH2 0x97B DUP7 DUP7 DUP4 DUP2 DUP2 LT PUSH2 0x96F JUMPI PUSH2 0x96F PUSH2 0x38EC JUMP JUMPDEST SWAP1 POP PUSH1 0x20 MUL ADD CALLDATALOAD PUSH2 0x22A2 JUMP JUMPDEST SWAP3 POP PUSH2 0x987 DUP4 DUP4 PUSH2 0x36BB JUMP JUMPDEST SWAP2 POP DUP1 PUSH2 0x993 DUP2 PUSH2 0x3891 JUMP JUMPDEST SWAP2 POP POP PUSH2 0x952 JUMP JUMPDEST POP SWAP5 SWAP4 POP POP POP POP JUMP JUMPDEST PUSH1 0x5 SLOAD PUSH1 0x1 PUSH1 0x1 PUSH1 0xA0 SHL SUB AND CALLER EQ DUP1 PUSH2 0x9C7 JUMPI POP PUSH1 0x6 SLOAD PUSH1 0x1 PUSH1 0x1 PUSH1 0xA0 SHL SUB AND CALLER EQ JUMPDEST PUSH2 0x9E3 JUMPI PUSH1 0x40 MLOAD PUSH3 0x461BCD PUSH1 0xE5 SHL DUP2 MSTORE PUSH1 0x4 ADD PUSH2 0x7C3 SWAP1 PUSH2 0x3632 JUMP JUMPDEST PUSH1 0xA SLOAD TIMESTAMP SWAP1 DUP2 LT PUSH2 0xA5C JUMPI PUSH1 0x40 MLOAD PUSH3 0x461BCD PUSH1 0xE5 SHL DUP2 MSTORE PUSH1 0x20 PUSH1 0x4 DUP3 ADD MSTORE PUSH1 0x38 PUSH1 0x24 DUP3 ADD MSTORE PUSH32 0x7969656C64456E6454696D652063616E2774206265206368616E676564206F6E PUSH1 0x44 DUP3 ADD MSTORE PUSH32 0x63652074686520656E642074696D652068617320706173740000000000000000 PUSH1 0x64 DUP3 ADD MSTORE PUSH1 0x84 ADD PUSH2 0x7C3 JUMP JUMPDEST DUP2 DUP2 LT PUSH2 0xAD1 JUMPI PUSH1 0x40 MLOAD PUSH3 0x461BCD PUSH1 0xE5 SHL DUP2 MSTORE PUSH1 0x20 PUSH1 0x4 DUP3 ADD MSTORE PUSH1 0x38 PUSH1 0x24 DUP3 ADD MSTORE PUSH32 0x7969656C64456E6454696D652063616E206F6E6C79206265206368616E676564 PUSH1 0x44 DUP3 ADD MSTORE PUSH32 0x20746F20612074696D6520696E20746865206675747572650000000000000000 PUSH1 0x64 DUP3 ADD MSTORE PUSH1 0x84 ADD PUSH2 0x7C3 JUMP JUMPDEST POP PUSH1 0xA SSTORE JUMP JUMPDEST PUSH1 0x5 SLOAD PUSH1 0x1 PUSH1 0x1 PUSH1 0xA0 SHL SUB AND CALLER EQ DUP1 PUSH2 0xAFA JUMPI POP PUSH1 0x6 SLOAD PUSH1 0x1 PUSH1 0x1 PUSH1 0xA0 SHL SUB AND CALLER EQ JUMPDEST PUSH2 0xB16 JUMPI PUSH1 0x40 MLOAD PUSH3 0x461BCD PUSH1 0xE5 SHL DUP2 MSTORE PUSH1 0x4 ADD PUSH2 0x7C3 SWAP1 PUSH2 0x3632 JUMP JUMPDEST DUP1 ISZERO PUSH2 0xB27 JUMPI PUSH2 0xB24 PUSH2 0x25C2 JUMP JUMPDEST POP JUMP JUMPDEST PUSH2 0xB24 PUSH2 0x2644 JUMP JUMPDEST PUSH1 0x2 PUSH1 0x7 SLOAD EQ ISZERO PUSH2 0xB52 JUMPI PUSH1 0x40 MLOAD PUSH3 0x461BCD PUSH1 0xE5 SHL DUP2 MSTORE PUSH1 0x4 ADD PUSH2 0x7C3 SWAP1 PUSH2 0x3684 JUMP JUMPDEST PUSH1 0x2 PUSH1 0x7 SSTORE PUSH1 0x0 DUP2 DUP2 MSTORE PUSH1 0xE PUSH1 0x20 MSTORE PUSH1 0x40 SWAP1 KECCAK256 SLOAD TIMESTAMP PUSH3 0x10000 SWAP1 SWAP2 DIV PUSH1 0x1 PUSH1 0x1 PUSH1 0xF0 SHL SUB AND LT PUSH2 0xB94 JUMPI PUSH1 0x40 MLOAD PUSH3 0x461BCD PUSH1 0xE5 SHL DUP2 MSTORE PUSH1 0x4 ADD PUSH2 0x7C3 SWAP1 PUSH2 0x3597 JUMP JUMPDEST PUSH2 0xB9F DUP4 DUP4 DUP4 PUSH2 0x26C8 JUMP JUMPDEST POP POP PUSH1 0x1 PUSH1 0x7 SSTORE POP JUMP JUMPDEST PUSH1 0x0 PUSH2 0xBB4 DUP4 PUSH2 0x17BC JUMP JUMPDEST DUP3 LT PUSH2 0xBD2 JUMPI PUSH1 0x40 MLOAD PUSH3 0x461BCD PUSH1 0xE5 SHL DUP2 MSTORE PUSH1 0x4 ADD PUSH2 0x7C3 SWAP1 PUSH2 0x3487 JUMP JUMPDEST PUSH1 0x0 DUP1 JUMPDEST PUSH1 0x2 SLOAD DUP2 LT ISZERO PUSH2 0xC43 JUMPI PUSH1 0x2 DUP2 DUP2 SLOAD DUP2 LT PUSH2 0xBF3 JUMPI PUSH2 0xBF3 PUSH2 0x38EC JUMP JUMPDEST PUSH1 0x0 SWAP2 DUP3 MSTORE PUSH1 0x20 SWAP1 SWAP2 KECCAK256 ADD SLOAD PUSH1 0x1 PUSH1 0x1 PUSH1 0xA0 SHL SUB DUP7 DUP2 AND SWAP2 AND EQ ISZERO PUSH2 0xC31 JUMPI DUP4 DUP3 EQ ISZERO PUSH2 0xC23 JUMPI SWAP2 POP PUSH2 0x6C3 SWAP1 POP JUMP JUMPDEST DUP2 PUSH2 0xC2D DUP2 PUSH2 0x3891 JUMP JUMPDEST SWAP3 POP POP JUMPDEST DUP1 PUSH2 0xC3B DUP2 PUSH2 0x3891 JUMP JUMPDEST SWAP2 POP POP PUSH2 0xBD6 JUMP JUMPDEST POP PUSH1 0x40 MLOAD PUSH3 0x461BCD PUSH1 0xE5 SHL DUP2 MSTORE PUSH1 0x4 ADD PUSH2 0x7C3 SWAP1 PUSH2 0x3487 JUMP JUMPDEST PUSH1 0x60 PUSH2 0xC69 PUSH1 0xD SLOAD PUSH2 0x26F9 JUMP JUMPDEST PUSH1 0x40 MLOAD PUSH1 0x20 ADD PUSH2 0xC79 SWAP2 SWAP1 PUSH2 0x3413 JUMP JUMPDEST PUSH1 0x40 MLOAD PUSH1 0x20 DUP2 DUP4 SUB SUB DUP2 MSTORE SWAP1 PUSH1 0x40 MSTORE SWAP1 POP SWAP1 JUMP JUMPDEST PUSH2 0x8F9 DUP4 DUP4 DUP4 PUSH1 0x40 MLOAD DUP1 PUSH1 0x20 ADD PUSH1 0x40 MSTORE DUP1 PUSH1 0x0 DUP2 MSTORE POP PUSH2 0x1DEE JUMP JUMPDEST PUSH1 0x5 SLOAD PUSH1 0x1 PUSH1 0x1 PUSH1 0xA0 SHL SUB AND CALLER EQ PUSH2 0xCD2 JUMPI PUSH1 0x40 MLOAD PUSH3 0x461BCD PUSH1 0xE5 SHL DUP2 MSTORE PUSH1 0x4 ADD PUSH2 0x7C3 SWAP1 PUSH2 0x3524 JUMP JUMPDEST PUSH1 0x2 SLOAD PUSH2 0x56E PUSH2 0xCE2 DUP4 DUP4 PUSH2 0x36BB JUMP JUMPDEST GT ISZERO PUSH2 0xD26 JUMPI PUSH1 0x40 MLOAD PUSH3 0x461BCD PUSH1 0xE5 SHL DUP2 MSTORE PUSH1 0x20 PUSH1 0x4 DUP3 ADD MSTORE PUSH1 0x13 PUSH1 0x24 DUP3 ADD MSTORE PUSH19 0x22BC31B2B2B2399036B0BC1039BAB838363C97 PUSH1 0x69 SHL PUSH1 0x44 DUP3 ADD MSTORE PUSH1 0x64 ADD PUSH2 0x7C3 JUMP JUMPDEST PUSH1 0x0 JUMPDEST DUP3 DUP2 LT ISZERO PUSH2 0xDB3 JUMPI PUSH1 0x40 DUP1 MLOAD DUP1 DUP3 ADD SWAP1 SWAP2 MSTORE PUSH1 0x1 DUP2 MSTORE PUSH1 0x1 PUSH1 0x1 PUSH1 0xF0 SHL SUB TIMESTAMP AND PUSH1 0x20 DUP3 ADD MSTORE PUSH1 0xE PUSH1 0x0 PUSH2 0xD5C DUP5 DUP7 PUSH2 0x36BB JUMP JUMPDEST DUP2 MSTORE PUSH1 0x20 DUP1 DUP3 ADD SWAP3 SWAP1 SWAP3 MSTORE PUSH1 0x40 ADD PUSH1 0x0 KECCAK256 DUP3 MLOAD SWAP3 SWAP1 SWAP2 ADD MLOAD PUSH1 0x1 PUSH1 0x1 PUSH1 0xF0 SHL SUB AND PUSH3 0x10000 MUL PUSH2 0xFFFF SWAP1 SWAP3 AND SWAP2 SWAP1 SWAP2 OR SWAP1 SSTORE PUSH2 0xDA1 DUP5 PUSH2 0xD9C DUP4 DUP6 PUSH2 0x36BB JUMP JUMPDEST PUSH2 0x27FF JUMP JUMPDEST DUP1 PUSH2 0xDAB DUP2 PUSH2 0x3891 JUMP JUMPDEST SWAP2 POP POP PUSH2 0xD29 JUMP JUMPDEST POP PUSH1 0x40 DUP1 MLOAD PUSH1 0x1 PUSH1 0x1 PUSH1 0xA0 SHL SUB DUP6 AND DUP2 MSTORE PUSH1 0x20 DUP2 ADD DUP5 SWAP1 MSTORE PUSH32 0xE679DB040BA59B1F69E7F641211C64F95375B7E16597440A91E56E56E71104F2 SWAP2 ADD PUSH1 0x40 MLOAD DUP1 SWAP2 SUB SWAP1 LOG1 POP POP POP JUMP JUMPDEST PUSH1 0x0 DUP3 DUP2 MSTORE PUSH1 0xE PUSH1 0x20 MSTORE PUSH1 0x40 DUP2 KECCAK256 SLOAD DUP2 SWAP1 PUSH2 0xFFFF AND JUMPDEST DUP4 DUP2 PUSH2 0xFFFF AND LT ISZERO PUSH2 0xEB8 JUMPI DUP1 PUSH2 0xFFFF AND PUSH1 0x1 EQ ISZERO PUSH2 0xE43 JUMPI PUSH2 0xE3C PUSH8 0x6124FEE993BC0000 DUP4 PUSH2 0x36BB JUMP JUMPDEST SWAP2 POP PUSH2 0xEA6 JUMP JUMPDEST DUP1 PUSH2 0xFFFF AND PUSH1 0x2 EQ ISZERO PUSH2 0xE63 JUMPI PUSH2 0xE3C PUSH9 0x1E5B8FA8FE2AC0000 DUP4 PUSH2 0x36BB JUMP JUMPDEST DUP1 PUSH2 0xFFFF AND PUSH1 0x3 EQ ISZERO PUSH2 0xE83 JUMPI PUSH2 0xE3C PUSH9 0x12F939C99EDAB80000 DUP4 PUSH2 0x36BB JUMP JUMPDEST DUP1 PUSH2 0xFFFF AND PUSH1 0x4 EQ ISZERO PUSH2 0xEA6 JUMPI PUSH2 0xEA3 PUSH9 0xA2A15D09519BE00000 DUP4 PUSH2 0x36BB JUMP JUMPDEST SWAP2 POP JUMPDEST DUP1 PUSH2 0xEB0 DUP2 PUSH2 0x386F JUMP JUMPDEST SWAP2 POP POP PUSH2 0xE11 JUMP JUMPDEST POP SWAP4 SWAP3 POP POP POP JUMP JUMPDEST PUSH1 0x6 SLOAD PUSH1 0x1 PUSH1 0xA0 SHL SWAP1 DIV PUSH1 0xFF AND ISZERO PUSH2 0xEEA JUMPI PUSH1 0x40 MLOAD PUSH3 0x461BCD PUSH1 0xE5 SHL DUP2 MSTORE PUSH1 0x4 ADD PUSH2 0x7C3 SWAP1 PUSH2 0x356D JUMP JUMPDEST PUSH1 0x6 SLOAD PUSH1 0x1 PUSH1 0xA8 SHL SWAP1 DIV PUSH1 0xFF AND PUSH2 0xF3C JUMPI PUSH1 0x40 MLOAD PUSH3 0x461BCD PUSH1 0xE5 SHL DUP2 MSTORE PUSH1 0x20 PUSH1 0x4 DUP3 ADD MSTORE PUSH1 0x16 PUSH1 0x24 DUP3 ADD MSTORE PUSH22 0x14D958DC995D08155B9B1BD8DAC8111A5CD8589B1959 PUSH1 0x52 SHL PUSH1 0x44 DUP3 ADD MSTORE PUSH1 0x64 ADD PUSH2 0x7C3 JUMP JUMPDEST PUSH1 0x2 PUSH1 0x7 SLOAD EQ ISZERO PUSH2 0xF5F JUMPI PUSH1 0x40 MLOAD PUSH3 0x461BCD PUSH1 0xE5 SHL DUP2 MSTORE PUSH1 0x4 ADD PUSH2 0x7C3 SWAP1 PUSH2 0x3684 JUMP JUMPDEST PUSH1 0x2 PUSH1 0x7 SSTORE PUSH2 0xF6D DUP2 PUSH2 0x15FC JUMP JUMPDEST PUSH1 0x1 PUSH1 0x1 PUSH1 0xA0 SHL SUB AND CALLER PUSH1 0x1 PUSH1 0x1 PUSH1 0xA0 SHL SUB AND EQ PUSH2 0xFBF JUMPI PUSH1 0x40 MLOAD PUSH3 0x461BCD PUSH1 0xE5 SHL DUP2 MSTORE PUSH1 0x20 PUSH1 0x4 DUP3 ADD MSTORE PUSH1 0xF PUSH1 0x24 DUP3 ADD MSTORE PUSH15 0x4E6F7420796F757220646576696365 PUSH1 0x88 SHL PUSH1 0x44 DUP3 ADD MSTORE PUSH1 0x64 ADD PUSH2 0x7C3 JUMP JUMPDEST PUSH1 0xA SLOAD TIMESTAMP GT PUSH2 0x1003 JUMPI PUSH1 0x40 MLOAD PUSH3 0x461BCD PUSH1 0xE5 SHL DUP2 MSTORE PUSH1 0x20 PUSH1 0x4 DUP3 ADD MSTORE PUSH1 0x10 PUSH1 0x24 DUP3 ADD MSTORE PUSH16 0x446576696365206E6F74207265616479 PUSH1 0x80 SHL PUSH1 0x44 DUP3 ADD MSTORE PUSH1 0x64 ADD PUSH2 0x7C3 JUMP JUMPDEST PUSH1 0x0 DUP2 DUP2 MSTORE PUSH1 0xE PUSH1 0x20 MSTORE PUSH1 0x40 SWAP1 KECCAK256 DUP1 SLOAD PUSH2 0xFFFF AND PUSH1 0x5 EQ PUSH2 0x1071 JUMPI PUSH1 0x40 MLOAD PUSH3 0x461BCD PUSH1 0xE5 SHL DUP2 MSTORE PUSH1 0x20 PUSH1 0x4 DUP3 ADD MSTORE PUSH1 0x22 PUSH1 0x24 DUP3 ADD MSTORE PUSH32 0x4D757374206265206C6576656C203520746F20756E6C6F636B20612064657669 PUSH1 0x44 DUP3 ADD MSTORE PUSH2 0x6365 PUSH1 0xF0 SHL PUSH1 0x64 DUP3 ADD MSTORE PUSH1 0x84 ADD PUSH2 0x7C3 JUMP JUMPDEST PUSH1 0x0 PUSH2 0x107C DUP4 PUSH2 0x22A2 JUMP JUMPDEST DUP3 SLOAD PUSH2 0xFFFF NOT AND PUSH1 0x6 OR DUP4 SSTORE SWAP1 POP DUP1 ISZERO PUSH2 0xB9F JUMPI DUP2 SLOAD PUSH2 0xFFFF AND PUSH3 0x10000 TIMESTAMP PUSH1 0x1 PUSH1 0x1 PUSH1 0xF0 SHL SUB AND MUL OR DUP3 SSTORE PUSH1 0xF SLOAD PUSH1 0x1 PUSH1 0x1 PUSH1 0xA0 SHL SUB AND PUSH4 0x40C10F19 CALLER PUSH1 0x40 MLOAD PUSH1 0x1 PUSH1 0x1 PUSH1 0xE0 SHL SUB NOT PUSH1 0xE0 DUP5 SWAP1 SHL AND DUP2 MSTORE PUSH1 0x1 PUSH1 0x1 PUSH1 0xA0 SHL SUB SWAP1 SWAP2 AND PUSH1 0x4 DUP3 ADD MSTORE PUSH1 0x24 DUP2 ADD DUP5 SWAP1 MSTORE PUSH1 0x44 ADD PUSH1 0x0 PUSH1 0x40 MLOAD DUP1 DUP4 SUB DUP2 PUSH1 0x0 DUP8 DUP1 EXTCODESIZE ISZERO DUP1 ISZERO PUSH2 0x1102 JUMPI PUSH1 0x0 DUP1 REVERT JUMPDEST POP GAS CALL ISZERO DUP1 ISZERO PUSH2 0x1116 JUMPI RETURNDATASIZE PUSH1 0x0 DUP1 RETURNDATACOPY RETURNDATASIZE PUSH1 0x0 REVERT JUMPDEST POP POP POP POP POP POP PUSH1 0x1 PUSH1 0x7 SSTORE POP JUMP JUMPDEST PUSH1 0x6 SLOAD PUSH1 0x1 PUSH1 0xA0 SHL SWAP1 DIV PUSH1 0xFF AND ISZERO PUSH2 0x114E JUMPI PUSH1 0x40 MLOAD PUSH3 0x461BCD PUSH1 0xE5 SHL DUP2 MSTORE PUSH1 0x4 ADD PUSH2 0x7C3 SWAP1 PUSH2 0x356D JUMP JUMPDEST PUSH1 0x2 PUSH1 0x7 SLOAD EQ ISZERO PUSH2 0x1171 JUMPI PUSH1 0x40 MLOAD PUSH3 0x461BCD PUSH1 0xE5 SHL DUP2 MSTORE PUSH1 0x4 ADD PUSH2 0x7C3 SWAP1 PUSH2 0x3684 JUMP JUMPDEST PUSH1 0x2 PUSH1 0x7 SSTORE PUSH2 0x117F DUP3 PUSH2 0x15FC JUMP JUMPDEST PUSH1 0x1 PUSH1 0x1 PUSH1 0xA0 SHL SUB AND CALLER PUSH1 0x1 PUSH1 0x1 PUSH1 0xA0 SHL SUB AND EQ PUSH2 0x11D1 JUMPI PUSH1 0x40 MLOAD PUSH3 0x461BCD PUSH1 0xE5 SHL DUP2 MSTORE PUSH1 0x20 PUSH1 0x4 DUP3 ADD MSTORE PUSH1 0xF PUSH1 0x24 DUP3 ADD MSTORE PUSH15 0x4E4F5420594F555220444556494345 PUSH1 0x88 SHL PUSH1 0x44 DUP3 ADD MSTORE PUSH1 0x64 ADD PUSH2 0x7C3 JUMP JUMPDEST PUSH1 0x0 DUP3 DUP2 MSTORE PUSH1 0xE PUSH1 0x20 MSTORE PUSH1 0x40 SWAP1 KECCAK256 DUP1 SLOAD PUSH2 0xFFFF AND DUP3 GT PUSH2 0x1228 JUMPI PUSH1 0x40 MLOAD PUSH3 0x461BCD PUSH1 0xE5 SHL DUP2 MSTORE PUSH1 0x20 PUSH1 0x4 DUP3 ADD MSTORE PUSH1 0x12 PUSH1 0x24 DUP3 ADD MSTORE PUSH18 0x4D75737420626520616E2075706772616465 PUSH1 0x70 SHL PUSH1 0x44 DUP3 ADD MSTORE PUSH1 0x64 ADD PUSH2 0x7C3 JUMP JUMPDEST PUSH1 0x6 DUP3 LT PUSH2 0x126F JUMPI PUSH1 0x40 MLOAD PUSH3 0x461BCD PUSH1 0xE5 SHL DUP2 MSTORE PUSH1 0x20 PUSH1 0x4 DUP3 ADD MSTORE PUSH1 0x14 PUSH1 0x24 DUP3 ADD MSTORE PUSH20 0x4D6178206B6E6F776E206C6576656C2069732035 PUSH1 0x60 SHL PUSH1 0x44 DUP3 ADD MSTORE PUSH1 0x64 ADD PUSH2 0x7C3 JUMP JUMPDEST PUSH1 0x0 PUSH2 0x127A DUP5 PUSH2 0x22A2 JUMP JUMPDEST SWAP1 POP DUP1 ISZERO PUSH2 0x130D JUMPI DUP2 SLOAD PUSH2 0xFFFF AND PUSH3 0x10000 TIMESTAMP PUSH1 0x1 PUSH1 0x1 PUSH1 0xF0 SHL SUB AND MUL OR DUP3 SSTORE PUSH1 0xF SLOAD PUSH1 0x1 PUSH1 0x1 PUSH1 0xA0 SHL SUB AND PUSH4 0x40C10F19 CALLER PUSH1 0x40 MLOAD PUSH1 0x1 PUSH1 0x1 PUSH1 0xE0 SHL SUB NOT PUSH1 0xE0 DUP5 SWAP1 SHL AND DUP2 MSTORE PUSH1 0x1 PUSH1 0x1 PUSH1 0xA0 SHL SUB SWAP1 SWAP2 AND PUSH1 0x4 DUP3 ADD MSTORE PUSH1 0x24 DUP2 ADD DUP5 SWAP1 MSTORE PUSH1 0x44 ADD PUSH1 0x0 PUSH1 0x40 MLOAD DUP1 DUP4 SUB DUP2 PUSH1 0x0 DUP8 DUP1 EXTCODESIZE ISZERO DUP1 ISZERO PUSH2 0x12F4 JUMPI PUSH1 0x0 DUP1 REVERT JUMPDEST POP GAS CALL ISZERO DUP1 ISZERO PUSH2 0x1308 JUMPI RETURNDATASIZE PUSH1 0x0 DUP1 RETURNDATACOPY RETURNDATASIZE PUSH1 0x0 REVERT JUMPDEST POP POP POP POP JUMPDEST DUP2 SLOAD PUSH1 0x0 SWAP1 PUSH2 0x1320 SWAP1 PUSH2 0xFFFF AND DUP6 PUSH2 0x287B JUMP JUMPDEST PUSH1 0xF SLOAD SWAP1 SWAP2 POP DUP2 SWAP1 PUSH1 0x1 PUSH1 0x1 PUSH1 0xA0 SHL SUB AND PUSH4 0x70A08231 CALLER PUSH1 0x40 MLOAD PUSH1 0x1 PUSH1 0x1 PUSH1 0xE0 SHL SUB NOT PUSH1 0xE0 DUP5 SWAP1 SHL AND DUP2 MSTORE PUSH1 0x1 PUSH1 0x1 PUSH1 0xA0 SHL SUB SWAP1 SWAP2 AND PUSH1 0x4 DUP3 ADD MSTORE PUSH1 0x24 ADD PUSH1 0x20 PUSH1 0x40 MLOAD DUP1 DUP4 SUB DUP2 DUP7 DUP1 EXTCODESIZE ISZERO DUP1 ISZERO PUSH2 0x1376 JUMPI PUSH1 0x0 DUP1 REVERT JUMPDEST POP GAS STATICCALL ISZERO DUP1 ISZERO PUSH2 0x138A JUMPI RETURNDATASIZE PUSH1 0x0 DUP1 RETURNDATACOPY RETURNDATASIZE PUSH1 0x0 REVERT JUMPDEST POP POP POP POP PUSH1 0x40 MLOAD RETURNDATASIZE PUSH1 0x1F NOT PUSH1 0x1F DUP3 ADD AND DUP3 ADD DUP1 PUSH1 0x40 MSTORE POP DUP2 ADD SWAP1 PUSH2 0x13AE SWAP2 SWAP1 PUSH2 0x328C JUMP JUMPDEST GT PUSH2 0x140F JUMPI PUSH1 0x40 MLOAD PUSH3 0x461BCD PUSH1 0xE5 SHL DUP2 MSTORE PUSH1 0x20 PUSH1 0x4 DUP3 ADD MSTORE PUSH1 0x2B PUSH1 0x24 DUP3 ADD MSTORE PUSH32 0x596F7520646F206E6F74206861766520656E6F756768204D414720666F722074 PUSH1 0x44 DUP3 ADD MSTORE PUSH11 0x6869732075706772616465 PUSH1 0xA8 SHL PUSH1 0x64 DUP3 ADD MSTORE PUSH1 0x84 ADD PUSH2 0x7C3 JUMP JUMPDEST PUSH1 0xF SLOAD PUSH1 0x1 PUSH1 0x1 PUSH1 0xA0 SHL SUB AND PUSH4 0x9DC29FAC CALLER PUSH1 0x40 MLOAD PUSH1 0x1 PUSH1 0x1 PUSH1 0xE0 SHL SUB NOT PUSH1 0xE0 DUP5 SWAP1 SHL AND DUP2 MSTORE PUSH1 0x1 PUSH1 0x1 PUSH1 0xA0 SHL SUB SWAP1 SWAP2 AND PUSH1 0x4 DUP3 ADD MSTORE PUSH1 0x24 DUP2 ADD DUP5 SWAP1 MSTORE PUSH1 0x44 ADD PUSH1 0x0 PUSH1 0x40 MLOAD DUP1 DUP4 SUB DUP2 PUSH1 0x0 DUP8 DUP1 EXTCODESIZE ISZERO DUP1 ISZERO PUSH2 0x1469 JUMPI PUSH1 0x0 DUP1 REVERT JUMPDEST POP GAS CALL ISZERO DUP1 ISZERO PUSH2 0x147D JUMPI RETURNDATASIZE PUSH1 0x0 DUP1 RETURNDATACOPY RETURNDATASIZE PUSH1 0x0 REVERT JUMPDEST POP POP DUP5 SLOAD PUSH2 0xFFFF NOT AND PUSH2 0xFFFF DUP8 AND OR DUP6 SSTORE POP POP PUSH1 0x40 DUP1 MLOAD CALLER DUP2 MSTORE PUSH1 0x20 DUP2 ADD DUP8 SWAP1 MSTORE DUP1 DUP3 ADD DUP7 SWAP1 MSTORE PUSH1 0x60 DUP2 ADD DUP5 SWAP1 MSTORE SWAP1 MLOAD PUSH32 0x5BD44927BB6F69E7FBBCA757C673A4B5B2CCAE7F2382208157A95F598A0564F8 SWAP2 PUSH1 0x80 SWAP1 DUP3 SWAP1 SUB ADD SWAP1 LOG1 POP POP PUSH1 0x1 PUSH1 0x7 SSTORE POP POP POP JUMP JUMPDEST PUSH1 0x2 SLOAD PUSH1 0x0 SWAP1 DUP3 LT PUSH2 0x154D JUMPI PUSH1 0x40 MLOAD PUSH3 0x461BCD PUSH1 0xE5 SHL DUP2 MSTORE PUSH1 0x20 PUSH1 0x4 DUP3 ADD MSTORE PUSH1 0x2C PUSH1 0x24 DUP3 ADD MSTORE PUSH32 0x455243373231456E756D657261626C653A20676C6F62616C20696E646578206F PUSH1 0x44 DUP3 ADD MSTORE PUSH12 0x7574206F6620626F756E6473 PUSH1 0xA0 SHL PUSH1 0x64 DUP3 ADD MSTORE PUSH1 0x84 ADD PUSH2 0x7C3 JUMP JUMPDEST POP SWAP1 JUMP JUMPDEST PUSH1 0x5 SLOAD PUSH1 0x1 PUSH1 0x1 PUSH1 0xA0 SHL SUB AND CALLER EQ DUP1 PUSH2 0x1574 JUMPI POP PUSH1 0x6 SLOAD PUSH1 0x1 PUSH1 0x1 PUSH1 0xA0 SHL SUB AND CALLER EQ JUMPDEST PUSH2 0x1590 JUMPI PUSH1 0x40 MLOAD PUSH3 0x461BCD PUSH1 0xE5 SHL DUP2 MSTORE PUSH1 0x4 ADD PUSH2 0x7C3 SWAP1 PUSH2 0x3632 JUMP JUMPDEST DUP1 MLOAD PUSH2 0x15A3 SWAP1 PUSH1 0xB SWAP1 PUSH1 0x20 DUP5 ADD SWAP1 PUSH2 0x2EBB JUMP JUMPDEST POP POP JUMP JUMPDEST PUSH1 0x5 SLOAD PUSH1 0x1 PUSH1 0x1 PUSH1 0xA0 SHL SUB AND CALLER EQ DUP1 PUSH2 0x15CA JUMPI POP PUSH1 0x6 SLOAD PUSH1 0x1 PUSH1 0x1 PUSH1 0xA0 SHL SUB AND CALLER EQ JUMPDEST PUSH2 0x15E6 JUMPI PUSH1 0x40 MLOAD PUSH3 0x461BCD PUSH1 0xE5 SHL DUP2 MSTORE PUSH1 0x4 ADD PUSH2 0x7C3 SWAP1 PUSH2 0x3632 JUMP JUMPDEST DUP1 ISZERO PUSH2 0x15F4 JUMPI PUSH2 0xB24 PUSH2 0x2919 JUMP JUMPDEST PUSH2 0xB24 PUSH2 0x2980 JUMP JUMPDEST PUSH1 0x2 SLOAD PUSH1 0x0 SWAP1 DUP3 LT PUSH2 0x1662 JUMPI PUSH1 0x40 MLOAD PUSH3 0x461BCD PUSH1 0xE5 SHL DUP2 MSTORE PUSH1 0x20 PUSH1 0x4 DUP3 ADD MSTORE PUSH1 0x29 PUSH1 0x24 DUP3 ADD MSTORE PUSH32 0x4552433732313A206F776E657220717565727920666F72206E6F6E6578697374 PUSH1 0x44 DUP3 ADD MSTORE PUSH9 0x32B73A103A37B5B2B7 PUSH1 0xB9 SHL PUSH1 0x64 DUP3 ADD MSTORE PUSH1 0x84 ADD PUSH2 0x7C3 JUMP JUMPDEST PUSH1 0x2 DUP3 DUP2 SLOAD DUP2 LT PUSH2 0x1675 JUMPI PUSH2 0x1675 PUSH2 0x38EC JUMP JUMPDEST PUSH1 0x0 SWAP2 DUP3 MSTORE PUSH1 0x20 SWAP1 SWAP2 KECCAK256 ADD SLOAD PUSH1 0x1 PUSH1 0x1 PUSH1 0xA0 SHL SUB AND SWAP3 SWAP2 POP POP JUMP JUMPDEST PUSH1 0xB DUP1 SLOAD PUSH2 0x169D SWAP1 PUSH2 0x3834 JUMP JUMPDEST DUP1 PUSH1 0x1F ADD PUSH1 0x20 DUP1 SWAP2 DIV MUL PUSH1 0x20 ADD PUSH1 0x40 MLOAD SWAP1 DUP2 ADD PUSH1 0x40 MSTORE DUP1 SWAP3 SWAP2 SWAP1 DUP2 DUP2 MSTORE PUSH1 0x20 ADD DUP3 DUP1 SLOAD PUSH2 0x16C9 SWAP1 PUSH2 0x3834 JUMP JUMPDEST DUP1 ISZERO PUSH2 0x1716 JUMPI DUP1 PUSH1 0x1F LT PUSH2 0x16EB JUMPI PUSH2 0x100 DUP1 DUP4 SLOAD DIV MUL DUP4 MSTORE SWAP2 PUSH1 0x20 ADD SWAP2 PUSH2 0x1716 JUMP JUMPDEST DUP3 ADD SWAP2 SWAP1 PUSH1 0x0 MSTORE PUSH1 0x20 PUSH1 0x0 KECCAK256 SWAP1 JUMPDEST DUP2 SLOAD DUP2 MSTORE SWAP1 PUSH1 0x1 ADD SWAP1 PUSH1 0x20 ADD DUP1 DUP4 GT PUSH2 0x16F9 JUMPI DUP3 SWAP1 SUB PUSH1 0x1F AND DUP3 ADD SWAP2 JUMPDEST POP POP POP POP POP DUP2 JUMP JUMPDEST PUSH1 0x5 SLOAD PUSH1 0x1 PUSH1 0x1 PUSH1 0xA0 SHL SUB AND CALLER EQ PUSH2 0x1748 JUMPI PUSH1 0x40 MLOAD PUSH3 0x461BCD PUSH1 0xE5 SHL DUP2 MSTORE PUSH1 0x4 ADD PUSH2 0x7C3 SWAP1 PUSH2 0x3524 JUMP JUMPDEST PUSH1 0x1 PUSH1 0x1 PUSH1 0xA0 SHL SUB DUP2 AND PUSH2 0x17B3 JUMPI PUSH1 0x40 MLOAD PUSH3 0x461BCD PUSH1 0xE5 SHL DUP2 MSTORE PUSH1 0x20 PUSH1 0x4 DUP3 ADD MSTORE PUSH1 0x2C PUSH1 0x24 DUP3 ADD MSTORE PUSH32 0x4F776E61626C653A206E65772061646D696E2063616E27742062652074686520 PUSH1 0x44 DUP3 ADD MSTORE PUSH12 0x7A65726F2061646472657373 PUSH1 0xA0 SHL PUSH1 0x64 DUP3 ADD MSTORE PUSH1 0x84 ADD PUSH2 0x7C3 JUMP JUMPDEST PUSH2 0xB24 DUP2 PUSH2 0x29E1 JUMP JUMPDEST PUSH1 0x0 PUSH1 0x1 PUSH1 0x1 PUSH1 0xA0 SHL SUB DUP3 AND PUSH2 0x1827 JUMPI PUSH1 0x40 MLOAD PUSH3 0x461BCD PUSH1 0xE5 SHL DUP2 MSTORE PUSH1 0x20 PUSH1 0x4 DUP3 ADD MSTORE PUSH1 0x2A PUSH1 0x24 DUP3 ADD MSTORE PUSH32 0x4552433732313A2062616C616E636520717565727920666F7220746865207A65 PUSH1 0x44 DUP3 ADD MSTORE PUSH10 0x726F2061646472657373 PUSH1 0xB0 SHL PUSH1 0x64 DUP3 ADD MSTORE PUSH1 0x84 ADD PUSH2 0x7C3 JUMP JUMPDEST PUSH1 0x0 DUP1 JUMPDEST PUSH1 0x2 SLOAD DUP2 LT ISZERO PUSH2 0x1883 JUMPI PUSH1 0x2 DUP2 DUP2 SLOAD DUP2 LT PUSH2 0x1848 JUMPI PUSH2 0x1848 PUSH2 0x38EC JUMP JUMPDEST PUSH1 0x0 SWAP2 DUP3 MSTORE PUSH1 0x20 SWAP1 SWAP2 KECCAK256 ADD SLOAD PUSH1 0x1 PUSH1 0x1 PUSH1 0xA0 SHL SUB DUP6 DUP2 AND SWAP2 AND EQ ISZERO PUSH2 0x1873 JUMPI PUSH2 0x1870 DUP3 PUSH2 0x3891 JUMP JUMPDEST SWAP2 POP JUMPDEST PUSH2 0x187C DUP2 PUSH2 0x3891 JUMP JUMPDEST SWAP1 POP PUSH2 0x182B JUMP JUMPDEST POP SWAP3 SWAP2 POP POP JUMP JUMPDEST PUSH1 0x6 SLOAD PUSH1 0x1 PUSH1 0xA0 SHL SWAP1 DIV PUSH1 0xFF AND ISZERO PUSH2 0x18B4 JUMPI PUSH1 0x40 MLOAD PUSH3 0x461BCD PUSH1 0xE5 SHL DUP2 MSTORE PUSH1 0x4 ADD PUSH2 0x7C3 SWAP1 PUSH2 0x356D JUMP JUMPDEST PUSH1 0x2 PUSH1 0x7 SLOAD EQ ISZERO PUSH2 0x18D7 JUMPI PUSH1 0x40 MLOAD PUSH3 0x461BCD PUSH1 0xE5 SHL DUP2 MSTORE PUSH1 0x4 ADD PUSH2 0x7C3 SWAP1 PUSH2 0x3684 JUMP JUMPDEST PUSH1 0x2 PUSH1 0x7 DUP2 SWAP1 SSTORE SLOAD PUSH2 0x56E PUSH2 0x18EC DUP7 DUP4 PUSH2 0x36BB JUMP JUMPDEST GT ISZERO PUSH2 0x192F JUMPI PUSH1 0x40 MLOAD PUSH3 0x461BCD PUSH1 0xE5 SHL DUP2 MSTORE PUSH1 0x20 PUSH1 0x4 DUP3 ADD MSTORE PUSH1 0x12 PUSH1 0x24 DUP3 ADD MSTORE PUSH18 0x45786365656473206D617820737570706C79 PUSH1 0x70 SHL PUSH1 0x44 DUP3 ADD MSTORE PUSH1 0x64 ADD PUSH2 0x7C3 JUMP JUMPDEST PUSH1 0x0 DUP6 GT PUSH2 0x198F JUMPI PUSH1 0x40 MLOAD PUSH3 0x461BCD PUSH1 0xE5 SHL DUP2 MSTORE PUSH1 0x20 PUSH1 0x4 DUP3 ADD MSTORE PUSH1 0x27 PUSH1 0x24 DUP3 ADD MSTORE PUSH32 0x596F75206D75737420636C61696D20616E20616D6F756E742067726561746572 PUSH1 0x44 DUP3 ADD MSTORE PUSH7 0x207468616E203 PUSH1 0xCC SHL PUSH1 0x64 DUP3 ADD MSTORE PUSH1 0x84 ADD PUSH2 0x7C3 JUMP JUMPDEST DUP2 DUP6 GT ISZERO PUSH2 0x19EE JUMPI PUSH1 0x40 MLOAD PUSH3 0x461BCD PUSH1 0xE5 SHL DUP2 MSTORE PUSH1 0x20 PUSH1 0x4 DUP3 ADD MSTORE PUSH1 0x26 PUSH1 0x24 DUP3 ADD MSTORE PUSH32 0x596F752063616E74206D696E74206D6F7265207468616E20796F757220616C6C PUSH1 0x44 DUP3 ADD MSTORE PUSH6 0x6F77616E6365 PUSH1 0xD0 SHL PUSH1 0x64 DUP3 ADD MSTORE PUSH1 0x84 ADD PUSH2 0x7C3 JUMP JUMPDEST PUSH1 0x40 MLOAD PUSH12 0xFFFFFFFFFFFFFFFFFFFFFFFF NOT CALLER PUSH1 0x60 SHL AND PUSH1 0x20 DUP3 ADD MSTORE PUSH1 0x34 DUP2 ADD DUP4 SWAP1 MSTORE PUSH1 0x0 SWAP1 PUSH1 0x54 ADD PUSH1 0x40 MLOAD PUSH1 0x20 DUP2 DUP4 SUB SUB DUP2 MSTORE SWAP1 PUSH1 0x40 MSTORE DUP1 MLOAD SWAP1 PUSH1 0x20 ADD KECCAK256 SWAP1 POP PUSH2 0x1A6F DUP6 DUP6 DUP1 DUP1 PUSH1 0x20 MUL PUSH1 0x20 ADD PUSH1 0x40 MLOAD SWAP1 DUP2 ADD PUSH1 0x40 MSTORE DUP1 SWAP4 SWAP3 SWAP2 SWAP1 DUP2 DUP2 MSTORE PUSH1 0x20 ADD DUP4 DUP4 PUSH1 0x20 MUL DUP1 DUP3 DUP5 CALLDATACOPY PUSH1 0x0 SWAP3 ADD SWAP2 SWAP1 SWAP2 MSTORE POP POP PUSH1 0x8 SLOAD SWAP2 POP DUP5 SWAP1 POP PUSH2 0x2A33 JUMP JUMPDEST PUSH2 0x1AC7 JUMPI PUSH1 0x40 MLOAD PUSH3 0x461BCD PUSH1 0xE5 SHL DUP2 MSTORE PUSH1 0x20 PUSH1 0x4 DUP3 ADD MSTORE PUSH1 0x23 PUSH1 0x24 DUP3 ADD MSTORE PUSH32 0x496E76616C6964204D65726B6C6520547265652070726F6F6620737570706C69 PUSH1 0x44 DUP3 ADD MSTORE PUSH3 0x32B217 PUSH1 0xE9 SHL PUSH1 0x64 DUP3 ADD MSTORE PUSH1 0x84 ADD PUSH2 0x7C3 JUMP JUMPDEST CALLER PUSH1 0x0 SWAP1 DUP2 MSTORE PUSH1 0x9 PUSH1 0x20 MSTORE PUSH1 0x40 SWAP1 KECCAK256 SLOAD PUSH1 0xFF AND ISZERO PUSH2 0x1B27 JUMPI PUSH1 0x40 MLOAD PUSH3 0x461BCD PUSH1 0xE5 SHL DUP2 MSTORE PUSH1 0x20 PUSH1 0x4 DUP3 ADD DUP2 SWAP1 MSTORE PUSH1 0x24 DUP3 ADD MSTORE PUSH32 0x596F75206861766520616C726561647920636C61696D65642064657669636573 PUSH1 0x44 DUP3 ADD MSTORE PUSH1 0x64 ADD PUSH2 0x7C3 JUMP JUMPDEST CALLER PUSH1 0x0 SWAP1 DUP2 MSTORE PUSH1 0x9 PUSH1 0x20 MSTORE PUSH1 0x40 DUP2 KECCAK256 DUP1 SLOAD PUSH1 0xFF NOT AND PUSH1 0x1 OR SWAP1 SSTORE JUMPDEST DUP7 DUP2 LT ISZERO PUSH2 0x1BCD JUMPI PUSH1 0x40 DUP1 MLOAD DUP1 DUP3 ADD SWAP1 SWAP2 MSTORE PUSH1 0x1 DUP2 MSTORE PUSH1 0x1 PUSH1 0x1 PUSH1 0xF0 SHL SUB TIMESTAMP AND PUSH1 0x20 DUP3 ADD MSTORE PUSH1 0xE PUSH1 0x0 PUSH2 0x1B75 DUP5 DUP8 PUSH2 0x36BB JUMP JUMPDEST DUP2 MSTORE PUSH1 0x20 DUP1 DUP3 ADD SWAP3 SWAP1 SWAP3 MSTORE PUSH1 0x40 ADD PUSH1 0x0 KECCAK256 DUP3 MLOAD SWAP3 SWAP1 SWAP2 ADD MLOAD PUSH1 0x1 PUSH1 0x1 PUSH1 0xF0 SHL SUB AND PUSH3 0x10000 MUL PUSH2 0xFFFF SWAP1 SWAP3 AND SWAP2 SWAP1 SWAP2 OR SWAP1 SSTORE PUSH2 0x1BBB PUSH2 0x1BB1 CALLER SWAP1 JUMP JUMPDEST PUSH2 0xD9C DUP4 DUP7 PUSH2 0x36BB JUMP JUMPDEST DUP1 PUSH2 0x1BC5 DUP2 PUSH2 0x3891 JUMP JUMPDEST SWAP2 POP POP PUSH2 0x1B42 JUMP JUMPDEST POP PUSH32 0xE679DB040BA59B1F69E7F641211C64F95375B7E16597440A91E56E56E71104F2 CALLER PUSH1 0x40 DUP1 MLOAD PUSH1 0x1 PUSH1 0x1 PUSH1 0xA0 SHL SUB SWAP1 SWAP3 AND DUP3 MSTORE PUSH1 0x20 DUP3 ADD DUP10 SWAP1 MSTORE ADD PUSH1 0x40 MLOAD DUP1 SWAP2 SUB SWAP1 LOG1 POP POP PUSH1 0x1 PUSH1 0x7 SSTORE POP POP POP POP JUMP JUMPDEST PUSH1 0x5 SLOAD PUSH1 0x1 PUSH1 0x1 PUSH1 0xA0 SHL SUB AND CALLER EQ PUSH2 0x1C48 JUMPI PUSH1 0x40 MLOAD PUSH3 0x461BCD PUSH1 0xE5 SHL DUP2 MSTORE PUSH1 0x4 ADD PUSH2 0x7C3 SWAP1 PUSH2 0x3524 JUMP JUMPDEST PUSH2 0x1C52 PUSH1 0x0 PUSH2 0x2A49 JUMP JUMPDEST JUMP JUMPDEST PUSH1 0x0 PUSH2 0x1C5F DUP3 PUSH2 0x250A JUMP JUMPDEST PUSH2 0x1CA2 JUMPI PUSH1 0x40 MLOAD PUSH3 0x461BCD PUSH1 0xE5 SHL DUP2 MSTORE PUSH1 0x20 PUSH1 0x4 DUP3 ADD MSTORE PUSH1 0x14 PUSH1 0x24 DUP3 ADD MSTORE PUSH20 0x151BDAD95B88191BD95CC81B9BDD08195E1A5CDD PUSH1 0x62 SHL PUSH1 0x44 DUP3 ADD MSTORE PUSH1 0x64 ADD PUSH2 0x7C3 JUMP JUMPDEST POP PUSH1 0x0 SWAP1 DUP2 MSTORE PUSH1 0xE PUSH1 0x20 MSTORE PUSH1 0x40 SWAP1 KECCAK256 SLOAD PUSH2 0xFFFF AND SWAP1 JUMP JUMPDEST PUSH1 0x60 PUSH1 0x1 DUP1 SLOAD PUSH2 0x6D8 SWAP1 PUSH2 0x3834 JUMP JUMPDEST PUSH1 0x1 PUSH1 0x1 PUSH1 0xA0 SHL SUB DUP3 AND CALLER EQ ISZERO PUSH2 0x1D21 JUMPI PUSH1 0x40 MLOAD PUSH3 0x461BCD PUSH1 0xE5 SHL DUP2 MSTORE PUSH1 0x20 PUSH1 0x4 DUP3 ADD MSTORE PUSH1 0x19 PUSH1 0x24 DUP3 ADD MSTORE PUSH32 0x4552433732313A20617070726F766520746F2063616C6C657200000000000000 PUSH1 0x44 DUP3 ADD MSTORE PUSH1 0x64 ADD PUSH2 0x7C3 JUMP JUMPDEST CALLER PUSH1 0x0 DUP2 DUP2 MSTORE PUSH1 0x4 PUSH1 0x20 SWAP1 DUP2 MSTORE PUSH1 0x40 DUP1 DUP4 KECCAK256 PUSH1 0x1 PUSH1 0x1 PUSH1 0xA0 SHL SUB DUP8 AND DUP1 DUP6 MSTORE SWAP1 DUP4 MSTORE SWAP3 DUP2 SWAP1 KECCAK256 DUP1 SLOAD PUSH1 0xFF NOT AND DUP7 ISZERO ISZERO SWAP1 DUP2 OR SWAP1 SWAP2 SSTORE SWAP1 MLOAD SWAP1 DUP2 MSTORE SWAP2 SWAP3 SWAP2 PUSH32 0x17307EAB39AB6107E8899845AD3D59BD9653F200F220920489CA2B5937696C31 SWAP2 ADD PUSH1 0x40 MLOAD DUP1 SWAP2 SUB SWAP1 LOG3 POP POP JUMP JUMPDEST PUSH1 0x5 SLOAD PUSH1 0x1 PUSH1 0x1 PUSH1 0xA0 SHL SUB AND CALLER EQ DUP1 PUSH2 0x1DB0 JUMPI POP PUSH1 0x6 SLOAD PUSH1 0x1 PUSH1 0x1 PUSH1 0xA0 SHL SUB AND CALLER EQ JUMPDEST PUSH2 0x1DCC JUMPI PUSH1 0x40 MLOAD PUSH3 0x461BCD PUSH1 0xE5 SHL DUP2 MSTORE PUSH1 0x4 ADD PUSH2 0x7C3 SWAP1 PUSH2 0x3632 JUMP JUMPDEST PUSH1 0xF DUP1 SLOAD PUSH1 0x1 PUSH1 0x1 PUSH1 0xA0 SHL SUB NOT AND PUSH1 0x1 PUSH1 0x1 PUSH1 0xA0 SHL SUB SWAP3 SWAP1 SWAP3 AND SWAP2 SWAP1 SWAP2 OR SWAP1 SSTORE JUMP JUMPDEST PUSH1 0x2 PUSH1 0x7 SLOAD EQ ISZERO PUSH2 0x1E11 JUMPI PUSH1 0x40 MLOAD PUSH3 0x461BCD PUSH1 0xE5 SHL DUP2 MSTORE PUSH1 0x4 ADD PUSH2 0x7C3 SWAP1 PUSH2 0x3684 JUMP JUMPDEST PUSH1 0x2 PUSH1 0x7 SSTORE PUSH1 0x0 DUP3 DUP2 MSTORE PUSH1 0xE PUSH1 0x20 MSTORE PUSH1 0x40 SWAP1 KECCAK256 SLOAD TIMESTAMP PUSH3 0x10000 SWAP1 SWAP2 DIV PUSH1 0x1 PUSH1 0x1 PUSH1 0xF0 SHL SUB AND LT PUSH2 0x1E53 JUMPI PUSH1 0x40 MLOAD PUSH3 0x461BCD PUSH1 0xE5 SHL DUP2 MSTORE PUSH1 0x4 ADD PUSH2 0x7C3 SWAP1 PUSH2 0x3597 JUMP JUMPDEST PUSH2 0x1E5F DUP5 DUP5 DUP5 DUP5 PUSH2 0x2A9B JUMP JUMPDEST POP POP PUSH1 0x1 PUSH1 0x7 SSTORE POP POP JUMP JUMPDEST PUSH1 0x5 SLOAD PUSH1 0x1 PUSH1 0x1 PUSH1 0xA0 SHL SUB AND CALLER EQ DUP1 PUSH2 0x1E8D JUMPI POP PUSH1 0x6 SLOAD PUSH1 0x1 PUSH1 0x1 PUSH1 0xA0 SHL SUB AND CALLER EQ JUMPDEST PUSH2 0x1EA9 JUMPI PUSH1 0x40 MLOAD PUSH3 0x461BCD PUSH1 0xE5 SHL DUP2 MSTORE PUSH1 0x4 ADD PUSH2 0x7C3 SWAP1 PUSH2 0x3632 JUMP JUMPDEST PUSH1 0x8 SSTORE JUMP JUMPDEST PUSH1 0x5 SLOAD PUSH1 0x1 PUSH1 0x1 PUSH1 0xA0 SHL SUB AND CALLER EQ PUSH2 0x1ED8 JUMPI PUSH1 0x40 MLOAD PUSH3 0x461BCD PUSH1 0xE5 SHL DUP2 MSTORE PUSH1 0x4 ADD PUSH2 0x7C3 SWAP1 PUSH2 0x3524 JUMP JUMPDEST PUSH2 0x1EE2 PUSH1 0x0 PUSH2 0x2A49 JUMP JUMPDEST PUSH2 0x1C52 PUSH1 0x0 PUSH2 0x29E1 JUMP JUMPDEST PUSH1 0x5 SLOAD PUSH1 0x1 PUSH1 0x1 PUSH1 0xA0 SHL SUB AND CALLER EQ DUP1 PUSH2 0x1F0F JUMPI POP PUSH1 0x6 SLOAD PUSH1 0x1 PUSH1 0x1 PUSH1 0xA0 SHL SUB AND CALLER EQ JUMPDEST PUSH2 0x1F2B JUMPI PUSH1 0x40 MLOAD PUSH3 0x461BCD PUSH1 0xE5 SHL DUP2 MSTORE PUSH1 0x4 ADD PUSH2 0x7C3 SWAP1 PUSH2 0x3632 JUMP JUMPDEST PUSH1 0xD SSTORE JUMP JUMPDEST PUSH1 0x6 SLOAD PUSH1 0x1 PUSH1 0xA0 SHL SWAP1 DIV PUSH1 0xFF AND ISZERO PUSH2 0x1F5A JUMPI PUSH1 0x40 MLOAD PUSH3 0x461BCD PUSH1 0xE5 SHL DUP2 MSTORE PUSH1 0x4 ADD PUSH2 0x7C3 SWAP1 PUSH2 0x356D JUMP JUMPDEST PUSH1 0x2 PUSH1 0x7 SLOAD EQ ISZERO PUSH2 0x1F7D JUMPI PUSH1 0x40 MLOAD PUSH3 0x461BCD PUSH1 0xE5 SHL DUP2 MSTORE PUSH1 0x4 ADD PUSH2 0x7C3 SWAP1 PUSH2 0x3684 JUMP JUMPDEST PUSH1 0x2 PUSH1 0x7 SSTORE PUSH1 0x0 DUP1 DUP3 PUSH2 0x1FD2 JUMPI PUSH1 0x40 MLOAD PUSH3 0x461BCD PUSH1 0xE5 SHL DUP2 MSTORE PUSH1 0x20 PUSH1 0x4 DUP3 ADD MSTORE PUSH1 0x1E PUSH1 0x24 DUP3 ADD MSTORE PUSH32 0x596F752063616E6E6F74207061737320616E20656D7074792061727261790000 PUSH1 0x44 DUP3 ADD MSTORE PUSH1 0x64 ADD PUSH2 0x7C3 JUMP JUMPDEST PUSH1 0x0 JUMPDEST DUP4 DUP2 LT ISZERO PUSH2 0x2130 JUMPI CALLER PUSH2 0x1FFF DUP7 DUP7 DUP5 DUP2 DUP2 LT PUSH2 0x1FF3 JUMPI PUSH2 0x1FF3 PUSH2 0x38EC JUMP JUMPDEST SWAP1 POP PUSH1 0x20 MUL ADD CALLDATALOAD PUSH2 0x15FC JUMP JUMPDEST PUSH1 0x1 PUSH1 0x1 PUSH1 0xA0 SHL SUB AND EQ PUSH2 0x204A JUMPI PUSH1 0x40 MLOAD PUSH3 0x461BCD PUSH1 0xE5 SHL DUP2 MSTORE PUSH1 0x20 PUSH1 0x4 DUP3 ADD MSTORE PUSH1 0x12 PUSH1 0x24 DUP3 ADD MSTORE PUSH18 0x4E4F5420594F555220444556494345285329 PUSH1 0x70 SHL PUSH1 0x44 DUP3 ADD MSTORE PUSH1 0x64 ADD PUSH2 0x7C3 JUMP JUMPDEST PUSH2 0x205F DUP6 DUP6 DUP4 DUP2 DUP2 LT PUSH2 0x96F JUMPI PUSH2 0x96F PUSH2 0x38EC JUMP JUMPDEST SWAP3 POP PUSH1 0x0 PUSH1 0xE PUSH1 0x0 DUP8 DUP8 DUP6 DUP2 DUP2 LT PUSH2 0x2079 JUMPI PUSH2 0x2079 PUSH2 0x38EC JUMP JUMPDEST PUSH1 0x20 SWAP1 DUP2 MUL SWAP3 SWAP1 SWAP3 ADD CALLDATALOAD DUP4 MSTORE POP DUP2 ADD SWAP2 SWAP1 SWAP2 MSTORE PUSH1 0x40 ADD PUSH1 0x0 KECCAK256 DUP1 SLOAD PUSH2 0xFFFF AND PUSH3 0x10000 TIMESTAMP PUSH1 0x1 PUSH1 0x1 PUSH1 0xF0 SHL SUB AND MUL OR DUP2 SSTORE SWAP1 POP PUSH32 0xE8A6CE7E6A997A08EF9E7E8D523C86CBA031FFA80ED979876264E1BA1435C09B CALLER DUP8 DUP8 DUP6 DUP2 DUP2 LT PUSH2 0x20E0 JUMPI PUSH2 0x20E0 PUSH2 0x38EC JUMP JUMPDEST PUSH1 0x40 DUP1 MLOAD PUSH1 0x1 PUSH1 0x1 PUSH1 0xA0 SHL SUB SWAP1 SWAP6 AND DUP6 MSTORE PUSH1 0x20 SWAP2 DUP3 MUL SWAP4 SWAP1 SWAP4 ADD CALLDATALOAD SWAP1 DUP5 ADD MSTORE POP DUP2 ADD DUP7 SWAP1 MSTORE PUSH1 0x60 ADD PUSH1 0x40 MLOAD DUP1 SWAP2 SUB SWAP1 LOG1 PUSH2 0x211A DUP5 DUP5 PUSH2 0x36BB JUMP JUMPDEST SWAP3 POP POP DUP1 DUP1 PUSH2 0x2128 SWAP1 PUSH2 0x3891 JUMP JUMPDEST SWAP2 POP POP PUSH2 0x1FD5 JUMP JUMPDEST POP PUSH1 0x0 DUP2 GT PUSH2 0x2174 JUMPI PUSH1 0x40 MLOAD PUSH3 0x461BCD PUSH1 0xE5 SHL DUP2 MSTORE PUSH1 0x20 PUSH1 0x4 DUP3 ADD MSTORE PUSH1 0x10 PUSH1 0x24 DUP3 ADD MSTORE PUSH16 0x4E4F204D414720415641494C41424C45 PUSH1 0x80 SHL PUSH1 0x44 DUP3 ADD MSTORE PUSH1 0x64 ADD PUSH2 0x7C3 JUMP JUMPDEST PUSH1 0xF SLOAD PUSH1 0x1 PUSH1 0x1 PUSH1 0xA0 SHL SUB AND PUSH4 0x40C10F19 CALLER PUSH1 0x40 MLOAD PUSH1 0x1 PUSH1 0x1 PUSH1 0xE0 SHL SUB NOT PUSH1 0xE0 DUP5 SWAP1 SHL AND DUP2 MSTORE PUSH1 0x1 PUSH1 0x1 PUSH1 0xA0 SHL SUB SWAP1 SWAP2 AND PUSH1 0x4 DUP3 ADD MSTORE PUSH1 0x24 DUP2 ADD DUP5 SWAP1 MSTORE PUSH1 0x44 ADD PUSH1 0x0 PUSH1 0x40 MLOAD DUP1 DUP4 SUB DUP2 PUSH1 0x0 DUP8 DUP1 EXTCODESIZE ISZERO DUP1 ISZERO PUSH2 0x21CE JUMPI PUSH1 0x0 DUP1 REVERT JUMPDEST POP GAS CALL ISZERO DUP1 ISZERO PUSH2 0x21E2 JUMPI RETURNDATASIZE PUSH1 0x0 DUP1 RETURNDATACOPY RETURNDATASIZE PUSH1 0x0 REVERT JUMPDEST POP POP PUSH1 0x1 PUSH1 0x7 SSTORE POP POP POP POP POP POP JUMP JUMPDEST PUSH1 0xC DUP1 SLOAD PUSH2 0x169D SWAP1 PUSH2 0x3834 JUMP JUMPDEST PUSH1 0x60 PUSH2 0x2209 DUP3 PUSH2 0x250A JUMP JUMPDEST PUSH2 0x226D JUMPI PUSH1 0x40 MLOAD PUSH3 0x461BCD PUSH1 0xE5 SHL DUP2 MSTORE PUSH1 0x20 PUSH1 0x4 DUP3 ADD MSTORE PUSH1 0x2F PUSH1 0x24 DUP3 ADD MSTORE PUSH32 0x4552433732314D657461646174613A2055524920717565727920666F72206E6F PUSH1 0x44 DUP3 ADD MSTORE PUSH15 0x3732BC34B9BA32B73A103A37B5B2B7 PUSH1 0x89 SHL PUSH1 0x64 DUP3 ADD MSTORE PUSH1 0x84 ADD PUSH2 0x7C3 JUMP JUMPDEST PUSH1 0xB PUSH2 0x2278 DUP4 PUSH2 0x26F9 JUMP JUMPDEST PUSH1 0xC PUSH1 0x40 MLOAD PUSH1 0x20 ADD PUSH2 0x228C SWAP4 SWAP3 SWAP2 SWAP1 PUSH2 0x33E0 JUMP JUMPDEST PUSH1 0x40 MLOAD PUSH1 0x20 DUP2 DUP4 SUB SUB DUP2 MSTORE SWAP1 PUSH1 0x40 MSTORE SWAP1 POP SWAP2 SWAP1 POP JUMP JUMPDEST PUSH1 0x0 PUSH2 0x22AD DUP3 PUSH2 0x250A JUMP JUMPDEST PUSH2 0x22F0 JUMPI PUSH1 0x40 MLOAD PUSH3 0x461BCD PUSH1 0xE5 SHL DUP2 MSTORE PUSH1 0x20 PUSH1 0x4 DUP3 ADD MSTORE PUSH1 0x14 PUSH1 0x24 DUP3 ADD MSTORE PUSH20 0x151BDAD95B88191BD95CC81B9BDD08195E1A5CDD PUSH1 0x62 SHL PUSH1 0x44 DUP3 ADD MSTORE PUSH1 0x64 ADD PUSH2 0x7C3 JUMP JUMPDEST PUSH1 0x0 DUP3 DUP2 MSTORE PUSH1 0xE PUSH1 0x20 SWAP1 DUP2 MSTORE PUSH1 0x40 SWAP2 DUP3 SWAP1 KECCAK256 DUP3 MLOAD DUP1 DUP5 ADD SWAP1 SWAP4 MSTORE SLOAD PUSH2 0xFFFF DUP2 AND DUP4 MSTORE PUSH3 0x10000 SWAP1 DIV PUSH1 0x1 PUSH1 0x1 PUSH1 0xF0 SHL SUB AND SWAP1 DUP3 ADD MSTORE PUSH1 0xA SLOAD TIMESTAMP SWAP1 DUP2 GT ISZERO PUSH2 0x2336 JUMPI POP PUSH1 0xA SLOAD JUMPDEST DUP1 DUP3 PUSH1 0x20 ADD MLOAD PUSH1 0x1 PUSH1 0x1 PUSH1 0xF0 SHL SUB AND GT ISZERO PUSH2 0x2355 JUMPI POP PUSH1 0x0 SWAP4 SWAP3 POP POP POP JUMP JUMPDEST PUSH1 0x0 DUP3 PUSH1 0x20 ADD MLOAD PUSH1 0x1 PUSH1 0x1 PUSH1 0xF0 SHL SUB AND DUP3 PUSH2 0x2370 SWAP2 SWAP1 PUSH2 0x37F1 JUMP JUMPDEST SWAP1 POP PUSH1 0x0 PUSH3 0x15180 PUSH1 0x1 DUP6 PUSH1 0x0 ADD MLOAD PUSH2 0xFFFF AND PUSH2 0x238D SWAP2 SWAP1 PUSH2 0x37F1 JUMP JUMPDEST PUSH2 0x2398 SWAP1 PUSH1 0x2 PUSH2 0x372A JUMP JUMPDEST PUSH2 0x23AA SWAP1 PUSH8 0xDE0B6B3A7640000 PUSH2 0x37D2 JUMP JUMPDEST PUSH2 0x23B4 SWAP2 SWAP1 PUSH2 0x36D3 JUMP JUMPDEST SWAP1 POP PUSH2 0x23C0 DUP3 DUP3 PUSH2 0x37D2 JUMP JUMPDEST SWAP7 SWAP6 POP POP POP POP POP POP JUMP JUMPDEST PUSH1 0x5 SLOAD PUSH1 0x1 PUSH1 0x1 PUSH1 0xA0 SHL SUB AND CALLER EQ DUP1 PUSH2 0x23ED JUMPI POP PUSH1 0x6 SLOAD PUSH1 0x1 PUSH1 0x1 PUSH1 0xA0 SHL SUB AND CALLER EQ JUMPDEST PUSH2 0x2409 JUMPI PUSH1 0x40 MLOAD PUSH3 0x461BCD PUSH1 0xE5 SHL DUP2 MSTORE PUSH1 0x4 ADD PUSH2 0x7C3 SWAP1 PUSH2 0x3632 JUMP JUMPDEST DUP1 MLOAD PUSH2 0x15A3 SWAP1 PUSH1 0xC SWAP1 PUSH1 0x20 DUP5 ADD SWAP1 PUSH2 0x2EBB JUMP JUMPDEST PUSH1 0x5 SLOAD PUSH1 0x1 PUSH1 0x1 PUSH1 0xA0 SHL SUB AND CALLER EQ PUSH2 0x2446 JUMPI PUSH1 0x40 MLOAD PUSH3 0x461BCD PUSH1 0xE5 SHL DUP2 MSTORE PUSH1 0x4 ADD PUSH2 0x7C3 SWAP1 PUSH2 0x3524 JUMP JUMPDEST PUSH1 0x1 PUSH1 0x1 PUSH1 0xA0 SHL SUB DUP2 AND PUSH2 0x24B1 JUMPI PUSH1 0x40 MLOAD PUSH3 0x461BCD PUSH1 0xE5 SHL DUP2 MSTORE PUSH1 0x20 PUSH1 0x4 DUP3 ADD MSTORE PUSH1 0x2C PUSH1 0x24 DUP3 ADD MSTORE PUSH32 0x4F776E61626C653A206E6577206F776E65722063616E27742062652074686520 PUSH1 0x44 DUP3 ADD MSTORE PUSH12 0x7A65726F2061646472657373 PUSH1 0xA0 SHL PUSH1 0x64 DUP3 ADD MSTORE PUSH1 0x84 ADD PUSH2 0x7C3 JUMP JUMPDEST PUSH2 0xB24 DUP2 PUSH2 0x2A49 JUMP JUMPDEST PUSH1 0x0 PUSH1 0x1 PUSH1 0x1 PUSH1 0xE0 SHL SUB NOT DUP3 AND PUSH4 0x80AC58CD PUSH1 0xE0 SHL EQ DUP1 PUSH2 0x24EB JUMPI POP PUSH1 0x1 PUSH1 0x1 PUSH1 0xE0 SHL SUB NOT DUP3 AND PUSH4 0x5B5E139F PUSH1 0xE0 SHL EQ JUMPDEST DUP1 PUSH2 0x6C3 JUMPI POP PUSH4 0x1FFC9A7 PUSH1 0xE0 SHL PUSH1 0x1 PUSH1 0x1 PUSH1 0xE0 SHL SUB NOT DUP4 AND EQ PUSH2 0x6C3 JUMP JUMPDEST PUSH1 0x2 SLOAD PUSH1 0x0 SWAP1 DUP3 LT DUP1 ISZERO PUSH2 0x6C3 JUMPI POP PUSH1 0x0 PUSH1 0x1 PUSH1 0x1 PUSH1 0xA0 SHL SUB AND PUSH1 0x2 DUP4 DUP2 SLOAD DUP2 LT PUSH2 0x2537 JUMPI PUSH2 0x2537 PUSH2 0x38EC JUMP JUMPDEST PUSH1 0x0 SWAP2 DUP3 MSTORE PUSH1 0x20 SWAP1 SWAP2 KECCAK256 ADD SLOAD PUSH1 0x1 PUSH1 0x1 PUSH1 0xA0 SHL SUB AND EQ ISZERO SWAP3 SWAP2 POP POP JUMP JUMPDEST PUSH1 0x0 DUP2 DUP2 MSTORE PUSH1 0x3 PUSH1 0x20 MSTORE PUSH1 0x40 SWAP1 KECCAK256 DUP1 SLOAD PUSH1 0x1 PUSH1 0x1 PUSH1 0xA0 SHL SUB NOT AND PUSH1 0x1 PUSH1 0x1 PUSH1 0xA0 SHL SUB DUP5 AND SWAP1 DUP2 OR SWAP1 SWAP2 SSTORE DUP2 SWAP1 PUSH2 0x2589 DUP3 PUSH2 0x15FC JUMP JUMPDEST PUSH1 0x1 PUSH1 0x1 PUSH1 0xA0 SHL SUB AND PUSH32 0x8C5BE1E5EBEC7D5BD14F71427D1E84F3DD0314C0F7B2291E5B200AC8C7C3B925 PUSH1 0x40 MLOAD PUSH1 0x40 MLOAD DUP1 SWAP2 SUB SWAP1 LOG4 POP POP JUMP JUMPDEST PUSH1 0x6 SLOAD PUSH1 0x1 PUSH1 0xA0 SHL SWAP1 DIV PUSH1 0xFF AND ISZERO PUSH2 0x25EC JUMPI PUSH1 0x40 MLOAD PUSH3 0x461BCD PUSH1 0xE5 SHL DUP2 MSTORE PUSH1 0x4 ADD PUSH2 0x7C3 SWAP1 PUSH2 0x356D JUMP JUMPDEST PUSH1 0x6 DUP1 SLOAD PUSH1 0xFF PUSH1 0xA0 SHL NOT AND PUSH1 0x1 PUSH1 0xA0 SHL OR SWAP1 SSTORE PUSH32 0x62E78CEA01BEE320CD4E420270B5EA74000D11B0C9F74754EBDBFC544B05A258 PUSH2 0x2627 CALLER SWAP1 JUMP JUMPDEST PUSH1 0x40 MLOAD PUSH1 0x1 PUSH1 0x1 PUSH1 0xA0 SHL SUB SWAP1 SWAP2 AND DUP2 MSTORE PUSH1 0x20 ADD PUSH1 0x40 MLOAD DUP1 SWAP2 SUB SWAP1 LOG1 JUMP JUMPDEST PUSH1 0x6 SLOAD PUSH1 0x1 PUSH1 0xA0 SHL SWAP1 DIV PUSH1 0xFF AND PUSH2 0x2694 JUMPI PUSH1 0x40 MLOAD PUSH3 0x461BCD PUSH1 0xE5 SHL DUP2 MSTORE PUSH1 0x20 PUSH1 0x4 DUP3 ADD MSTORE PUSH1 0x14 PUSH1 0x24 DUP3 ADD MSTORE PUSH20 0x14185D5CD8589B194E881B9BDD081C185D5CD959 PUSH1 0x62 SHL PUSH1 0x44 DUP3 ADD MSTORE PUSH1 0x64 ADD PUSH2 0x7C3 JUMP JUMPDEST PUSH1 0x6 DUP1 SLOAD PUSH1 0xFF PUSH1 0xA0 SHL NOT AND SWAP1 SSTORE PUSH32 0x5DB9EE0A495BF2E6FF9C91A7834C1BA4FDD244A5E8AA4E537BD38AEAE4B073AA CALLER PUSH2 0x2627 JUMP JUMPDEST PUSH2 0x26D2 CALLER DUP3 PUSH2 0x2AD3 JUMP JUMPDEST PUSH2 0x26EE JUMPI PUSH1 0x40 MLOAD PUSH3 0x461BCD PUSH1 0xE5 SHL DUP2 MSTORE PUSH1 0x4 ADD PUSH2 0x7C3 SWAP1 PUSH2 0x35E1 JUMP JUMPDEST PUSH2 0x8F9 DUP4 DUP4 DUP4 PUSH2 0x2BB9 JUMP JUMPDEST PUSH1 0x60 DUP2 PUSH2 0x271D JUMPI POP POP PUSH1 0x40 DUP1 MLOAD DUP1 DUP3 ADD SWAP1 SWAP2 MSTORE PUSH1 0x1 DUP2 MSTORE PUSH1 0x3 PUSH1 0xFC SHL PUSH1 0x20 DUP3 ADD MSTORE SWAP1 JUMP JUMPDEST DUP2 PUSH1 0x0 JUMPDEST DUP2 ISZERO PUSH2 0x2747 JUMPI DUP1 PUSH2 0x2731 DUP2 PUSH2 0x3891 JUMP JUMPDEST SWAP2 POP PUSH2 0x2740 SWAP1 POP PUSH1 0xA DUP4 PUSH2 0x36D3 JUMP JUMPDEST SWAP2 POP PUSH2 0x2721 JUMP JUMPDEST PUSH1 0x0 DUP2 PUSH8 0xFFFFFFFFFFFFFFFF DUP2 GT ISZERO PUSH2 0x2762 JUMPI PUSH2 0x2762 PUSH2 0x3902 JUMP JUMPDEST PUSH1 0x40 MLOAD SWAP1 DUP1 DUP3 MSTORE DUP1 PUSH1 0x1F ADD PUSH1 0x1F NOT AND PUSH1 0x20 ADD DUP3 ADD PUSH1 0x40 MSTORE DUP1 ISZERO PUSH2 0x278C JUMPI PUSH1 0x20 DUP3 ADD DUP2 DUP1 CALLDATASIZE DUP4 CALLDATACOPY ADD SWAP1 POP JUMPDEST POP SWAP1 POP JUMPDEST DUP5 ISZERO PUSH2 0x27F7 JUMPI PUSH2 0x27A1 PUSH1 0x1 DUP4 PUSH2 0x37F1 JUMP JUMPDEST SWAP2 POP PUSH2 0x27AE PUSH1 0xA DUP7 PUSH2 0x38AC JUMP JUMPDEST PUSH2 0x27B9 SWAP1 PUSH1 0x30 PUSH2 0x36BB JUMP JUMPDEST PUSH1 0xF8 SHL DUP2 DUP4 DUP2 MLOAD DUP2 LT PUSH2 0x27CE JUMPI PUSH2 0x27CE PUSH2 0x38EC JUMP JUMPDEST PUSH1 0x20 ADD ADD SWAP1 PUSH1 0x1 PUSH1 0x1 PUSH1 0xF8 SHL SUB NOT AND SWAP1 DUP2 PUSH1 0x0 BYTE SWAP1 MSTORE8 POP PUSH2 0x27F0 PUSH1 0xA DUP7 PUSH2 0x36D3 JUMP JUMPDEST SWAP5 POP PUSH2 0x2790 JUMP JUMPDEST SWAP5 SWAP4 POP POP POP POP JUMP JUMPDEST PUSH1 0x2 DUP1 SLOAD PUSH1 0x1 DUP2 ADD DUP3 SSTORE PUSH1 0x0 SWAP2 DUP3 MSTORE PUSH32 0x405787FA12A823E0F2B7631CC41B3BA8828B3321CA811111FA75CD3AA3BB5ACE ADD DUP1 SLOAD PUSH1 0x1 PUSH1 0x1 PUSH1 0xA0 SHL SUB NOT AND PUSH1 0x1 PUSH1 0x1 PUSH1 0xA0 SHL SUB DUP6 AND SWAP1 DUP2 OR SWAP1 SWAP2 SSTORE PUSH1 0x40 MLOAD DUP4 SWAP3 SWAP1 PUSH32 0xDDF252AD1BE2C89B69C2B068FC378DAA952BA7F163C4A11628F55A4DF523B3EF SWAP1 DUP3 SWAP1 LOG4 POP POP JUMP JUMPDEST PUSH1 0x0 DUP1 JUMPDEST DUP3 DUP5 LT ISZERO PUSH2 0x2912 JUMPI DUP4 PUSH1 0x1 EQ ISZERO PUSH2 0x28A9 JUMPI PUSH2 0x28A2 PUSH8 0x6124FEE993BC0000 DUP3 PUSH2 0x36BB JUMP JUMPDEST SWAP1 POP PUSH2 0x2900 JUMP JUMPDEST DUP4 PUSH1 0x2 EQ ISZERO PUSH2 0x28C5 JUMPI PUSH2 0x28A2 PUSH9 0x1E5B8FA8FE2AC0000 DUP3 PUSH2 0x36BB JUMP JUMPDEST DUP4 PUSH1 0x3 EQ ISZERO PUSH2 0x28E1 JUMPI PUSH2 0x28A2 PUSH9 0x12F939C99EDAB80000 DUP3 PUSH2 0x36BB JUMP JUMPDEST DUP4 PUSH1 0x4 EQ ISZERO PUSH2 0x2900 JUMPI PUSH2 0x28FD PUSH9 0xA2A15D09519BE00000 DUP3 PUSH2 0x36BB JUMP JUMPDEST SWAP1 POP JUMPDEST DUP4 PUSH2 0x290A DUP2 PUSH2 0x3891 JUMP JUMPDEST SWAP5 POP POP PUSH2 0x287F JUMP JUMPDEST SWAP4 SWAP3 POP POP POP JUMP JUMPDEST PUSH1 0x6 SLOAD PUSH1 0x1 PUSH1 0xA8 SHL SWAP1 DIV PUSH1 0xFF AND ISZERO PUSH2 0x296B JUMPI PUSH1 0x40 MLOAD PUSH3 0x461BCD PUSH1 0xE5 SHL DUP2 MSTORE PUSH1 0x20 PUSH1 0x4 DUP3 ADD MSTORE PUSH1 0x15 PUSH1 0x24 DUP3 ADD MSTORE PUSH21 0x14D958DC995D08155B9B1BD8DAC8115B98589B1959 PUSH1 0x5A SHL PUSH1 0x44 DUP3 ADD MSTORE PUSH1 0x64 ADD PUSH2 0x7C3 JUMP JUMPDEST PUSH1 0x6 DUP1 SLOAD PUSH1 0xFF PUSH1 0xA8 SHL NOT AND PUSH1 0x1 PUSH1 0xA8 SHL OR SWAP1 SSTORE JUMP JUMPDEST PUSH1 0x6 SLOAD PUSH1 0x1 PUSH1 0xA8 SHL SWAP1 DIV PUSH1 0xFF AND PUSH2 0x29D2 JUMPI PUSH1 0x40 MLOAD PUSH3 0x461BCD PUSH1 0xE5 SHL DUP2 MSTORE PUSH1 0x20 PUSH1 0x4 DUP3 ADD MSTORE PUSH1 0x16 PUSH1 0x24 DUP3 ADD MSTORE PUSH22 0x14D958DC995D08155B9B1BD8DAC8111A5CD8589B1959 PUSH1 0x52 SHL PUSH1 0x44 DUP3 ADD MSTORE PUSH1 0x64 ADD PUSH2 0x7C3 JUMP JUMPDEST PUSH1 0x6 DUP1 SLOAD PUSH1 0xFF PUSH1 0xA8 SHL NOT AND SWAP1 SSTORE JUMP JUMPDEST PUSH1 0x6 DUP1 SLOAD PUSH1 0x1 PUSH1 0x1 PUSH1 0xA0 SHL SUB DUP4 DUP2 AND PUSH1 0x1 PUSH1 0x1 PUSH1 0xA0 SHL SUB NOT DUP4 AND DUP2 OR SWAP1 SWAP4 SSTORE PUSH1 0x40 MLOAD SWAP2 AND SWAP2 SWAP1 DUP3 SWAP1 PUSH32 0xF9FFABCA9C8276E99321725BCB43FB076A6C66A54B7F21C4E8146D8519B417DC SWAP1 PUSH1 0x0 SWAP1 LOG3 POP POP JUMP JUMPDEST PUSH1 0x0 DUP3 PUSH2 0x2A40 DUP6 DUP5 PUSH2 0x2D0F JUMP JUMPDEST EQ SWAP5 SWAP4 POP POP POP POP JUMP JUMPDEST PUSH1 0x5 DUP1 SLOAD PUSH1 0x1 PUSH1 0x1 PUSH1 0xA0 SHL SUB DUP4 DUP2 AND PUSH1 0x1 PUSH1 0x1 PUSH1 0xA0 SHL SUB NOT DUP4 AND DUP2 OR SWAP1 SWAP4 SSTORE PUSH1 0x40 MLOAD SWAP2 AND SWAP2 SWAP1 DUP3 SWAP1 PUSH32 0x8BE0079C531659141344CD1FD0A4F28419497F9722A3DAAFE3B4186F6B6457E0 SWAP1 PUSH1 0x0 SWAP1 LOG3 POP POP JUMP JUMPDEST PUSH2 0x2AA5 CALLER DUP4 PUSH2 0x2AD3 JUMP JUMPDEST PUSH2 0x2AC1 JUMPI PUSH1 0x40 MLOAD PUSH3 0x461BCD PUSH1 0xE5 SHL DUP2 MSTORE PUSH1 0x4 ADD PUSH2 0x7C3 SWAP1 PUSH2 0x35E1 JUMP JUMPDEST PUSH2 0x2ACD DUP5 DUP5 DUP5 DUP5 PUSH2 0x2D7B JUMP JUMPDEST POP POP POP POP JUMP JUMPDEST PUSH1 0x0 PUSH2 0x2ADE DUP3 PUSH2 0x250A JUMP JUMPDEST PUSH2 0x2B3F JUMPI PUSH1 0x40 MLOAD PUSH3 0x461BCD PUSH1 0xE5 SHL DUP2 MSTORE PUSH1 0x20 PUSH1 0x4 DUP3 ADD MSTORE PUSH1 0x2C PUSH1 0x24 DUP3 ADD MSTORE PUSH32 0x4552433732313A206F70657261746F7220717565727920666F72206E6F6E6578 PUSH1 0x44 DUP3 ADD MSTORE PUSH12 0x34B9BA32B73A103A37B5B2B7 PUSH1 0xA1 SHL PUSH1 0x64 DUP3 ADD MSTORE PUSH1 0x84 ADD PUSH2 0x7C3 JUMP JUMPDEST PUSH1 0x0 PUSH2 0x2B4A DUP4 PUSH2 0x15FC JUMP JUMPDEST SWAP1 POP DUP1 PUSH1 0x1 PUSH1 0x1 PUSH1 0xA0 SHL SUB AND DUP5 PUSH1 0x1 PUSH1 0x1 PUSH1 0xA0 SHL SUB AND EQ DUP1 PUSH2 0x2B85 JUMPI POP DUP4 PUSH1 0x1 PUSH1 0x1 PUSH1 0xA0 SHL SUB AND PUSH2 0x2B7A DUP5 PUSH2 0x75B JUMP JUMPDEST PUSH1 0x1 PUSH1 0x1 PUSH1 0xA0 SHL SUB AND EQ JUMPDEST DUP1 PUSH2 0x27F7 JUMPI POP PUSH1 0x1 PUSH1 0x1 PUSH1 0xA0 SHL SUB DUP1 DUP3 AND PUSH1 0x0 SWAP1 DUP2 MSTORE PUSH1 0x4 PUSH1 0x20 SWAP1 DUP2 MSTORE PUSH1 0x40 DUP1 DUP4 KECCAK256 SWAP4 DUP9 AND DUP4 MSTORE SWAP3 SWAP1 MSTORE KECCAK256 SLOAD PUSH1 0xFF AND PUSH2 0x27F7 JUMP JUMPDEST DUP3 PUSH1 0x1 PUSH1 0x1 PUSH1 0xA0 SHL SUB AND PUSH2 0x2BCC DUP3 PUSH2 0x15FC JUMP JUMPDEST PUSH1 0x1 PUSH1 0x1 PUSH1 0xA0 SHL SUB AND EQ PUSH2 0x2C34 JUMPI PUSH1 0x40 MLOAD PUSH3 0x461BCD PUSH1 0xE5 SHL DUP2 MSTORE PUSH1 0x20 PUSH1 0x4 DUP3 ADD MSTORE PUSH1 0x29 PUSH1 0x24 DUP3 ADD MSTORE PUSH32 0x4552433732313A207472616E73666572206F6620746F6B656E20746861742069 PUSH1 0x44 DUP3 ADD MSTORE PUSH9 0x39903737BA1037BBB7 PUSH1 0xB9 SHL PUSH1 0x64 DUP3 ADD MSTORE PUSH1 0x84 ADD PUSH2 0x7C3 JUMP JUMPDEST PUSH1 0x1 PUSH1 0x1 PUSH1 0xA0 SHL SUB DUP3 AND PUSH2 0x2C96 JUMPI PUSH1 0x40 MLOAD PUSH3 0x461BCD PUSH1 0xE5 SHL DUP2 MSTORE PUSH1 0x20 PUSH1 0x4 DUP3 ADD MSTORE PUSH1 0x24 DUP1 DUP3 ADD MSTORE PUSH32 0x4552433732313A207472616E7366657220746F20746865207A65726F20616464 PUSH1 0x44 DUP3 ADD MSTORE PUSH4 0x72657373 PUSH1 0xE0 SHL PUSH1 0x64 DUP3 ADD MSTORE PUSH1 0x84 ADD PUSH2 0x7C3 JUMP JUMPDEST PUSH2 0x2CA1 PUSH1 0x0 DUP3 PUSH2 0x2554 JUMP JUMPDEST DUP2 PUSH1 0x2 DUP3 DUP2 SLOAD DUP2 LT PUSH2 0x2CB5 JUMPI PUSH2 0x2CB5 PUSH2 0x38EC JUMP JUMPDEST PUSH1 0x0 SWAP2 DUP3 MSTORE PUSH1 0x20 DUP3 KECCAK256 ADD DUP1 SLOAD PUSH1 0x1 PUSH1 0x1 PUSH1 0xA0 SHL SUB NOT AND PUSH1 0x1 PUSH1 0x1 PUSH1 0xA0 SHL SUB SWAP4 DUP5 AND OR SWAP1 SSTORE PUSH1 0x40 MLOAD DUP4 SWAP3 DUP6 DUP2 AND SWAP3 SWAP1 DUP8 AND SWAP2 PUSH32 0xDDF252AD1BE2C89B69C2B068FC378DAA952BA7F163C4A11628F55A4DF523B3EF SWAP2 SWAP1 LOG4 POP POP POP JUMP JUMPDEST PUSH1 0x0 DUP2 DUP2 JUMPDEST DUP5 MLOAD DUP2 LT ISZERO PUSH2 0xEB8 JUMPI PUSH1 0x0 DUP6 DUP3 DUP2 MLOAD DUP2 LT PUSH2 0x2D31 JUMPI PUSH2 0x2D31 PUSH2 0x38EC JUMP JUMPDEST PUSH1 0x20 MUL PUSH1 0x20 ADD ADD MLOAD SWAP1 POP DUP1 DUP4 GT PUSH2 0x2D57 JUMPI PUSH1 0x0 DUP4 DUP2 MSTORE PUSH1 0x20 DUP3 SWAP1 MSTORE PUSH1 0x40 SWAP1 KECCAK256 SWAP3 POP PUSH2 0x2D68 JUMP JUMPDEST PUSH1 0x0 DUP2 DUP2 MSTORE PUSH1 0x20 DUP5 SWAP1 MSTORE PUSH1 0x40 SWAP1 KECCAK256 SWAP3 POP JUMPDEST POP DUP1 PUSH2 0x2D73 DUP2 PUSH2 0x3891 JUMP JUMPDEST SWAP2 POP POP PUSH2 0x2D14 JUMP JUMPDEST PUSH2 0x2D86 DUP5 DUP5 DUP5 PUSH2 0x2BB9 JUMP JUMPDEST PUSH2 0x2D92 DUP5 DUP5 DUP5 DUP5 PUSH2 0x2DAE JUMP JUMPDEST PUSH2 0x2ACD JUMPI PUSH1 0x40 MLOAD PUSH3 0x461BCD PUSH1 0xE5 SHL DUP2 MSTORE PUSH1 0x4 ADD PUSH2 0x7C3 SWAP1 PUSH2 0x34D2 JUMP JUMPDEST PUSH1 0x0 PUSH1 0x1 PUSH1 0x1 PUSH1 0xA0 SHL SUB DUP5 AND EXTCODESIZE ISZERO PUSH2 0x2EB0 JUMPI PUSH1 0x40 MLOAD PUSH4 0xA85BD01 PUSH1 0xE1 SHL DUP2 MSTORE PUSH1 0x1 PUSH1 0x1 PUSH1 0xA0 SHL SUB DUP6 AND SWAP1 PUSH4 0x150B7A02 SWAP1 PUSH2 0x2DF2 SWAP1 CALLER SWAP1 DUP10 SWAP1 DUP9 SWAP1 DUP9 SWAP1 PUSH1 0x4 ADD PUSH2 0x3441 JUMP JUMPDEST PUSH1 0x20 PUSH1 0x40 MLOAD DUP1 DUP4 SUB DUP2 PUSH1 0x0 DUP8 DUP1 EXTCODESIZE ISZERO DUP1 ISZERO PUSH2 0x2E0C JUMPI PUSH1 0x0 DUP1 REVERT JUMPDEST POP GAS CALL SWAP3 POP POP POP DUP1 ISZERO PUSH2 0x2E3C JUMPI POP PUSH1 0x40 DUP1 MLOAD PUSH1 0x1F RETURNDATASIZE SWAP1 DUP2 ADD PUSH1 0x1F NOT AND DUP3 ADD SWAP1 SWAP3 MSTORE PUSH2 0x2E39 SWAP2 DUP2 ADD SWAP1 PUSH2 0x3226 JUMP JUMPDEST PUSH1 0x1 JUMPDEST PUSH2 0x2E96 JUMPI RETURNDATASIZE DUP1 DUP1 ISZERO PUSH2 0x2E6A JUMPI PUSH1 0x40 MLOAD SWAP2 POP PUSH1 0x1F NOT PUSH1 0x3F RETURNDATASIZE ADD AND DUP3 ADD PUSH1 0x40 MSTORE RETURNDATASIZE DUP3 MSTORE RETURNDATASIZE PUSH1 0x0 PUSH1 0x20 DUP5 ADD RETURNDATACOPY PUSH2 0x2E6F JUMP JUMPDEST PUSH1 0x60 SWAP2 POP JUMPDEST POP DUP1 MLOAD PUSH2 0x2E8E JUMPI PUSH1 0x40 MLOAD PUSH3 0x461BCD PUSH1 0xE5 SHL DUP2 MSTORE PUSH1 0x4 ADD PUSH2 0x7C3 SWAP1 PUSH2 0x34D2 JUMP JUMPDEST DUP1 MLOAD DUP2 PUSH1 0x20 ADD REVERT JUMPDEST PUSH1 0x1 PUSH1 0x1 PUSH1 0xE0 SHL SUB NOT AND PUSH4 0xA85BD01 PUSH1 0xE1 SHL EQ SWAP1 POP PUSH2 0x27F7 JUMP JUMPDEST POP PUSH1 0x1 SWAP5 SWAP4 POP POP POP POP JUMP JUMPDEST DUP3 DUP1 SLOAD PUSH2 0x2EC7 SWAP1 PUSH2 0x3834 JUMP JUMPDEST SWAP1 PUSH1 0x0 MSTORE PUSH1 0x20 PUSH1 0x0 KECCAK256 SWAP1 PUSH1 0x1F ADD PUSH1 0x20 SWAP1 DIV DUP2 ADD SWAP3 DUP3 PUSH2 0x2EE9 JUMPI PUSH1 0x0 DUP6 SSTORE PUSH2 0x2F2F JUMP JUMPDEST DUP3 PUSH1 0x1F LT PUSH2 0x2F02 JUMPI DUP1 MLOAD PUSH1 0xFF NOT AND DUP4 DUP1 ADD OR DUP6 SSTORE PUSH2 0x2F2F JUMP JUMPDEST DUP3 DUP1 ADD PUSH1 0x1 ADD DUP6 SSTORE DUP3 ISZERO PUSH2 0x2F2F JUMPI SWAP2 DUP3 ADD JUMPDEST DUP3 DUP2 GT ISZERO PUSH2 0x2F2F JUMPI DUP3 MLOAD DUP3 SSTORE SWAP2 PUSH1 0x20 ADD SWAP2 SWAP1 PUSH1 0x1 ADD SWAP1 PUSH2 0x2F14 JUMP JUMPDEST POP PUSH2 0x154D SWAP3 SWAP2 POP JUMPDEST DUP1 DUP3 GT ISZERO PUSH2 0x154D JUMPI PUSH1 0x0 DUP2 SSTORE PUSH1 0x1 ADD PUSH2 0x2F37 JUMP JUMPDEST PUSH1 0x0 PUSH8 0xFFFFFFFFFFFFFFFF DUP1 DUP5 GT ISZERO PUSH2 0x2F66 JUMPI PUSH2 0x2F66 PUSH2 0x3902 JUMP JUMPDEST PUSH1 0x40 MLOAD PUSH1 0x1F DUP6 ADD PUSH1 0x1F NOT SWAP1 DUP2 AND PUSH1 0x3F ADD AND DUP2 ADD SWAP1 DUP3 DUP3 GT DUP2 DUP4 LT OR ISZERO PUSH2 0x2F8E JUMPI PUSH2 0x2F8E PUSH2 0x3902 JUMP JUMPDEST DUP2 PUSH1 0x40 MSTORE DUP1 SWAP4 POP DUP6 DUP2 MSTORE DUP7 DUP7 DUP7 ADD GT ISZERO PUSH2 0x2FA7 JUMPI PUSH1 0x0 DUP1 REVERT JUMPDEST DUP6 DUP6 PUSH1 0x20 DUP4 ADD CALLDATACOPY PUSH1 0x0 PUSH1 0x20 DUP8 DUP4 ADD ADD MSTORE POP POP POP SWAP4 SWAP3 POP POP POP JUMP JUMPDEST DUP1 CALLDATALOAD PUSH1 0x1 PUSH1 0x1 PUSH1 0xA0 SHL SUB DUP2 AND DUP2 EQ PUSH2 0x2FD8 JUMPI PUSH1 0x0 DUP1 REVERT JUMPDEST SWAP2 SWAP1 POP JUMP JUMPDEST PUSH1 0x0 DUP1 DUP4 PUSH1 0x1F DUP5 ADD SLT PUSH2 0x2FEF JUMPI PUSH1 0x0 DUP1 REVERT JUMPDEST POP DUP2 CALLDATALOAD PUSH8 0xFFFFFFFFFFFFFFFF DUP2 GT ISZERO PUSH2 0x3007 JUMPI PUSH1 0x0 DUP1 REVERT JUMPDEST PUSH1 0x20 DUP4 ADD SWAP2 POP DUP4 PUSH1 0x20 DUP3 PUSH1 0x5 SHL DUP6 ADD ADD GT ISZERO PUSH2 0x3022 JUMPI PUSH1 0x0 DUP1 REVERT JUMPDEST SWAP3 POP SWAP3 SWAP1 POP JUMP JUMPDEST DUP1 CALLDATALOAD DUP1 ISZERO ISZERO DUP2 EQ PUSH2 0x2FD8 JUMPI PUSH1 0x0 DUP1 REVERT JUMPDEST PUSH1 0x0 PUSH1 0x20 DUP3 DUP5 SUB SLT ISZERO PUSH2 0x304B JUMPI PUSH1 0x0 DUP1 REVERT JUMPDEST PUSH2 0x2912 DUP3 PUSH2 0x2FC1 JUMP JUMPDEST PUSH1 0x0 DUP1 PUSH1 0x40 DUP4 DUP6 SUB SLT ISZERO PUSH2 0x3067 JUMPI PUSH1 0x0 DUP1 REVERT JUMPDEST PUSH2 0x3070 DUP4 PUSH2 0x2FC1 JUMP JUMPDEST SWAP2 POP PUSH2 0x307E PUSH1 0x20 DUP5 ADD PUSH2 0x2FC1 JUMP JUMPDEST SWAP1 POP SWAP3 POP SWAP3 SWAP1 POP JUMP JUMPDEST PUSH1 0x0 DUP1 PUSH1 0x0 PUSH1 0x60 DUP5 DUP7 SUB SLT ISZERO PUSH2 0x309C JUMPI PUSH1 0x0 DUP1 REVERT JUMPDEST PUSH2 0x30A5 DUP5 PUSH2 0x2FC1 JUMP JUMPDEST SWAP3 POP PUSH2 0x30B3 PUSH1 0x20 DUP6 ADD PUSH2 0x2FC1 JUMP JUMPDEST SWAP2 POP PUSH1 0x40 DUP5 ADD CALLDATALOAD SWAP1 POP SWAP3 POP SWAP3 POP SWAP3 JUMP JUMPDEST PUSH1 0x0 DUP1 PUSH1 0x0 DUP1 PUSH1 0x80 DUP6 DUP8 SUB SLT ISZERO PUSH2 0x30D9 JUMPI PUSH1 0x0 DUP1 REVERT JUMPDEST PUSH2 0x30E2 DUP6 PUSH2 0x2FC1 JUMP JUMPDEST SWAP4 POP PUSH2 0x30F0 PUSH1 0x20 DUP7 ADD PUSH2 0x2FC1 JUMP JUMPDEST SWAP3 POP PUSH1 0x40 DUP6 ADD CALLDATALOAD SWAP2 POP PUSH1 0x60 DUP6 ADD CALLDATALOAD PUSH8 0xFFFFFFFFFFFFFFFF DUP2 GT ISZERO PUSH2 0x3113 JUMPI PUSH1 0x0 DUP1 REVERT JUMPDEST DUP6 ADD PUSH1 0x1F DUP2 ADD DUP8 SGT PUSH2 0x3124 JUMPI PUSH1 0x0 DUP1 REVERT JUMPDEST PUSH2 0x3133 DUP8 DUP3 CALLDATALOAD PUSH1 0x20 DUP5 ADD PUSH2 0x2F4B JUMP JUMPDEST SWAP2 POP POP SWAP3 SWAP6 SWAP2 SWAP5 POP SWAP3 POP JUMP JUMPDEST PUSH1 0x0 DUP1 PUSH1 0x40 DUP4 DUP6 SUB SLT ISZERO PUSH2 0x3152 JUMPI PUSH1 0x0 DUP1 REVERT JUMPDEST PUSH2 0x315B DUP4 PUSH2 0x2FC1 JUMP JUMPDEST SWAP2 POP PUSH2 0x307E PUSH1 0x20 DUP5 ADD PUSH2 0x3029 JUMP JUMPDEST PUSH1 0x0 DUP1 PUSH1 0x40 DUP4 DUP6 SUB SLT ISZERO PUSH2 0x317C JUMPI PUSH1 0x0 DUP1 REVERT JUMPDEST PUSH2 0x3185 DUP4 PUSH2 0x2FC1 JUMP JUMPDEST SWAP5 PUSH1 0x20 SWAP4 SWAP1 SWAP4 ADD CALLDATALOAD SWAP4 POP POP POP JUMP JUMPDEST PUSH1 0x0 DUP1 PUSH1 0x20 DUP4 DUP6 SUB SLT ISZERO PUSH2 0x31A6 JUMPI PUSH1 0x0 DUP1 REVERT JUMPDEST DUP3 CALLDATALOAD PUSH8 0xFFFFFFFFFFFFFFFF DUP2 GT ISZERO PUSH2 0x31BD JUMPI PUSH1 0x0 DUP1 REVERT JUMPDEST PUSH2 0x31C9 DUP6 DUP3 DUP7 ADD PUSH2 0x2FDD JUMP JUMPDEST SWAP1 SWAP7 SWAP1 SWAP6 POP SWAP4 POP POP POP POP JUMP JUMPDEST PUSH1 0x0 PUSH1 0x20 DUP3 DUP5 SUB SLT ISZERO PUSH2 0x31E7 JUMPI PUSH1 0x0 DUP1 REVERT JUMPDEST PUSH2 0x2912 DUP3 PUSH2 0x3029 JUMP JUMPDEST PUSH1 0x0 PUSH1 0x20 DUP3 DUP5 SUB SLT ISZERO PUSH2 0x3202 JUMPI PUSH1 0x0 DUP1 REVERT JUMPDEST POP CALLDATALOAD SWAP2 SWAP1 POP JUMP JUMPDEST PUSH1 0x0 PUSH1 0x20 DUP3 DUP5 SUB SLT ISZERO PUSH2 0x321B JUMPI PUSH1 0x0 DUP1 REVERT JUMPDEST DUP2 CALLDATALOAD PUSH2 0x2912 DUP2 PUSH2 0x3918 JUMP JUMPDEST PUSH1 0x0 PUSH1 0x20 DUP3 DUP5 SUB SLT ISZERO PUSH2 0x3238 JUMPI PUSH1 0x0 DUP1 REVERT JUMPDEST DUP2 MLOAD PUSH2 0x2912 DUP2 PUSH2 0x3918 JUMP JUMPDEST PUSH1 0x0 PUSH1 0x20 DUP3 DUP5 SUB SLT ISZERO PUSH2 0x3255 JUMPI PUSH1 0x0 DUP1 REVERT JUMPDEST DUP2 CALLDATALOAD PUSH8 0xFFFFFFFFFFFFFFFF DUP2 GT ISZERO PUSH2 0x326C JUMPI PUSH1 0x0 DUP1 REVERT JUMPDEST DUP3 ADD PUSH1 0x1F DUP2 ADD DUP5 SGT PUSH2 0x327D JUMPI PUSH1 0x0 DUP1 REVERT JUMPDEST PUSH2 0x27F7 DUP5 DUP3 CALLDATALOAD PUSH1 0x20 DUP5 ADD PUSH2 0x2F4B JUMP JUMPDEST PUSH1 0x0 PUSH1 0x20 DUP3 DUP5 SUB SLT ISZERO PUSH2 0x329E JUMPI PUSH1 0x0 DUP1 REVERT JUMPDEST POP MLOAD SWAP2 SWAP1 POP JUMP JUMPDEST PUSH1 0x0 DUP1 PUSH1 0x0 DUP1 PUSH1 0x60 DUP6 DUP8 SUB SLT ISZERO PUSH2 0x32BB JUMPI PUSH1 0x0 DUP1 REVERT JUMPDEST DUP5 CALLDATALOAD SWAP4 POP PUSH1 0x20 DUP6 ADD CALLDATALOAD PUSH8 0xFFFFFFFFFFFFFFFF DUP2 GT ISZERO PUSH2 0x32D9 JUMPI PUSH1 0x0 DUP1 REVERT JUMPDEST PUSH2 0x32E5 DUP8 DUP3 DUP9 ADD PUSH2 0x2FDD JUMP JUMPDEST SWAP6 SWAP9 SWAP1 SWAP8 POP SWAP5 SWAP6 PUSH1 0x40 ADD CALLDATALOAD SWAP5 SWAP4 POP POP POP POP JUMP JUMPDEST PUSH1 0x0 DUP1 PUSH1 0x40 DUP4 DUP6 SUB SLT ISZERO PUSH2 0x330B JUMPI PUSH1 0x0 DUP1 REVERT JUMPDEST POP POP DUP1 CALLDATALOAD SWAP3 PUSH1 0x20 SWAP1 SWAP2 ADD CALLDATALOAD SWAP2 POP JUMP JUMPDEST PUSH1 0x0 DUP2 MLOAD DUP1 DUP5 MSTORE PUSH2 0x3332 DUP2 PUSH1 0x20 DUP7 ADD PUSH1 0x20 DUP7 ADD PUSH2 0x3808 JUMP JUMPDEST PUSH1 0x1F ADD PUSH1 0x1F NOT AND SWAP3 SWAP1 SWAP3 ADD PUSH1 0x20 ADD SWAP3 SWAP2 POP POP JUMP JUMPDEST DUP1 SLOAD PUSH1 0x0 SWAP1 PUSH1 0x1 DUP2 DUP2 SHR SWAP1 DUP1 DUP4 AND DUP1 PUSH2 0x3360 JUMPI PUSH1 0x7F DUP4 AND SWAP3 POP JUMPDEST PUSH1 0x20 DUP1 DUP5 LT DUP3 EQ ISZERO PUSH2 0x3382 JUMPI PUSH4 0x4E487B71 PUSH1 0xE0 SHL PUSH1 0x0 MSTORE PUSH1 0x22 PUSH1 0x4 MSTORE PUSH1 0x24 PUSH1 0x0 REVERT JUMPDEST DUP2 DUP1 ISZERO PUSH2 0x3396 JUMPI PUSH1 0x1 DUP2 EQ PUSH2 0x33A7 JUMPI PUSH2 0x33D4 JUMP JUMPDEST PUSH1 0xFF NOT DUP7 AND DUP10 MSTORE DUP5 DUP10 ADD SWAP7 POP PUSH2 0x33D4 JUMP JUMPDEST PUSH1 0x0 DUP9 DUP2 MSTORE PUSH1 0x20 SWAP1 KECCAK256 PUSH1 0x0 JUMPDEST DUP7 DUP2 LT ISZERO PUSH2 0x33CC JUMPI DUP2 SLOAD DUP12 DUP3 ADD MSTORE SWAP1 DUP6 ADD SWAP1 DUP4 ADD PUSH2 0x33B3 JUMP JUMPDEST POP POP DUP5 DUP10 ADD SWAP7 POP JUMPDEST POP POP POP POP POP POP SWAP3 SWAP2 POP POP JUMP JUMPDEST PUSH1 0x0 PUSH2 0x33EC DUP3 DUP7 PUSH2 0x3346 JUMP JUMPDEST DUP5 MLOAD PUSH2 0x33FC DUP2 DUP4 PUSH1 0x20 DUP10 ADD PUSH2 0x3808 JUMP JUMPDEST PUSH2 0x3408 DUP2 DUP4 ADD DUP7 PUSH2 0x3346 JUMP JUMPDEST SWAP8 SWAP7 POP POP POP POP POP POP POP JUMP JUMPDEST PUSH6 0x4C696E652023 PUSH1 0xD0 SHL DUP2 MSTORE PUSH1 0x0 DUP3 MLOAD PUSH2 0x3434 DUP2 PUSH1 0x6 DUP6 ADD PUSH1 0x20 DUP8 ADD PUSH2 0x3808 JUMP JUMPDEST SWAP2 SWAP1 SWAP2 ADD PUSH1 0x6 ADD SWAP3 SWAP2 POP POP JUMP JUMPDEST PUSH1 0x1 PUSH1 0x1 PUSH1 0xA0 SHL SUB DUP6 DUP2 AND DUP3 MSTORE DUP5 AND PUSH1 0x20 DUP3 ADD MSTORE PUSH1 0x40 DUP2 ADD DUP4 SWAP1 MSTORE PUSH1 0x80 PUSH1 0x60 DUP3 ADD DUP2 SWAP1 MSTORE PUSH1 0x0 SWAP1 PUSH2 0x23C0 SWAP1 DUP4 ADD DUP5 PUSH2 0x331A JUMP JUMPDEST PUSH1 0x20 DUP2 MSTORE PUSH1 0x0 PUSH2 0x2912 PUSH1 0x20 DUP4 ADD DUP5 PUSH2 0x331A JUMP JUMPDEST PUSH1 0x20 DUP1 DUP3 MSTORE PUSH1 0x2B SWAP1 DUP3 ADD MSTORE PUSH32 0x455243373231456E756D657261626C653A206F776E657220696E646578206F75 PUSH1 0x40 DUP3 ADD MSTORE PUSH11 0x74206F6620626F756E6473 PUSH1 0xA8 SHL PUSH1 0x60 DUP3 ADD MSTORE PUSH1 0x80 ADD SWAP1 JUMP JUMPDEST PUSH1 0x20 DUP1 DUP3 MSTORE PUSH1 0x32 SWAP1 DUP3 ADD MSTORE PUSH32 0x4552433732313A207472616E7366657220746F206E6F6E204552433732315265 PUSH1 0x40 DUP3 ADD MSTORE PUSH18 0x31B2B4BB32B91034B6B83632B6B2B73A32B9 PUSH1 0x71 SHL PUSH1 0x60 DUP3 ADD MSTORE PUSH1 0x80 ADD SWAP1 JUMP JUMPDEST PUSH1 0x20 DUP1 DUP3 MSTORE PUSH1 0x29 SWAP1 DUP3 ADD MSTORE PUSH32 0x4F776E61626C655769746841646D696E3A2063616C6C6572206973206E6F7420 PUSH1 0x40 DUP3 ADD MSTORE PUSH9 0x3A34329037BBB732B9 PUSH1 0xB9 SHL PUSH1 0x60 DUP3 ADD MSTORE PUSH1 0x80 ADD SWAP1 JUMP JUMPDEST PUSH1 0x20 DUP1 DUP3 MSTORE PUSH1 0x10 SWAP1 DUP3 ADD MSTORE PUSH16 0x14185D5CD8589B194E881C185D5CD959 PUSH1 0x82 SHL PUSH1 0x40 DUP3 ADD MSTORE PUSH1 0x60 ADD SWAP1 JUMP JUMPDEST PUSH1 0x20 DUP1 DUP3 MSTORE PUSH1 0x2A SWAP1 DUP3 ADD MSTORE PUSH32 0x43616E6E6F7420636C61696D20696D6D6564696174656C79206265666F726520 PUSH1 0x40 DUP3 ADD MSTORE PUSH10 0x30903A3930B739B332B9 PUSH1 0xB1 SHL PUSH1 0x60 DUP3 ADD MSTORE PUSH1 0x80 ADD SWAP1 JUMP JUMPDEST PUSH1 0x20 DUP1 DUP3 MSTORE PUSH1 0x31 SWAP1 DUP3 ADD MSTORE PUSH32 0x4552433732313A207472616E736665722063616C6C6572206973206E6F74206F PUSH1 0x40 DUP3 ADD MSTORE PUSH17 0x1DDB995C881B9BDC88185C1C1C9BDD9959 PUSH1 0x7A SHL PUSH1 0x60 DUP3 ADD MSTORE PUSH1 0x80 ADD SWAP1 JUMP JUMPDEST PUSH1 0x20 DUP1 DUP3 MSTORE PUSH1 0x32 SWAP1 DUP3 ADD MSTORE PUSH32 0x4F776E61626C655769746841646D696E3A2063616C6C6572206973206E6F7420 PUSH1 0x40 DUP3 ADD MSTORE PUSH18 0x3A34329037BBB732B91037B91030B236B4B7 PUSH1 0x71 SHL PUSH1 0x60 DUP3 ADD MSTORE PUSH1 0x80 ADD SWAP1 JUMP JUMPDEST PUSH1 0x20 DUP1 DUP3 MSTORE PUSH1 0x1F SWAP1 DUP3 ADD MSTORE PUSH32 0x5265656E7472616E637947756172643A207265656E7472616E742063616C6C00 PUSH1 0x40 DUP3 ADD MSTORE PUSH1 0x60 ADD SWAP1 JUMP JUMPDEST PUSH1 0x0 DUP3 NOT DUP3 GT ISZERO PUSH2 0x36CE JUMPI PUSH2 0x36CE PUSH2 0x38C0 JUMP JUMPDEST POP ADD SWAP1 JUMP JUMPDEST PUSH1 0x0 DUP3 PUSH2 0x36E2 JUMPI PUSH2 0x36E2 PUSH2 0x38D6 JUMP JUMPDEST POP DIV SWAP1 JUMP JUMPDEST PUSH1 0x1 DUP2 DUP2 JUMPDEST DUP1 DUP6 GT ISZERO PUSH2 0x3722 JUMPI DUP2 PUSH1 0x0 NOT DIV DUP3 GT ISZERO PUSH2 0x3708 JUMPI PUSH2 0x3708 PUSH2 0x38C0 JUMP JUMPDEST DUP1 DUP6 AND ISZERO PUSH2 0x3715 JUMPI SWAP2 DUP2 MUL SWAP2 JUMPDEST SWAP4 DUP5 SHR SWAP4 SWAP1 DUP1 MUL SWAP1 PUSH2 0x36EC JUMP JUMPDEST POP SWAP3 POP SWAP3 SWAP1 POP JUMP JUMPDEST PUSH1 0x0 PUSH2 0x2912 DUP4 DUP4 PUSH1 0x0 DUP3 PUSH2 0x3740 JUMPI POP PUSH1 0x1 PUSH2 0x6C3 JUMP JUMPDEST DUP2 PUSH2 0x374D JUMPI POP PUSH1 0x0 PUSH2 0x6C3 JUMP JUMPDEST DUP2 PUSH1 0x1 DUP2 EQ PUSH2 0x3763 JUMPI PUSH1 0x2 DUP2 EQ PUSH2 0x376D JUMPI PUSH2 0x3789 JUMP JUMPDEST PUSH1 0x1 SWAP2 POP POP PUSH2 0x6C3 JUMP JUMPDEST PUSH1 0xFF DUP5 GT ISZERO PUSH2 0x377E JUMPI PUSH2 0x377E PUSH2 0x38C0 JUMP JUMPDEST POP POP PUSH1 0x1 DUP3 SHL PUSH2 0x6C3 JUMP JUMPDEST POP PUSH1 0x20 DUP4 LT PUSH2 0x133 DUP4 LT AND PUSH1 0x4E DUP5 LT PUSH1 0xB DUP5 LT AND OR ISZERO PUSH2 0x37AC JUMPI POP DUP2 DUP2 EXP PUSH2 0x6C3 JUMP JUMPDEST PUSH2 0x37B6 DUP4 DUP4 PUSH2 0x36E7 JUMP JUMPDEST DUP1 PUSH1 0x0 NOT DIV DUP3 GT ISZERO PUSH2 0x37CA JUMPI PUSH2 0x37CA PUSH2 0x38C0 JUMP JUMPDEST MUL SWAP4 SWAP3 POP POP POP JUMP JUMPDEST PUSH1 0x0 DUP2 PUSH1 0x0 NOT DIV DUP4 GT DUP3 ISZERO ISZERO AND ISZERO PUSH2 0x37EC JUMPI PUSH2 0x37EC PUSH2 0x38C0 JUMP JUMPDEST POP MUL SWAP1 JUMP JUMPDEST PUSH1 0x0 DUP3 DUP3 LT ISZERO PUSH2 0x3803 JUMPI PUSH2 0x3803 PUSH2 0x38C0 JUMP JUMPDEST POP SUB SWAP1 JUMP JUMPDEST PUSH1 0x0 JUMPDEST DUP4 DUP2 LT ISZERO PUSH2 0x3823 JUMPI DUP2 DUP2 ADD MLOAD DUP4 DUP3 ADD MSTORE PUSH1 0x20 ADD PUSH2 0x380B JUMP JUMPDEST DUP4 DUP2 GT ISZERO PUSH2 0x2ACD JUMPI POP POP PUSH1 0x0 SWAP2 ADD MSTORE JUMP JUMPDEST PUSH1 0x1 DUP2 DUP2 SHR SWAP1 DUP3 AND DUP1 PUSH2 0x3848 JUMPI PUSH1 0x7F DUP3 AND SWAP2 POP JUMPDEST PUSH1 0x20 DUP3 LT DUP2 EQ ISZERO PUSH2 0x3869 JUMPI PUSH4 0x4E487B71 PUSH1 0xE0 SHL PUSH1 0x0 MSTORE PUSH1 0x22 PUSH1 0x4 MSTORE PUSH1 0x24 PUSH1 0x0 REVERT JUMPDEST POP SWAP2 SWAP1 POP JUMP JUMPDEST PUSH1 0x0 PUSH2 0xFFFF DUP1 DUP4 AND DUP2 DUP2 EQ ISZERO PUSH2 0x3887 JUMPI PUSH2 0x3887 PUSH2 0x38C0 JUMP JUMPDEST PUSH1 0x1 ADD SWAP4 SWAP3 POP POP POP JUMP JUMPDEST PUSH1 0x0 PUSH1 0x0 NOT DUP3 EQ ISZERO PUSH2 0x38A5 JUMPI PUSH2 0x38A5 PUSH2 0x38C0 JUMP JUMPDEST POP PUSH1 0x1 ADD SWAP1 JUMP JUMPDEST PUSH1 0x0 DUP3 PUSH2 0x38BB JUMPI PUSH2 0x38BB PUSH2 0x38D6 JUMP JUMPDEST POP MOD SWAP1 JUMP JUMPDEST PUSH4 0x4E487B71 PUSH1 0xE0 SHL PUSH1 0x0 MSTORE PUSH1 0x11 PUSH1 0x4 MSTORE PUSH1 0x24 PUSH1 0x0 REVERT JUMPDEST PUSH4 0x4E487B71 PUSH1 0xE0 SHL PUSH1 0x0 MSTORE PUSH1 0x12 PUSH1 0x4 MSTORE PUSH1 0x24 PUSH1 0x0 REVERT JUMPDEST PUSH4 0x4E487B71 PUSH1 0xE0 SHL PUSH1 0x0 MSTORE PUSH1 0x32 PUSH1 0x4 MSTORE PUSH1 0x24 PUSH1 0x0 REVERT JUMPDEST PUSH4 0x4E487B71 PUSH1 0xE0 SHL PUSH1 0x0 MSTORE PUSH1 0x41 PUSH1 0x4 MSTORE PUSH1 0x24 PUSH1 0x0 REVERT JUMPDEST PUSH1 0x1 PUSH1 0x1 PUSH1 0xE0 SHL SUB NOT DUP2 AND DUP2 EQ PUSH2 0xB24 JUMPI PUSH1 0x0 DUP1 REVERT INVALID LOG2 PUSH5 0x6970667358 0x22 SLT KECCAK256 SWAP15 JUMPI 0xB7 0xC0 0xBE 0xCD ADD 0xF9 0xEE 0xE5 0x2B SWAP15 0xC1 PUSH16 0x8D54ACD9502AD88CCE4FDEE90BE04A4F CALLDATACOPY 0xD7 PUSH5 0x736F6C6343 STOP ADDMOD SMOD STOP CALLER "
		},
		"gasEstimates": {
			"creation": {
				"codeDepositCost": "2938400",
				"executionCost": "infinite",
				"totalCost": "infinite"
			},
			"external": {
				"addressHasClaimed(address)": "2610",
				"admin()": "2485",
				"approve(address,uint256)": "infinite",
				"balanceOf(address)": "infinite",
				"baseExtension()": "infinite",
				"baseURI()": "infinite",
				"claimDevices(uint256,bytes32[],uint256)": "infinite",
				"claimMagFromMany(uint256[])": "infinite",
				"claimReserves(address,uint256)": "infinite",
				"devices(uint256)": "2684",
				"getApproved(uint256)": "9106",
				"getClue()": "infinite",
				"getLevel(uint256)": "9147",
				"getUpgradeCost(uint256,uint256)": "infinite",
				"isApprovedForAll(address,address)": "infinite",
				"magnesium()": "2404",
				"magnesiumAvailable(uint256)": "infinite",
				"magnesiumAvailableInMany(uint256[])": "infinite",
				"name()": "infinite",
				"owner()": "2376",
				"ownerOf(uint256)": "6900",
				"paused()": "2421",
				"renounceOwnership()": "28251",
				"renounceOwnershipandAdminship()": "54039",
				"safeTransferFrom(address,address,uint256)": "infinite",
				"safeTransferFrom(address,address,uint256,bytes)": "infinite",
				"secretUnlockWithClaimIfNeeded(uint256)": "infinite",
				"setAdmin(address)": "28380",
				"setApprovalForAll(address,bool)": "infinite",
				"setBaseExtension(string)": "infinite",
				"setBaseURI(string)": "infinite",
				"setLineOfClue(uint256)": "26720",
				"setMagnesiumAddress(address)": "28989",
				"setPaused(bool)": "32159",
				"setSecretUnlockEnabled(bool)": "31132",
				"setWhitelistMerkleRoot(bytes32)": "26676",
				"setYieldEndTime(uint256)": "28808",
				"supportsInterface(bytes4)": "infinite",
				"symbol()": "infinite",
				"tokenByIndex(uint256)": "2548",
				"tokenOfOwnerByIndex(address,uint256)": "infinite",
				"tokenURI(uint256)": "infinite",
				"totalSupply()": "2382",
				"transferFrom(address,address,uint256)": "infinite",
				"transferOwnership(address)": "28444",
				"upgradeDeviceAndClaim(uint256,uint256)": "infinite",
				"whitelistMerkleRoot()": "2450",
				"yieldEndTime()": "2451"
			},
			"internal": {
				"_mint(address,uint256)": "50420",
				"upgradeCost(uint256,uint256)": "infinite"
			}
		},
		"methodIdentifiers": {
			"addressHasClaimed(address)": "44944f31",
			"admin()": "f851a440",
			"approve(address,uint256)": "095ea7b3",
			"balanceOf(address)": "70a08231",
			"baseExtension()": "c6682862",
			"baseURI()": "6c0360eb",
			"claimDevices(uint256,bytes32[],uint256)": "70b5ae9c",
			"claimMagFromMany(uint256[])": "c5b3d078",
			"claimReserves(address,uint256)": "46c22429",
			"devices(uint256)": "10ff8e31",
			"getApproved(uint256)": "081812fc",
			"getClue()": "3c4c51c9",
			"getLevel(uint256)": "86481d40",
			"getUpgradeCost(uint256,uint256)": "4830dfa5",
			"isApprovedForAll(address,address)": "e985e9c5",
			"magnesium()": "915ee6e9",
			"magnesiumAvailable(uint256)": "cab8fa22",
			"magnesiumAvailableInMany(uint256[])": "0cc670fa",
			"name()": "06fdde03",
			"owner()": "8da5cb5b",
			"ownerOf(uint256)": "6352211e",
			"paused()": "5c975abb",
			"renounceOwnership()": "715018a6",
			"renounceOwnershipandAdminship()": "be01ac8b",
			"safeTransferFrom(address,address,uint256)": "42842e0e",
			"safeTransferFrom(address,address,uint256,bytes)": "b88d4fde",
			"secretUnlockWithClaimIfNeeded(uint256)": "48c3b247",
			"setAdmin(address)": "704b6c02",
			"setApprovalForAll(address,bool)": "a22cb465",
			"setBaseExtension(string)": "da3ef23f",
			"setBaseURI(string)": "55f804b3",
			"setLineOfClue(uint256)": "c58e5be8",
			"setMagnesiumAddress(address)": "a697fe31",
			"setPaused(bool)": "16c38b3c",
			"setSecretUnlockEnabled(bool)": "5f1aca81",
			"setWhitelistMerkleRoot(bytes32)": "bd32fb66",
			"setYieldEndTime(uint256)": "1394818e",
			"supportsInterface(bytes4)": "01ffc9a7",
			"symbol()": "95d89b41",
			"tokenByIndex(uint256)": "4f6ccce7",
			"tokenOfOwnerByIndex(address,uint256)": "2f745c59",
			"tokenURI(uint256)": "c87b56dd",
			"totalSupply()": "18160ddd",
			"transferFrom(address,address,uint256)": "23b872dd",
			"transferOwnership(address)": "f2fde38b",
			"upgradeDeviceAndClaim(uint256,uint256)": "4c7bce6b",
			"whitelistMerkleRoot()": "aa98e0c6",
			"yieldEndTime()": "314ca039"
		}
	},
	"abi": [
		{
			"inputs": [
				{
					"internalType": "address",
					"name": "_magnesium",
					"type": "address"
				}
			],
			"stateMutability": "nonpayable",
			"type": "constructor"
		},
		{
			"anonymous": false,
			"inputs": [
				{
					"indexed": false,
					"internalType": "address",
					"name": "recipient",
					"type": "address"
				},
				{
					"indexed": false,
					"internalType": "uint256",
					"name": "amount",
					"type": "uint256"
				}
			],
			"name": "AncientDevicesClaimed",
			"type": "event"
		},
		{
			"anonymous": false,
			"inputs": [
				{
					"indexed": true,
					"internalType": "address",
					"name": "owner",
					"type": "address"
				},
				{
					"indexed": true,
					"internalType": "address",
					"name": "approved",
					"type": "address"
				},
				{
					"indexed": true,
					"internalType": "uint256",
					"name": "tokenId",
					"type": "uint256"
				}
			],
			"name": "Approval",
			"type": "event"
		},
		{
			"anonymous": false,
			"inputs": [
				{
					"indexed": true,
					"internalType": "address",
					"name": "owner",
					"type": "address"
				},
				{
					"indexed": true,
					"internalType": "address",
					"name": "operator",
					"type": "address"
				},
				{
					"indexed": false,
					"internalType": "bool",
					"name": "approved",
					"type": "bool"
				}
			],
			"name": "ApprovalForAll",
			"type": "event"
		},
		{
			"anonymous": false,
			"inputs": [
				{
					"indexed": false,
					"internalType": "address",
					"name": "user",
					"type": "address"
				},
				{
					"indexed": false,
					"internalType": "uint256",
					"name": "tokenId",
					"type": "uint256"
				},
				{
					"indexed": false,
					"internalType": "uint256",
					"name": "targetLevel",
					"type": "uint256"
				},
				{
					"indexed": false,
					"internalType": "uint256",
					"name": "amount",
					"type": "uint256"
				}
			],
			"name": "DeviceUpgradedMagClaimed",
			"type": "event"
		},
		{
			"anonymous": false,
			"inputs": [
				{
					"indexed": false,
					"internalType": "address",
					"name": "recipient",
					"type": "address"
				},
				{
					"indexed": false,
					"internalType": "uint256",
					"name": "tokenId",
					"type": "uint256"
				},
				{
					"indexed": false,
					"internalType": "uint256",
					"name": "amount",
					"type": "uint256"
				}
			],
			"name": "MagnesiumClaimed",
			"type": "event"
		},
		{
			"anonymous": false,
			"inputs": [
				{
					"indexed": true,
					"internalType": "address",
					"name": "previousAdmin",
					"type": "address"
				},
				{
					"indexed": true,
					"internalType": "address",
					"name": "newAdmin",
					"type": "address"
				}
			],
			"name": "NewAdmin",
			"type": "event"
		},
		{
			"anonymous": false,
			"inputs": [
				{
					"indexed": true,
					"internalType": "address",
					"name": "previousOwner",
					"type": "address"
				},
				{
					"indexed": true,
					"internalType": "address",
					"name": "newOwner",
					"type": "address"
				}
			],
			"name": "OwnershipTransferred",
			"type": "event"
		},
		{
			"anonymous": false,
			"inputs": [
				{
					"indexed": false,
					"internalType": "address",
					"name": "account",
					"type": "address"
				}
			],
			"name": "Paused",
			"type": "event"
		},
		{
			"anonymous": false,
			"inputs": [
				{
					"indexed": true,
					"internalType": "address",
					"name": "from",
					"type": "address"
				},
				{
					"indexed": true,
					"internalType": "address",
					"name": "to",
					"type": "address"
				},
				{
					"indexed": true,
					"internalType": "uint256",
					"name": "tokenId",
					"type": "uint256"
				}
			],
			"name": "Transfer",
			"type": "event"
		},
		{
			"anonymous": false,
			"inputs": [
				{
					"indexed": false,
					"internalType": "address",
					"name": "account",
					"type": "address"
				}
			],
			"name": "Unpaused",
			"type": "event"
		},
		{
			"inputs": [
				{
					"internalType": "address",
					"name": "",
					"type": "address"
				}
			],
			"name": "addressHasClaimed",
			"outputs": [
				{
					"internalType": "bool",
					"name": "",
					"type": "bool"
				}
			],
			"stateMutability": "view",
			"type": "function"
		},
		{
			"inputs": [],
			"name": "admin",
			"outputs": [
				{
					"internalType": "address",
					"name": "",
					"type": "address"
				}
			],
			"stateMutability": "view",
			"type": "function"
		},
		{
			"inputs": [
				{
					"internalType": "address",
					"name": "to",
					"type": "address"
				},
				{
					"internalType": "uint256",
					"name": "tokenId",
					"type": "uint256"
				}
			],
			"name": "approve",
			"outputs": [],
			"stateMutability": "nonpayable",
			"type": "function"
		},
		{
			"inputs": [
				{
					"internalType": "address",
					"name": "owner",
					"type": "address"
				}
			],
			"name": "balanceOf",
			"outputs": [
				{
					"internalType": "uint256",
					"name": "",
					"type": "uint256"
				}
			],
			"stateMutability": "view",
			"type": "function"
		},
		{
			"inputs": [],
			"name": "baseExtension",
			"outputs": [
				{
					"internalType": "string",
					"name": "",
					"type": "string"
				}
			],
			"stateMutability": "view",
			"type": "function"
		},
		{
			"inputs": [],
			"name": "baseURI",
			"outputs": [
				{
					"internalType": "string",
					"name": "",
					"type": "string"
				}
			],
			"stateMutability": "view",
			"type": "function"
		},
		{
			"inputs": [
				{
					"internalType": "uint256",
					"name": "_amount",
					"type": "uint256"
				},
				{
					"internalType": "bytes32[]",
					"name": "_merkleProof",
					"type": "bytes32[]"
				},
				{
					"internalType": "uint256",
					"name": "_allowance",
					"type": "uint256"
				}
			],
			"name": "claimDevices",
			"outputs": [],
			"stateMutability": "nonpayable",
			"type": "function"
		},
		{
			"inputs": [
				{
					"internalType": "uint256[]",
					"name": "_tokenIds",
					"type": "uint256[]"
				}
			],
			"name": "claimMagFromMany",
			"outputs": [],
			"stateMutability": "nonpayable",
			"type": "function"
		},
		{
			"inputs": [
				{
					"internalType": "address",
					"name": "_to",
					"type": "address"
				},
				{
					"internalType": "uint256",
					"name": "_amount",
					"type": "uint256"
				}
			],
			"name": "claimReserves",
			"outputs": [],
			"stateMutability": "nonpayable",
			"type": "function"
		},
		{
			"inputs": [
				{
					"internalType": "uint256",
					"name": "",
					"type": "uint256"
				}
			],
			"name": "devices",
			"outputs": [
				{
					"internalType": "uint16",
					"name": "level",
					"type": "uint16"
				},
				{
					"internalType": "uint240",
					"name": "lastClaimTimestamp",
					"type": "uint240"
				}
			],
			"stateMutability": "view",
			"type": "function"
		},
		{
			"inputs": [
				{
					"internalType": "uint256",
					"name": "tokenId",
					"type": "uint256"
				}
			],
			"name": "getApproved",
			"outputs": [
				{
					"internalType": "address",
					"name": "",
					"type": "address"
				}
			],
			"stateMutability": "view",
			"type": "function"
		},
		{
			"inputs": [],
			"name": "getClue",
			"outputs": [
				{
					"internalType": "string",
					"name": "",
					"type": "string"
				}
			],
			"stateMutability": "view",
			"type": "function"
		},
		{
			"inputs": [
				{
					"internalType": "uint256",
					"name": "_tokenId",
					"type": "uint256"
				}
			],
			"name": "getLevel",
			"outputs": [
				{
					"internalType": "uint16",
					"name": "",
					"type": "uint16"
				}
			],
			"stateMutability": "view",
			"type": "function"
		},
		{
			"inputs": [
				{
					"internalType": "uint256",
					"name": "_tokenId",
					"type": "uint256"
				},
				{
					"internalType": "uint256",
					"name": "_targetLevel",
					"type": "uint256"
				}
			],
			"name": "getUpgradeCost",
			"outputs": [
				{
					"internalType": "uint256",
					"name": "",
					"type": "uint256"
				}
			],
			"stateMutability": "view",
			"type": "function"
		},
		{
			"inputs": [
				{
					"internalType": "address",
					"name": "owner",
					"type": "address"
				},
				{
					"internalType": "address",
					"name": "operator",
					"type": "address"
				}
			],
			"name": "isApprovedForAll",
			"outputs": [
				{
					"internalType": "bool",
					"name": "",
					"type": "bool"
				}
			],
			"stateMutability": "view",
			"type": "function"
		},
		{
			"inputs": [],
			"name": "magnesium",
			"outputs": [
				{
					"internalType": "contract MAGNESIUM",
					"name": "",
					"type": "address"
				}
			],
			"stateMutability": "view",
			"type": "function"
		},
		{
			"inputs": [
				{
					"internalType": "uint256",
					"name": "tokenId",
					"type": "uint256"
				}
			],
			"name": "magnesiumAvailable",
			"outputs": [
				{
					"internalType": "uint256",
					"name": "",
					"type": "uint256"
				}
			],
			"stateMutability": "view",
			"type": "function"
		},
		{
			"inputs": [
				{
					"internalType": "uint256[]",
					"name": "tokenIds",
					"type": "uint256[]"
				}
			],
			"name": "magnesiumAvailableInMany",
			"outputs": [
				{
					"internalType": "uint256",
					"name": "",
					"type": "uint256"
				}
			],
			"stateMutability": "view",
			"type": "function"
		},
		{
			"inputs": [],
			"name": "name",
			"outputs": [
				{
					"internalType": "string",
					"name": "",
					"type": "string"
				}
			],
			"stateMutability": "view",
			"type": "function"
		},
		{
			"inputs": [],
			"name": "owner",
			"outputs": [
				{
					"internalType": "address",
					"name": "",
					"type": "address"
				}
			],
			"stateMutability": "view",
			"type": "function"
		},
		{
			"inputs": [
				{
					"internalType": "uint256",
					"name": "tokenId",
					"type": "uint256"
				}
			],
			"name": "ownerOf",
			"outputs": [
				{
					"internalType": "address",
					"name": "",
					"type": "address"
				}
			],
			"stateMutability": "view",
			"type": "function"
		},
		{
			"inputs": [],
			"name": "paused",
			"outputs": [
				{
					"internalType": "bool",
					"name": "",
					"type": "bool"
				}
			],
			"stateMutability": "view",
			"type": "function"
		},
		{
			"inputs": [],
			"name": "renounceOwnership",
			"outputs": [],
			"stateMutability": "nonpayable",
			"type": "function"
		},
		{
			"inputs": [],
			"name": "renounceOwnershipandAdminship",
			"outputs": [],
			"stateMutability": "nonpayable",
			"type": "function"
		},
		{
			"inputs": [
				{
					"internalType": "address",
					"name": "from",
					"type": "address"
				},
				{
					"internalType": "address",
					"name": "to",
					"type": "address"
				},
				{
					"internalType": "uint256",
					"name": "tokenId",
					"type": "uint256"
				}
			],
			"name": "safeTransferFrom",
			"outputs": [],
			"stateMutability": "nonpayable",
			"type": "function"
		},
		{
			"inputs": [
				{
					"internalType": "address",
					"name": "from",
					"type": "address"
				},
				{
					"internalType": "address",
					"name": "to",
					"type": "address"
				},
				{
					"internalType": "uint256",
					"name": "tokenId",
					"type": "uint256"
				},
				{
					"internalType": "bytes",
					"name": "_data",
					"type": "bytes"
				}
			],
			"name": "safeTransferFrom",
			"outputs": [],
			"stateMutability": "nonpayable",
			"type": "function"
		},
		{
			"inputs": [
				{
					"internalType": "uint256",
					"name": "_tokenId",
					"type": "uint256"
				}
			],
			"name": "secretUnlockWithClaimIfNeeded",
			"outputs": [],
			"stateMutability": "nonpayable",
			"type": "function"
		},
		{
			"inputs": [
				{
					"internalType": "address",
					"name": "newAdmin",
					"type": "address"
				}
			],
			"name": "setAdmin",
			"outputs": [],
			"stateMutability": "nonpayable",
			"type": "function"
		},
		{
			"inputs": [
				{
					"internalType": "address",
					"name": "operator",
					"type": "address"
				},
				{
					"internalType": "bool",
					"name": "approved",
					"type": "bool"
				}
			],
			"name": "setApprovalForAll",
			"outputs": [],
			"stateMutability": "nonpayable",
			"type": "function"
		},
		{
			"inputs": [
				{
					"internalType": "string",
					"name": "_newBaseExtension",
					"type": "string"
				}
			],
			"name": "setBaseExtension",
			"outputs": [],
			"stateMutability": "nonpayable",
			"type": "function"
		},
		{
			"inputs": [
				{
					"internalType": "string",
					"name": "_baseURI",
					"type": "string"
				}
			],
			"name": "setBaseURI",
			"outputs": [],
			"stateMutability": "nonpayable",
			"type": "function"
		},
		{
			"inputs": [
				{
					"internalType": "uint256",
					"name": "_lineNumber",
					"type": "uint256"
				}
			],
			"name": "setLineOfClue",
			"outputs": [],
			"stateMutability": "nonpayable",
			"type": "function"
		},
		{
			"inputs": [
				{
					"internalType": "address",
					"name": "_newMagAddress",
					"type": "address"
				}
			],
			"name": "setMagnesiumAddress",
			"outputs": [],
			"stateMutability": "nonpayable",
			"type": "function"
		},
		{
			"inputs": [
				{
					"internalType": "bool",
					"name": "_paused",
					"type": "bool"
				}
			],
			"name": "setPaused",
			"outputs": [],
			"stateMutability": "nonpayable",
			"type": "function"
		},
		{
			"inputs": [
				{
					"internalType": "bool",
					"name": "_enable",
					"type": "bool"
				}
			],
			"name": "setSecretUnlockEnabled",
			"outputs": [],
			"stateMutability": "nonpayable",
			"type": "function"
		},
		{
			"inputs": [
				{
					"internalType": "bytes32",
					"name": "_whitelistMerkleRoot",
					"type": "bytes32"
				}
			],
			"name": "setWhitelistMerkleRoot",
			"outputs": [],
			"stateMutability": "nonpayable",
			"type": "function"
		},
		{
			"inputs": [
				{
					"internalType": "uint256",
					"name": "_newTime",
					"type": "uint256"
				}
			],
			"name": "setYieldEndTime",
			"outputs": [],
			"stateMutability": "nonpayable",
			"type": "function"
		},
		{
			"inputs": [
				{
					"internalType": "bytes4",
					"name": "interfaceId",
					"type": "bytes4"
				}
			],
			"name": "supportsInterface",
			"outputs": [
				{
					"internalType": "bool",
					"name": "",
					"type": "bool"
				}
			],
			"stateMutability": "view",
			"type": "function"
		},
		{
			"inputs": [],
			"name": "symbol",
			"outputs": [
				{
					"internalType": "string",
					"name": "",
					"type": "string"
				}
			],
			"stateMutability": "view",
			"type": "function"
		},
		{
			"inputs": [
				{
					"internalType": "uint256",
					"name": "index",
					"type": "uint256"
				}
			],
			"name": "tokenByIndex",
			"outputs": [
				{
					"internalType": "uint256",
					"name": "",
					"type": "uint256"
				}
			],
			"stateMutability": "view",
			"type": "function"
		},
		{
			"inputs": [
				{
					"internalType": "address",
					"name": "owner",
					"type": "address"
				},
				{
					"internalType": "uint256",
					"name": "index",
					"type": "uint256"
				}
			],
			"name": "tokenOfOwnerByIndex",
			"outputs": [
				{
					"internalType": "uint256",
					"name": "tokenId",
					"type": "uint256"
				}
			],
			"stateMutability": "view",
			"type": "function"
		},
		{
			"inputs": [
				{
					"internalType": "uint256",
					"name": "_tokenId",
					"type": "uint256"
				}
			],
			"name": "tokenURI",
			"outputs": [
				{
					"internalType": "string",
					"name": "",
					"type": "string"
				}
			],
			"stateMutability": "view",
			"type": "function"
		},
		{
			"inputs": [],
			"name": "totalSupply",
			"outputs": [
				{
					"internalType": "uint256",
					"name": "",
					"type": "uint256"
				}
			],
			"stateMutability": "view",
			"type": "function"
		},
		{
			"inputs": [
				{
					"internalType": "address",
					"name": "from",
					"type": "address"
				},
				{
					"internalType": "address",
					"name": "to",
					"type": "address"
				},
				{
					"internalType": "uint256",
					"name": "tokenId",
					"type": "uint256"
				}
			],
			"name": "transferFrom",
			"outputs": [],
			"stateMutability": "nonpayable",
			"type": "function"
		},
		{
			"inputs": [
				{
					"internalType": "address",
					"name": "newOwner",
					"type": "address"
				}
			],
			"name": "transferOwnership",
			"outputs": [],
			"stateMutability": "nonpayable",
			"type": "function"
		},
		{
			"inputs": [
				{
					"internalType": "uint256",
					"name": "_tokenId",
					"type": "uint256"
				},
				{
					"internalType": "uint256",
					"name": "_targetLevel",
					"type": "uint256"
				}
			],
			"name": "upgradeDeviceAndClaim",
			"outputs": [],
			"stateMutability": "nonpayable",
			"type": "function"
		},
		{
			"inputs": [],
			"name": "whitelistMerkleRoot",
			"outputs": [
				{
					"internalType": "bytes32",
					"name": "",
					"type": "bytes32"
				}
			],
			"stateMutability": "view",
			"type": "function"
		},
		{
			"inputs": [],
			"name": "yieldEndTime",
			"outputs": [
				{
					"internalType": "uint256",
					"name": "",
					"type": "uint256"
				}
			],
			"stateMutability": "view",
			"type": "function"
		}
	]
}